:100000000C9472000C9462010C94B3010C94860061
:100010000C9486000C9486000C9486000C94860048
:100020000C9486000C9486000C9486000C94860038
:100030000C9486000C9486000C9486000C94860028
:100040000C9486000C9486000C9486000C94860018
:100050000C9486000C9486000C9486000C94860008
:100060000C9486000C9486000C9486000C948600F8
:100070000C9486000C9486000C9486000C948600E8
:100080000C9486000C9486000C9486000C948600D8
:100090000C9486000C9486000C9486000C948600C8
:1000A0000C9486000C9486000C9482020C948600BA
:1000B0000C9486000C9457020C9486000C942F022A
:1000C0000C9486000C9486000C9404020C94860018
:1000D0000C9486000C9486000C9486000C94860088
:1000E0000C94860011241FBECFEFD1E2DEBFCDBF3E
:1000F00000E00CBF22E0A0E0B2E001C01D92AA30F7
:10010000B207E1F70E94AA020C947B080C9400004D
:10011000CF93DF93CDB7DEB781E890E0FC0120817B
:1001200081E890E02160FC01208384E290E0FC0102
:10013000208184E290E02061FC0120838DE390E047
:10014000FC0120818DE390E02160FC01208389E6A1
:1001500090E0FC01208189E690E02160FC01208391
:1001600081E990E0FC01208181E990E02160FC01BF
:10017000208384E290E0FC01208184E290E0206210
:10018000FC0120838DE390E0FC0120818DE390E071
:100190002260FC01208389E690E0FC01208189E651
:1001A00090E02460FC01208381E291E021E0FC01E9
:1001B000208383E790E023E0FC01208388E291E044
:1001C000FC011182108281EA90E021E0FC01208391
:1001D00082E790E023E0FC01208388EA90E0FC01C4
:1001E0001182108287E290E0FC01208187E290E09A
:1001F0002068FC01208387E290E0FC01208187E2F7
:1002000090E02064FC01208387E290E0FC012081E3
:1002100087E290E02062FC01208387E290E0FC010D
:10022000208187E290E02061FC01208387E290E05A
:10023000FC01208187E290E02860FC01208387E2B6
:1002400090E0FC01208187E290E02460FC012083A3
:1002500088E290E0FC01208188E290E02F77FC01A9
:10026000208388E290E0FC01208188E290E02F7BEF
:10027000FC01208388E290E0FC01208188E290E08C
:100280002F7DFC01208388E290E0FC01208188E240
:1002900090E02F7EFC01208388E290E0FC01208129
:1002A00088E290E0277FFC01208388E290E0FC0157
:1002B000208188E290E02B7FFC0120830000DF9109
:1002C000CF9108951F920F920FB60F9211240BB683
:1002D0000F922F938F939F93EF93FF93CF93DF937F
:1002E000CDB7DEB780910202909103028130910573
:1002F000B1F481E890E0FC01108284E890E0FC0118
:1003000080819181909301028093000284E890E0C3
:10031000FC0111821082109203021092020280915D
:10032000020290910302009779F481E890E0FC01C9
:10033000208181E890E02160FC01208381E090E051
:1003400090930302809302020000DF91CF91FF910E
:10035000EF919F918F912F910F900BBE0F900FBE39
:100360000F901F9018951F920F920FB60F921124A5
:100370000BB60F922F938F939F93EF93FF93CF938F
:10038000DF93CDB7DEB780910602909107028130EE
:100390009105B1F481E990E0FC01108284E990E0DC
:1003A000FC0180819181909305028093040284E98D
:1003B00090E0FC0111821082109207021092060256
:1003C0008091060290910702009779F481E990E00C
:1003D000FC01208181E990E02160FC01208381E023
:1003E00090E090930702809306020000DF91CF9186
:1003F000FF91EF919F918F912F910F900BBE0F90D6
:100400000FBE0F901F9018951F920F920FB60F926C
:1004100011240BB60F922F933F938F939F93EF93DB
:10042000FF93CF93DF93CDB7DEB788E290E0FC0176
:10043000308188E290E020E82327FC01208300003F
:10044000DF91CF91FF91EF919F918F913F912F91EC
:100450000F900BBE0F900FBE0F901F9018951F921C
:100460000F920FB60F9211240BB60F922F938F930A
:100470009F93EF93FF93CF93DF93CDB7DEB788E2DF
:1004800090E0FC01208188E290E02068FC0120835C
:100490000000DF91CF91FF91EF919F918F912F916C
:1004A0000F900BBE0F900FBE0F901F9018951F92CC
:1004B0000F920FB60F9211240BB60F922F933F930A
:1004C0008F939F93EF93FF93CF93DF93CDB7DEB7D7
:1004D00088E290E0FC01308188E290E024E023276C
:1004E000FC0120830000DF91CF91FF91EF919F915C
:1004F0008F913F912F910F900BBE0F900FBE0F90D9
:100500001F9018951F920F920FB60F9211240BB6E1
:100510000F922F938F939F93EF93FF93CF93DF933C
:10052000CDB7DEB788E290E0FC01208188E290E060
:100530002460FC0120830000DF91CF91FF91EF91B7
:100540009F918F912F910F900BBE0F900FBE0F9028
:100550001F901895CF93DF93CDB7DEB7C457D1095D
:100560000FB6F894DEBF0FBECDBF0E94880078940E
:100570008AE00E94D9058AE00E9402061A82198246
:100580001C821B8280910002909101029C01990FB4
:10059000440B550B29AF3AAF4BAF5CAF69AD7AADA9
:1005A0008BAD9CAD0E9459076DA37EA38FA398A726
:1005B00022EB3DE94FE25CE36DA17EA18FA198A5FE
:1005C0000E940E0821966CAF7DAF8EAF9FAF219732
:1005D00021968CAD9DADAEADBFAD219789A79AA7F1
:1005E000ABA7BCA769A57AA58BA59CA50E942107EE
:1005F00025966CAF7DAF8EAF9FAF25972396AEAD9E
:10060000BFAD2397BA83A98380910402909105021C
:100610009C01990F440B550B29962CAF3DAF4EAF63
:100620005FAF299729966CAD7DAD8EAD9FAD2997B3
:100630000E9459076DA77EA78FA798AB22EB3DE9D3
:100640004FE25CE36DA57EA58FA598A90E940E08D8
:100650002D966CAF7DAF8EAF9FAF2D972D968CAD45
:100660009DADAEADBFAD2D9789AB9AABABABBCAB7F
:1006700069A97AA98BA99CA90E94210761966CAFF0
:100680007DAF8EAF9FAF61972F96AEADBFAD2F9769
:10069000BC83AB8385E290E0FC01208185E290E0A1
:1006A0002061DC012C9385E290E0FC01208185E251
:1006B00090E02062DC012C9380E090E0A0E7B1E4C0
:1006C0008D839E83AF83B8872BEA3AEA4AEA50E4E7
:1006D0006D817E818F8198850E940E0865966CAF32
:1006E0007DAF8EAF9FAF659765962CAD3DAD4EAD9E
:1006F0005FAD659729873A874B875C8720E030E0BC
:1007000040E850E46D817E818F8198850E940E08BB
:1007100069966CAF7DAF8EAF9FAF699769968CADD0
:100720009DADAEADBFAD69978D879E87AF87B88B06
:1007300020E030E040E85FE369857A858B859C8521
:100740000E94AA0688231CF481E0898BFBC020E06C
:100750003FEF4FE757E46D857E858F8598890E942E
:100760000908882309F00CF4B2C020E030E04AE721
:1007700054E46D817E818F8198850E94AF066D96CD
:100780006CAF7DAF8EAF9FAF6D976D968CAD9DAD0D
:10079000AEADBFAD6D978A8B9B8BAC8BBD8B20E0D4
:1007A00030E04AE755E46A897B898C899D890E94FB
:1007B0000E08A1966CAF7DAF8EAF9FAFA197A196AB
:1007C0002CAD3DAD4EAD5FADA1972E8B3F8B488FCD
:1007D000598F20E030E040E85FE36E897F89888DA3
:1007E000998D0E94AA0688232CF481E090E09B8FCB
:1007F0008A8F62C020E03FEF4FE757E46E897F8920
:10080000888D998D0E940908882309F00CF442C054
:1008100020E030E040E251E46A897B898C899D893F
:100820000E940E08A5966CAF7DAF8EAF9FAFA597C7
:10083000A5968CAD9DADAEADBFADA5978DAB9EAB76
:10084000AFABB8AF6DA97EA98FA998AD0E9428075C
:10085000A9966CAF7DAF8EAF9FAFA997A796AEADAF
:10086000BFADA797BB8FAA8F10C080E991E09D8F85
:100870008C8F8C8D9D8D0197F1F79D8F8C8F000053
:100880008A8D9B8D01979B8F8A8F8A8D9B8D009778
:1008900061F758C06E897F89888D998D0E942807DD
:1008A000AD966CAF7DAF8EAF9FAFAD97AB96EEAD13
:1008B000FFADAB97FB8FEA8F8A8D9B8D9F8F8E8FBD
:1008C0008E8D9F8D0197F1F79F8F8E8F3BC020E01B
:1008D00030E04FE753E469857A858B859C850E94DB
:1008E00009088823F9F0F4F06D857E858F85988955
:1008F0000E942807E1966CAF7DAF8EAF9FAFE19766
:10090000AF962EAD3FADAF9739A328A388A199A18B
:100910009BA38AA38AA19BA10197F1F79BA38AA31A
:10092000000017C069857A858B859C850E94280701
:10093000E5966CAF7DAF8EAF9FAFE597E2963FAD8A
:10094000E297398B89898CA38CA18A95F1F78CA3C6
:10095000000085E290E0DC012C9185E290E02F7EA2
:10096000FC01208385E290E0DC012C9185E290E09F
:100970002F7DFC0120838091080290910902823032
:10098000910509F4E9C08230910511F00CF0FACD1F
:10099000009721F081309105D1F10AC188E290E001
:1009A000DC012C9188E290E02F7DFC01208388E21D
:1009B00090E0DC012C9188E290E02064FC0120832F
:1009C00088E290E0DC012C9188E290E02860FC0154
:1009D000208388E290E0DC012C9188E290E02F7E79
:1009E000FC0120838B819C818837910511F00CF0EC
:1009F000DEC089819A818837910511F00CF0D7C04B
:100A000081E090E09093090280930802D0C08B812E
:100A10009C818634910509F04CF58B819C8199234A
:100A20002CF188E290E0DC012C9188E290E02062D9
:100A3000FC01208388E290E0DC012C9188E290E0C8
:100A40002F7BFC01208388E290E0DC012C9188E27E
:100A500090E02860FC01208388E290E0DC012C918A
:100A600088E290E02F7EFC01208375C089819A8105
:100A70008634910509F04CF589819A8199232CF1EE
:100A800088E290E0DC012C9188E290E02F7DFC016F
:100A9000208388E290E0DC012C9188E290E02064E1
:100AA000FC01208388E290E0DC012C9188E290E058
:100AB000277FFC01208388E290E0DC012C9188E212
:100AC00090E02061FC01208346C089819A818C32AC
:100AD000F1E09F0709F0C4F589819A818737910574
:100AE00099F194F18B819C818C3221E0920709F07D
:100AF0005CF58B819C818737910531F12CF188E27F
:100B000090E0DC012C9188E290E02F7DFC012083B5
:100B100088E290E0DC012C9188E290E02064FC0106
:100B2000208388E290E0DC012C9188E290E028604C
:100B3000FC01208388E290E0DC012C9188E290E0C7
:100B40002F7EFC01208307C082E090E09093090291
:100B5000809308022DC02CC088E290E0DC012C912B
:100B600088E290E02F7DFC01208388E290E0DC01A8
:100B70002C9188E290E02064FC01208388E290E0E0
:100B8000DC012C9188E290E02860FC01208388E25F
:100B900090E0DC012C9188E290E02F7EFC01208324
:100BA00084E10E94D90585E00E94020601C0000090
:100BB000E9CCCF93DF930F92CDB7DEB789838981DC
:100BC0008823DCF08981843609F0BCF48981082E01
:100BD000000C990B2FEF289FA001299F500D112485
:100BE00024E630E0CA01B9010E944106CB019C0114
:100BF00088E291E0FC013183208300000F90DF91B7
:100C0000CF9108950F931F93CF93DF9300D00F924E
:100C10000F92CDB7DEB78983898188233CF1898122
:100C2000843609F01CF58981082E000C990BAA0B5B
:100C3000BB0BAC01332722272A833B834C835D8384
:100C400004E610E020E030E06A817B818C819D81A8
:100C5000A90198010E945506DA01C901AC01BD0144
:100C600088EA90E09A01FC013183208300000F9014
:100C70000F900F900F900F90DF91CF911F910F91D8
:100C8000089597FB072E16F4009407D077FD09D03E
:100C90000E94740607FC05D03EF4909581959F4F05
:100CA0000895709561957F4F0895052E97FB1EF46A
:100CB00000940E946C0657FD07D00E94880607FC2E
:100CC00003D04EF40C946C065095409530952195C8
:100CD0003F4F4F4F5F4F0895909580957095619568
:100CE0007F4F8F4F9F4F0895AA1BBB1B51E107C039
:100CF000AA1FBB1FA617B70710F0A61BB70B881FAC
:100D0000991F5A95A9F780959095BC01CD0108953A
:100D1000A1E21A2EAA1BBB1BFD010DC0AA1FBB1FFF
:100D2000EE1FFF1FA217B307E407F50720F0A21B71
:100D3000B30BE40BF50B661F771F881F991F1A94DE
:100D400069F760957095809590959B01AC01BD0108
:100D5000CF0108950E94940708F481E008950E944D
:100D6000C3060C94CF070E94C80758F00E94C10721
:100D700040F029F45F3F29F00C94B80751110C940E
:100D800003080C94BE070E94E00768F39923B1F3AF
:100D9000552391F3951B550BBB27AA2762177307A1
:100DA000840738F09F5F5F4F220F331F441FAA1F35
:100DB000A9F335D00E2E3AF0E0E832D091505040F1
:100DC000E695001CCAF72BD0FE2F29D0660F771F9F
:100DD000881FBB1F261737074807AB07B0E809F085
:100DE000BB0B802DBF01FF2793585F4F3AF09E3F0A
:100DF000510578F00C94B8070C9403085F3FE4F3B6
:100E0000983ED4F3869577956795B795F7959F5F4C
:100E1000C9F7880F911D9695879597F90895E1E098
:100E2000660F771F881FBB1F621773078407BA07F7
:100E300020F0621B730B840BBA0BEE1F88F7E09552
:100E400008950E9428076894B1110C94030808952E
:100E50000E94E80788F09F5798F0B92F9927B7515B
:100E6000B0F0E1F0660F771F881F991F1AF0BA954E
:100E7000C9F714C0B13091F00E940208B1E00895A2
:100E80000C940208672F782F8827B85F39F0B93F94
:100E9000CCF3869577956795B395D9F73EF4909501
:100EA0008095709561957F4F8F4F9F4F0895E8947F
:100EB00009C097FB3EF490958095709561957F4FA2
:100EC0008F4F9F4F9923A9F0F92F96E9BB27939550
:100ED000F695879577956795B795F111F8CFFAF460
:100EE000BB0F11F460FF1BC06F5F7F4F8F4F9F4F91
:100EF00016C0882311F096E911C0772321F09EE8EF
:100F0000872F762F05C0662371F096E8862F70E054
:100F100060E02AF09A95660F771F881FDAF7880F2E
:100F20009695879597F90895990F0008550FAA0B84
:100F3000E0E8FEEF16161706E807F907C0F01216EC
:100F40001306E407F50798F0621B730B840B950BEF
:100F500039F40A2661F0232B242B252B21F4089544
:100F60000A2609F4A140A6958FEF811D811D0895E1
:100F700097F99F6780E870E060E008959FEF80EC4C
:100F8000089500240A9416161706180609060895EF
:100F900000240A9412161306140605060895092E55
:100FA0000394000C11F4882352F0BB0F40F4BF2BC4
:100FB00011F460FF04C06F5F7F4F8F4F9F4F089504
:100FC00057FD9058440F551F59F05F3F71F04795FA
:100FD000880F97FB991F61F09F3F79F087950895DF
:100FE000121613061406551FF2CF4695F1DF08C0FE
:100FF000161617061806991FF1CF8695710561051B
:1010000008940895E894BB2766277727CB0197F9C2
:1010100008950E94940708F48FEF08950E94210814
:101020000C94CF070E94C10738F00E94C80720F037
:10103000952311F00C94B8070C94BE0711240C945E
:1010400003080E94E00770F3959FC1F3950F50E0ED
:10105000551F629FF001729FBB27F00DB11D639F6A
:10106000AA27F00DB11DAA1F649F6627B00DA11D10
:10107000661F829F2227B00DA11D621F739FB00DB6
:10108000A11D621F839FA00D611D221F749F332726
:10109000A00D611D231F849F600D211D822F762FBF
:1010A0006A2F11249F5750409AF0F1F088234AF09C
:1010B000EE0FFF1FBB1F661F771F881F9150504008
:1010C000A9F79E3F510580F00C94B8070C940308D3
:1010D0005F3FE4F3983ED4F3869577956795B7958F
:1010E000F795E7959F5FC1F7FE2B880F911D9695A9
:0A10F000879597F90895F894FFCF53
:00000001FF
