:100000000C9472000C9486000C9486000C9486006C
:100010000C9486000C9486000C9486000C94860048
:100020000C9486000C9486000C9486000C94860038
:100030000C9486000C9486000C9486000C94860028
:100040000C9486000C94C9010C9486000C948600D4
:100050000C949E010C9486000C9486000C9444022F
:100060000C9486000C9488000C9486000C948600F6
:100070000C9486000C9486000C9486000C948600E8
:100080000C941C020C9486000C9486000C94F101D4
:100090000C9486000C9486000C9486000C948600C8
:1000A0000C9486000C9486000C9486000C948600B8
:1000B0000C9486000C9486000C9486000C948600A8
:1000C0000C9486000C9486000C9486000C94860098
:1000D0000C9486000C9486000C9486000C94860088
:1000E0000C94860011241FBECFEFD1E2DEBFCDBF3E
:1000F00000E00CBF22E0A0E0B2E001C01D92A830F9
:10010000B207E1F70E9462020C9469070C940000A8
:100110001F920F920FB60F9211240BB60F928F936E
:100120009F93EF93FF93CF93DF93CDB7DEB786EC2A
:1001300090E0FC018081882F90E0909301028093F1
:1001400000028091020290910302009751F4809185
:10015000020290910302019690930302809302029F
:1001600004C010920302109202020000DF91CF91AE
:10017000FF91EF919F918F910F900BBE0F900FBE4B
:100180000F901F901895CF93DF93CDB7DEB785EC16
:1001900090E0FC01108284EC90E027E6FC012083D3
:1001A00081EC90E028EDFC01208382EC90E026E0D9
:1001B000FC01208378940000DF91CF910895CF93C4
:1001C000DF93CDB7DEB781E890E021E0FC0120832A
:1001D0008FE690E023E0FC01208388E890E0FC01BA
:1001E0001182108281E990E021E0FC01208381E707
:1001F00090E023E0FC01208388E990E0FC0111827B
:1002000010828EE690E0FC0120818EE690E0216075
:10021000FC01208381E290E0FC01208181E290E0FA
:100220002068FC01208381E290E0FC01208181E2D2
:1002300090E02064FC01208381E290E0FC012081B9
:1002400081E290E02062FC01208381E290E0FC01E9
:10025000208181E290E02061FC01208381E290E036
:10026000FC01208181E290E02860FC01208381E292
:1002700090E0FC01208181E290E02460FC01208379
:1002800082E290E0FC01208182E290E02F77FC0185
:10029000208382E290E0FC01208182E290E02F7BCB
:1002A000FC01208382E290E0FC01208182E290E068
:1002B0002F7DFC01208382E290E0FC01208182E21C
:1002C00090E02F7EFC01208382E290E0FC012081FF
:1002D00082E290E0277FFC01208382E290E0FC0133
:1002E000208182E290E02B7FFC0120838DE290E070
:1002F000FC0120818DE290E02063FC0120838EE2EE
:1003000090E0FC0120818EE290E02F7CFC012083B4
:100310008DE290E0FC0120818DE290E02860FC01FC
:1003200020838EE290E0FC0120818EE290E0277F26
:10033000FC0120830000DF91CF9108951F920F925E
:100340000FB60F9211240BB60F922F933F938F93FA
:100350009F93EF93FF93CF93DF93CDB7DEB782E206
:1003600090E0FC01308182E290E020E82327FC014C
:1003700020830000DF91CF91FF91EF919F918F91AA
:100380003F912F910F900BBE0F900FBE0F901F90BB
:1003900018951F920F920FB60F9211240BB60F9261
:1003A0002F938F939F93EF93FF93CF93DF93CDB7CB
:1003B000DEB782E290E0FC01208182E290E02068DA
:1003C000FC0120830000DF91CF91FF91EF919F917D
:1003D0008F912F910F900BBE0F900FBE0F901F901B
:1003E00018951F920F920FB60F9211240BB60F9211
:1003F0002F933F938F939F93EF93FF93CF93DF932D
:10040000CDB7DEB782E290E0FC01308182E290E07D
:1004100024E02327FC0120830000DF91CF91FF918E
:10042000EF919F918F913F912F910F900BBE0F9065
:100430000FBE0F901F9018951F920F920FB60F923C
:1004400011240BB60F922F938F939F93EF93FF93EB
:10045000CF93DF93CDB7DEB782E290E0FC0120813D
:1004600082E290E02460FC0120830000DF91CF91C4
:10047000FF91EF919F918F912F910F900BBE0F9055
:100480000FBE0F901F9018951F920F920FB60F92EC
:1004900011248F939F93CF93DF93CDB7DEB78091D5
:1004A000060290910702019690930702809306023C
:1004B0000000DF91CF919F918F910F900FBE0F9011
:1004C0001F901895CF93DF9300D00F92CDB7DEB772
:1004D0000E94DF0078941A82198289819A8185307E
:1004E000910509F468C189819A818530910509F0E7
:1004F000A4F789819A818430910509F429C1898101
:100500009A818430910509F044F789819A8183307A
:10051000910509F4C2C089819A818330910509F05F
:10052000E4F689819A818230910509F484C0898139
:100530009A818230910509F084F689819A81009729
:1005400039F089819A818130910509F442C0C5CF83
:100550008EE10E948F058EE10E94CE0582E290E03E
:10056000FC01208182E290E02064FC01208382E291
:1005700090E0FC01208182E290E02F7DFC0120834D
:1005800082E290E0FC01208182E290E02F7EFC017B
:10059000208382E290E0FC01208182E290E02860EA
:1005A000FC01208383E290E0FC01808188230CF42D
:1005B0003BC183E290E0FC018081882F90E0807451
:1005C0009927009709F030C183E090E09A838983EE
:1005D0002BC183E20E948F0589E10E94CE0583E250
:1005E00090E0FC01808188237CF083E290E0FC01B4
:1005F0008081882F90E080749927009729F483E008
:1006000090E09A83898312C183E290E0FC018081AB
:1006100088230CF00BC183E290E0FC018081882FDD
:1006200090E080749927009709F400C184E090E07D
:100630009A838983FBC089E10E948F0583E20E942F
:10064000CE0583E290E0FC01808188237CF083E288
:1006500090E0FC018081882F90E0807499270097BA
:1006600029F483E090E09A838983E2C083E290E0FA
:10067000FC01808188230CF0DBC083E290E0FC0168
:100680008081882F90E080749927009709F4D0C06A
:1006900084E090E09A838983CBC082E290E0FC0101
:1006A000208182E290E02064FC01208382E290E0DD
:1006B000FC01208182E290E02F7DFC01208382E218
:1006C00090E0FC01208182E290E02F7EFC012083FB
:1006D00082E290E0FC01208182E290E02860FC014F
:1006E00020838EE10E948F058EE10E94CE0583E279
:1006F00090E0FC01808188232CF481E090E09A83D3
:10070000898398C083E290E0FC018081882F90E08B
:1007100080749927009729F082E090E09A8389837A
:1007200089C083E290E0FC01808188230CF082C0C4
:1007300083E290E0FC018081882F90E0807499270B
:10074000009709F477C084E090E09A83898372C0AF
:1007500085E490E025E0FC012083809106029091E1
:1007600007028839FAE39F0709F066C01092070272
:100770001092060285E490E0FC01108283E20E9460
:100780008F0589E10E94CE0583E290E0FC01808123
:10079000882F90E080749927009709F04DC083E27C
:1007A00090E0FC01808188230CF446C083E090E057
:1007B0009A83898341C082E290E0FC01208182E239
:1007C00090E02F7BFC01208382E290E0FC012081FD
:1007D00082E290E02F7DFC01208382E290E0FC0128
:1007E000208182E290E02F7EFC01208382E290E073
:1007F000FC01208182E290E0277FFC0120831C82A3
:100800001B8207C00E941E048B819C8101969C83E1
:100810008B838B819C8189309105A1F39CF383E0CC
:1008200090E09A83898309C0000057CE000055CE1E
:10083000000053CE000051CE00004FCECF93DF9387
:10084000CDB7DEB7C454D1090FB6F894DEBF0FBEE2
:10085000CDBF8EE290E0DC012C918EE290E0206230
:10086000FC0120838EE290E0DC012C918EE290E08E
:100870002F7EFC0120838EE290E0DC012C918EE241
:1008800090E02860FC01208380E090E0AAEFB3E4D0
:100890008F87988BA98BBA8B20E030E04AE755E42C
:1008A0006F85788989899A890E94D4066DA37EA371
:1008B0008FA398A78DA19EA1AFA1B8A58B8B9C8B70
:1008C000AD8BBE8B20E030E040E85FE36B897C8934
:1008D0008D899E890E944E0688232CF481E090E049
:1008E000988F8F8B55C020E03FEF4FE757E46B891F
:1008F0007C898D899E890E94CF068823D9F1D4F105
:1009000020E030E040E251E46F85788989899A8956
:100910000E94D40669A77AA78BA79CA789A59AA548
:10092000ABA5BCA589A39AA3ABA3BCA369A17AA1DB
:100930008BA19CA10E9453066DA77EA78FA798ABA1
:10094000ADA5BEA5B88FAF8B10C080E991E09A8F9E
:10095000898F898D9A8D0197F1F79A8F898F000081
:100960008F89988D0197988F8F8B8F89988D00979D
:1009700061F719C06B897C898D899E890E94530615
:1009800069AB7AAB8BAB9CABE9A9FAA9F88FEF8B7B
:100990008F89988D9C8F8B8F8B8D9C8D0197F1F714
:1009A0009C8F8B8F00008EE290E0DC012C918EE218
:1009B00090E02061FC0120838EE290E0DC012C912C
:1009C0008EE290E02F7DFC0120838EE290E0DC013E
:1009D0002C918EE290E0277FFC01208380E090E064
:1009E000AAEFB3E489839A83AB83BC8320E030E031
:1009F0004AE755E469817A818B819C810E94D40603
:100A00006DAB7EAB8FAB98AF8DA99EA9AFA9B8ADEA
:100A10008D839E83AF83B88720E030E040E85FE3BA
:100A20006D817E818F8198850E944E0688232CF4EB
:100A300081E090E09A8789875CC020E03FEF4FE734
:100A400057E46D817E818F8198850E94CF0688232F
:100A500009F00CF43CC020E030E040E251E4698150
:100A60007A818B819C810E94D40669AF7AAF8BAF6B
:100A70009CAF89AD9AADABADBCAD8D8F9E8FAF8F66
:100A8000B8A36D8D7E8D8F8D98A10E9453062196FF
:100A90006CAF7DAF8EAF9FAF2197ADADBEADBA87C6
:100AA000A98710C080E991E09C878B878B859C8506
:100AB0000197F1F79C878B87000089859A850197BC
:100AC0009A87898789859A85009761F71DC06D810E
:100AD0007E818F8198850E94530625966CAF7DAFED
:100AE0008EAF9FAF25972396EEADFFAD2397FA8784
:100AF000E98789859A859E878D878D859E85019753
:100B0000F1F79E878D8700000000CC5BDF4F0FB6AA
:100B1000F894DEBF0FBECDBFDF91CF9108950F9344
:100B20001F93CF93DF9300D00F920F92CDB7DEB714
:100B30008983898188233CF18981843609F01CF5F9
:100B40008981082E000C990BAA0BBB0BAC01332733
:100B500022272A833B834C835D8304E610E020E058
:100B600030E06A817B818C819D81A90198010E947E
:100B70000D06DA01C901AC01BD0188E890E09A01D7
:100B8000FC013183208300000F900F900F900F9095
:100B90000F90DF91CF911F910F9108950F931F93A5
:100BA000CF93DF9300D00F920F92CDB7DEB789833A
:100BB000898188233CF18981843609F01CF589817B
:100BC000082E000C990BAA0BBB0BAC013327222774
:100BD0002A833B834C835D8304E610E020E030E011
:100BE0006A817B818C819D81A90198010E940D06FB
:100BF000DA01C901AC01BD0188E990E09A01FC016C
:100C00003183208300000F900F900F900F900F9072
:100C1000DF91CF911F910F910895052E97FB1EF440
:100C200000940E94240657FD07D00E942C0607FC62
:100C300003D04EF40C9424065095409530952195A0
:100C40003F4F4F4F5F4F08959095809570956195F8
:100C50007F4F8F4F9F4F0895A1E21A2EAA1BBB1BF7
:100C6000FD010DC0AA1FBB1FEE1FFF1FA217B30778
:100C7000E407F50720F0A21BB30BE40BF50B661F8E
:100C8000771F881F991F1A9469F760957095809552
:100C900090959B01AC01BD01CF0108950E94820691
:100CA00008F481E008950E94AE0688F09F5798F0FE
:100CB000B92F9927B751B0F0E1F0660F771F881F61
:100CC000991F1AF0BA95C9F714C0B13091F00E947B
:100CD000C806B1E008950C94C806672F782F8827BE
:100CE000B85F39F0B93FCCF3869577956795B395A2
:100CF000D9F73EF490958095709561957F4F8F4F11
:100D00009F4F0895990F0008550FAA0BE0E8FEEFDA
:100D100016161706E807F907C0F012161306E407BF
:100D2000F50798F0621B730B840B950B39F40A26B8
:100D300061F0232B242B252B21F408950A2609F496
:100D4000A140A6958FEF811D811D089557FD9058F4
:100D5000440F551F59F05F3F71F04795880F97FB7F
:100D6000991F61F09F3F79F0879508951216130639
:100D70001406551FF2CF4695F1DF08C01616170668
:100D80001806991FF1CF869571056105089408959D
:100D9000E894BB2766277727CB0197F908950E942F
:100DA000820608F48FEF08950E94E7060C94580716
:100DB0000E944A0738F00E94510720F0952311F055
:100DC0000C9441070C94470711240C94C9060E9407
:100DD000A60670F3959FC1F3950F50E0551F629FD3
:100DE000F001729FBB27F00DB11D639FAA27F00D84
:100DF000B11DAA1F649F6627B00DA11D661F829FAB
:100E00002227B00DA11D621F739FB00DA11D621F8F
:100E1000839FA00D611D221F749F3327A00D611DAC
:100E2000231F849F600D211D822F762F6A2F11248E
:100E30009F5750409AF0F1F088234AF0EE0FFF1FC1
:100E4000BB1F661F771F881F91505040A9F79E3F18
:100E5000510580F00C9441070C94C9065F3FE4F300
:100E6000983ED4F3869577956795B795F795E7956E
:100E70009F5FC1F7FE2B880F911D9695879597F977
:100E8000089597F99F6780E870E060E008959FEF0C
:100E900080EC089500240A94161617061806090611
:100EA000089500240A9412161306140605060895E0
:100EB000092E0394000C11F4882352F0BB0F40F468
:100EC000BF2B11F460FF04C06F5F7F4F8F4F9F4FA8
:060ED0000895F894FFCF25
:00000001FF
