:100000000C9472000C94E7070C9438080C9489083F
:100010000C94DA080C9493000C9493000C949300C5
:100020000C9493000C9493000C9493000C94930004
:100030000C9493000C9493000C9493000C949300F4
:100040000C9493000C9493000C9493000C949300E4
:100050000C9493000C9493000C9493000C949300D4
:100060000C9493000C9493000C9493000C949300C4
:100070000C9493000C9493000C9493000C949300B4
:100080000C9493000C9493000C9493000C949300A4
:100090000C9493000C9493000C9493000C94930094
:1000A0000C9493000C9493000C9493000C94930084
:1000B0000C9493000C9493000C9493000C94930074
:1000C0000C9493000C9493000C9493000C94930064
:1000D0000C9493000C9493000C9493000C94930054
:1000E0000C94930011241FBECFEFD1E2DEBFCDBF31
:1000F00000E00CBF12E0A0E0B2E0E2E7FFE100E0C8
:100100000BBF02C007900D92A432B107D9F722E0CD
:10011000A4E2B2E001C01D92A433B207E1F70E944D
:100120002B090C94B70F0C9400000F931F93CF93DF
:10013000DF93CDB7DEB7C25BD1090FB6F894DEBF4F
:100140000FBECDBF8AE091E0DC012C918AE091E006
:100150002760FC0120839E012F5B3F4F80E090E0F1
:10016000A0E7B1E4F90180839183A283B3838E0178
:100170000B5B1F4FCE018F5B9F4F20E030E04AE7C3
:1001800055E4DC016D917D918D919C910E940A0F47
:100190006F966CAF7DAF8EAF9FAF6F976F968CAD44
:1001A0009DADAEADBFAD6F97F80180839183A28303
:1001B000B383CE018B5B9F4F20E030E040E85FE3EC
:1001C000DC016D917D918D919C910E94A60D8823FB
:1001D0004CF4CE01875B9F4F21E030E0FC0131837E
:1001E000208395C0CE018B5B9F4F20E03FEF4FE710
:1001F00057E4DC016D917D918D919C910E94050FDA
:10020000882309F00CF469C0CE018F5B9F4F20E07A
:1002100030E040E251E4FC01608171818281938190
:100220000E940A0FA3966CAF7DAF8EAF9FAFA397CE
:10023000A3968CAD9DADAEADBFADA3976B968CAFC5
:100240009DAFAEAFBFAF6B978E01075B1F4F6B9635
:100250006CAD7DAD8EAD9FAD6B970E94240EA796C1
:100260006CAF7DAF8EAF9FAFA797A596EEADFFADFC
:10027000A597D8011196FC93EE9326C0CE01855B1D
:100280009F4F20E931E0DC012D933C93CE01855B4B
:100290009F4FFC01808191810197F1F79E01255BC1
:1002A0003F4FD9018D939C930000CE01875B9F4FF8
:1002B0009E01275B3F4FF901208131812150310997
:1002C000DC0111963C932E93CE01875B9F4FFC017E
:1002D00080819181009791F635C08E01075B1F4F99
:1002E000CE018B5B9F4FDC016D917D918D919C9137
:1002F0000E94240EAB966CAF7DAF8EAF9FAFAB97D5
:10030000A9968EAD9FADA997F80191838083CE0108
:10031000835B9F4F9E01275B3F4FD9012D913C91FD
:10032000FC0131832083CE01835B9F4FDC018D91E3
:100330009C910197F1F79E01235B3F4FF901918357
:10034000808300000E94A90688E30E94200680E0C6
:1003500090E0A8E4B2E489A39AA3ABA3BCA32BEAE0
:100360003AEA4AEA50E469A17AA18BA19CA10E94D1
:100370000A0FAF966CAF7DAF8EAF9FAFAF97AF96C2
:100380008CAD9DADAEADBFADAF978DA39EA3AFA31A
:10039000B8A720E030E040E850E469A17AA18BA141
:1003A0009CA10E940A0FE3966CAF7DAF8EAF9FAF0A
:1003B000E397E3968CAD9DADAEADBFADE39789A756
:1003C0009AA7ABA7BCA720E030E040E85FE36DA1AF
:1003D0007EA18FA198A50E94A60D88231CF481E020
:1003E0008DA70FC120E03FEF4FE757E469A57AA53D
:1003F0008BA59CA50E94050F882309F00CF4BEC0B4
:1004000020E030E04AE754E469A17AA18BA19CA1E5
:100410000E94AB0DE7966CAF7DAF8EAF9FAFE797B5
:10042000E7968CAD9DADAEADBFADE7978EA79FA70C
:10043000A8ABB9AB20E030E04AE755E46EA57FA554
:1004400088A999A90E940A0FEB966CAF7DAF8EAF79
:100450009FAFEB97EB968CAD9DADAEADBFADEB977F
:100460008AAB9BABACABBDAB20E030E040E85FE3D8
:100470006AA97BA98CA99DA90E94A60D88232CF4AA
:1004800081E090E09FAB8EAB6EC020E03FEF4FE786
:1004900057E46AA97BA98CA99DA90E94050F88230E
:1004A00009F00CF44AC020E030E040E251E46EA5CF
:1004B0007FA588A999A90E940A0FEF966CAF7DAF1E
:1004C0008EAF9FAFEF97EF968CAD9DADAEADBFAD4C
:1004D000EF9767968CAF9DAFAEAFBFAF679767964C
:1004E0006CAD7DAD8EAD9FAD67970E94240EC15857
:1004F000DF4F688379838A839B83CF57D040C1586D
:10050000DF4FA881B981CF57D040BFABAEAB10C091
:1005100080E991E099AF88AF88AD99AD0197F1F787
:1005200099AF88AF00008EA99FA901979FAB8EABB2
:100530008EA99FA9009761F764C06AA97BA98CA9BD
:100540009DA90E94240ECD57DF4F688379838A834B
:100550009B83C358D040CD57DF4FE881F981C35802
:10056000D040FFABEEAB8EA99FA99BAF8AAF8AADFF
:100570009BAD0197F1F79BAF8AAF43C020E030E01D
:100580004FE753E46DA17EA18FA198A50E94050FAE
:10059000882319F114F169A57AA58BA59CA50E9461
:1005A000240EC957DF4F688379838A839B83C7589A
:1005B000D040C957DF4F88819981C758D0409DAF3F
:1005C0008CAF8CAD9DAD9FAF8EAF8EAD9FAD0197C3
:1005D000F1F79FAF8EAF000028C06DA17EA18FA163
:1005E00098A50E94240EC557DF4F688379838A83BC
:1005F0009B83CB58D040C557DF4F9881CB58D04014
:100600009DA72DA5CE01805C9F4FDC012C93CE01D0
:10061000805C9F4FFC018081282F2A95F1F7CE0145
:10062000805C9F4FDC012C9300008CE00E94200630
:1006300080E090E0A8E4B2E489839A83AB83BC8332
:100640002BEA3AEA4AEA50E469817A818B819C81FB
:100650000E940A0FC157DF4F688379838A839B8387
:10066000CF58D040C157DF4F88819981AA81BB8183
:10067000CF58D0408D839E83AF83B88720E030E091
:1006800040E850E469817A818B819C810E940A0F45
:10069000CD56DF4F688379838A839B83C359D040CB
:1006A000CD56DF4F88819981AA81BB81C359D04043
:1006B00089879A87AB87BC8720E030E040E85FE31A
:1006C0006D817E818F8198850E94A60D88231CF400
:1006D00081E08D871BC120E03FEF4FE757E469853C
:1006E0007A858B859C850E94050F882309F00CF480
:1006F000CAC020E030E04AE754E469817A818B8106
:100700009C810E94AB0DC956DF4F688379838A8331
:100710009B83C759D040C956DF4F88819981AA81F0
:10072000BB81C759D0408E879F87A88BB98B20E0AB
:1007300030E04AE755E46E857F85888999890E9473
:100740000A0FC556DF4F688379838A839B83CB5911
:10075000D040C556DF4F88819981AA81BB81CB5992
:10076000D0408A8B9B8BAC8BBD8B20E030E040E887
:100770005FE36A897B898C899D890E94A60D882305
:100780002CF481E090E09F8B8E8B72C020E03FEFD5
:100790004FE757E46A897B898C899D890E94050F00
:1007A000882309F00CF44EC020E030E040E251E430
:1007B0006E857F85888999890E940A0FC156DF4F0F
:1007C000688379838A839B83CF59D040C156DF4F9A
:1007D00088819981AA81BB81CF59D04063968CAF23
:1007E0009DAFAEAFBFAF639763966CAD7DAD8EAD81
:1007F0009FAD63970E94240ECD55DF4F68837983A8
:100800008A839B83C35AD040CD55DF4FA881B981DD
:10081000C35AD040BF8BAE8B10C080E991E0998F56
:10082000888F888D998D0197F1F7998F888F0000B7
:100830008E899F8901979F8B8E8B8E899F890097C8
:1008400061F764C06A897B898C899D890E94240E26
:10085000C955DF4F688379838A839B83C75AD04009
:10086000C955DF4FE881F981C75AD040FF8BEE8B25
:100870008E899F899B8F8A8F8A8D9B8D0197F1F737
:100880009B8F8A8F43C020E030E04FE753E46D81B7
:100890007E818F8198850E94050F882319F114F1BC
:1008A00069857A858B859C850E94240EC555DF4F0E
:1008B000688379838A839B83CB5AD040C555DF4FA9
:1008C00088819981CB5AD0409D8F8C8F8C8D9D8D46
:1008D0009F8F8E8F8E8D9F8D0197F1F79F8F8E8FBB
:1008E00000001BC06D817E818F8198850E94240E3F
:1008F000C155DF4F688379838A839B83CF5AD04069
:10090000C155DF4F9881CF5AD0409D878D8588A3F0
:1009100088A18A95F1F788A300000000CE54DF4F2C
:100920000FB6F894DEBF0FBECDBFDF91CF911F9100
:100930000F910895CF93DF93CDB7DEB787E290E0B4
:10094000FC0110828BE091E0FC0120818BE091E0C2
:100950002260FC0120838BE091E0FC0120818BE090
:1009600091E02E7FFC01208302C00E94C60488E231
:1009700090E0FC0180818823C4F387E290E02FEFB0
:10098000FC0120830000DF91CF910895CF93DF9386
:10099000CDB7DEB7C854D1090FB6F894DEBF0FBE8D
:1009A000CDBF8BE091E0DC012C918BE091E02460E5
:1009B000FC01208380E090E0A8E4B2E489839A837C
:1009C000AB83BC832BEA3AEA4AEA50E469817A8134
:1009D0008B819C810E940A0F6DA37EA38FA398A791
:1009E0008DA19EA1AFA1B8A58D839E83AF83B8874B
:1009F00020E030E040E850E469817A818B819C817D
:100A00000E940A0F69A77AA78BA79CA789A59AA518
:100A1000ABA5BCA589879A87AB87BC8720E030E06F
:100A200040E85FE36D817E818F8198850E94A60DED
:100A300088231CF481E08D87E8C020E03FEF4FE77A
:100A400057E469857A858B859C850E94050F8823EC
:100A500009F00CF49FC020E030E04AE754E46981DB
:100A60007A818B819C810E94AB0D6DA77EA78FA799
:100A700098AB8DA59EA5AFA5B8A98E879F87A88B9B
:100A8000B98B20E030E04AE755E46E857F858889A0
:100A900099890E940A0F69AB7AAB8BAB9CAB89A991
:100AA0009AA9ABA9BCA98A8B9B8BAC8BBD8B20E090
:100AB00030E040E85FE36A897B898C899D890E94E8
:100AC000A60D88232CF481E090E09F8B8E8B57C07D
:100AD00020E03FEF4FE757E46A897B898C899D8945
:100AE0000E94050F8823D9F1D4F120E030E040E2E4
:100AF00051E46E857F85888999890E940A0F6DABC4
:100B00007EAB8FAB98AF8DA99EA9AFA9B8AD89A3D5
:100B10009AA3ABA3BCA369A17AA18BA19CA10E94BB
:100B2000240E69AF7AAF8BAF9CAFA9ADBAADBF8BC6
:100B3000AE8B10C080E991E0998F888F888D998D58
:100B40000197F1F7998F888F00008E899F8901970F
:100B50009F8B8E8B8E899F89009761F756C06A891B
:100B60007B898C899D890E94240E21966CAF7DAF74
:100B70008EAF9FAF2197EDADFEADFF8BEE8B8E89D3
:100B80009F899B8F8A8F8A8D9B8D0197F1F79B8F11
:100B90008A8F3BC020E030E04FE753E46D817E81D7
:100BA0008F8198850E94050F8823F9F0F4F06985FC
:100BB0007A858B859C850E94240E25966CAF7DAF2F
:100BC0008EAF9FAF259723968EAD9FAD23979D8FB8
:100BD0008C8F8C8D9D8D9F8F8E8F8E8D9F8D01978D
:100BE000F1F79F8F8E8F000017C06D817E818F81FE
:100BF00098850E94240E29966CAF7DAF8EAF9FAF73
:100C0000299726969FAD26979D878D8588A388A1D5
:100C10008A95F1F788A300008BE091E0DC012C912C
:100C20008BE091E02B7FFC0120830000C85BDF4F4D
:100C30000FB6F894DEBF0FBECDBFDF91CF91089500
:100C4000CF93DF930F92CDB7DEB789830E949A04CA
:100C500088E290E02981FC0120838BE091E0FC0197
:100C600020818BE091E02C7FFC0120830E94C60450
:100C700088E290E0FC01108200000F90DF91CF919C
:100C80000895CF93DF930F92CDB7DEB789830E948B
:100C90009A0488E290E02981FC0120838BE091E0B6
:100CA000FC0120818BE091E02D7FFC0120838BE013
:100CB00091E0FC0120818BE091E02160FC01208328
:100CC0000E94C60488E290E0FC01108200000F90B0
:100CD000DF91CF910895CF93DF930F920F92CDB70D
:100CE000DEB79A8389830BC089819A819C012F5F2B
:100CF0003F4F3A832983FC0180810E94410689810C
:100D00009A81FC018081882309F074F700000000BB
:100D10000F900F90DF91CF910895CF93DF930F92B3
:100D20000F92CDB7DEB789836A838A81882F90E0DE
:100D3000019780509E4FFC018081982F8981890FF7
:100D400081580E94200600000F900F90DF91CF91F4
:100D50000895CF93DF93CDB7DEB7A2970FB6F8947F
:100D6000DEBF0FBECDBF81E00E94200680E090E094
:100D7000A0E0B0E489839A83AB83BC8320E030E0B9
:100D80004AE755E469817A818B819C810E940A0F30
:100D90006B8B7C8B8D8B9E8B8B899C89AD89BE895F
:100DA0008D839E83AF83B88720E030E040E85FE327
:100DB0006D817E818F8198850E94A60D88232CF4F9
:100DC00081E090E09A87898755C020E03FEF4FE7A8
:100DD00057E46D817E818F8198850E94050F88235D
:100DE000D9F1D4F120E030E040E251E469817A8128
:100DF0008B819C810E940A0F6F8B788F898F9A8FCD
:100E00008F89988DA98DBA8D8F87988BA98BBA8B76
:100E10006F85788989899A890E94240E6B8F7C8FCF
:100E20008D8F9E8FAB8DBC8DBA87A98710C080E94E
:100E300091E09C878B878B859C850197F1F79C8738
:100E40008B87000089859A8501979A87898789858C
:100E50009A85009761F719C06D817E818F81988591
:100E60000E94240E6F8F78A389A39AA38F8D98A1D7
:100E70009A87898789859A859E878D878D859E85A6
:100E80000197F1F79E878D8700000000A2960FB6AC
:100E9000F894DEBF0FBECDBFDF91CF910895CF9301
:100EA000DF93CDB7DEB781E890E0FC01208181E8D7
:100EB00090E02160FC01208384E290E0FC0120812D
:100EC00084E290E02061FC0120838DE390E0FC014E
:100ED00020818DE390E02160FC01208389E690E091
:100EE000FC01208189E690E02160FC01208381E9FA
:100EF00090E0FC01208181E990E02160FC012083E9
:100F000084E290E0FC01208184E290E02062FC0118
:100F100020838DE390E0FC0120818DE390E022604E
:100F2000FC01208389E690E0FC01208189E690E0C5
:100F30002460FC01208381EA90E0FC01208181EAA9
:100F400090E02160FC01208384E290E0FC0120819C
:100F500084E290E02064FC0120838DE390E0FC01BA
:100F600020818DE390E02460FC01208389E690E0FD
:100F7000FC01208189E690E02061FC01208381E270
:100F800091E0FC01208181E291E02160FC0120835D
:100F900084E290E0FC01208184E290E02068FC0182
:100FA00020838DE390E0FC0120818DE390E02860B8
:100FB000FC01208389E690E0FC01208189E690E035
:100FC0002064FC0120830000DF91CF9108951F92DF
:100FD0000F920FB60F9211240BB60F922F938F938F
:100FE0009F93EF93FF93CF93DF93CDB7DEB78091BD
:100FF00026029091270281309105B1F481E890E0BA
:10100000FC01108284E890E0FC0180819181909342
:1010100025028093240284E890E0FC011182108272
:1010200010922702109226028091260290912702A8
:10103000009779F481E890E0FC01208181E890E05C
:101040002160FC01208381E090E09093270280934F
:1010500026020000DF91CF91FF91EF919F918F9138
:101060002F910F900BBE0F900FBE0F901F901895F1
:101070001F920F920FB60F9211240BB60F922F935F
:101080008F939F93EF93FF93CF93DF93CDB7DEB70B
:1010900080912A0290912B0281309105B1F481E96F
:1010A00090E0FC01108284E990E0FC018081918154
:1010B000909329028093280284E990E0FC01118238
:1010C000108210922B0210922A0280912A02909193
:1010D0002B02009779F481E990E0FC01208181E9FD
:1010E00090E02160FC01208381E090E090932B024E
:1010F00080932A020000DF91CF91FF91EF919F91A1
:101100008F912F910F900BBE0F900FBE0F901F90DD
:1011100018951F920F920FB60F9211240BB60F92D3
:101120002F938F939F93EF93FF93CF93DF93CDB73D
:10113000DEB780912E0290912F0281309105B1F49B
:1011400081EA90E0FC01108284EA90E0FC01808159
:10115000918190932D0280932C0284EA90E0FC010F
:101160001182108210922F0210922E0280912E0274
:1011700090912F02009779F481EA90E0FC012081A0
:1011800081EA90E02160FC01208381E090E090936F
:101190002F0280932E020000DF91CF91FF91EF91FB
:1011A0009F918F912F910F900BBE0F900FBE0F90BC
:1011B0001F9018951F920F920FB60F9211240BB625
:1011C0000F922F938F939F93EF93FF93CF93DF9380
:1011D000CDB7DEB780913202909133028130910514
:1011E000B1F481E291E0FC01108284E291E0FC0123
:1011F00080819181909331028093300284E291E06A
:10120000FC011182108210923302109232028091FE
:10121000320290913302009779F481E291E0FC016F
:10122000208181E291E02160FC01208381E090E057
:1012300090933302809332020000DF91CF91FF91AF
:10124000EF919F918F912F910F900BBE0F900FBE3A
:101250000F901F901895CF93DF93CDB7DEB7C25094
:10126000D1400FB6F894DEBF0FBECDBF0E944F072E
:1012700078940E9495001A8219821C821B821E8219
:101280001D8218861F8285E290E0DC012C9185E2A8
:1012900090E02061FC01208385E290E0DC012C914C
:1012A00085E290E02062FC01208385E290E0DC0191
:1012B0002C9185E290E02064FC01208385E290E09F
:1012C000DC012C9185E290E02068FC01208380E025
:1012D00090E0A0E7B1E489879A87AB87BC872BEAC7
:1012E0003AEA4AEA50E469857A858B859C850E94B2
:1012F0000A0FC156DF4F688379838A839B83CF5956
:10130000D040C156DF4F288139814A815B81CF5956
:10131000D0402D873E874F87588B20E030E040E853
:1013200050E469857A858B859C850E940A0FCD558E
:10133000DF4F688379838A839B83C35AD040CD551E
:10134000DF4F88819981AA81BB81C35AD040898BA4
:101350009A8BAB8BBC8B20E030E040E85FE36D857F
:101360007E858F8598890E94A60D88231CF481E0D4
:101370008D8B1FC120E03FEF4FE757E469897A89E1
:101380008B899C890E94050F882309F00CF4CEC03C
:1013900020E030E04AE754E469857A858B859C85B6
:1013A0000E94AB0DC955DF4F688379838A839B8385
:1013B000C75AD040C955DF4F88819981AA81BB8126
:1013C000C75AD0408E8B9F8BA88FB98F20E030E01A
:1013D0004AE755E46E897F89888D998D0E940A0FAE
:1013E000C555DF4F688379838A839B83CB5AD0406E
:1013F000C555DF4F288139814A815B81CB5AD04066
:101400002A8F3B8F4C8F5D8F20E030E040E85FE318
:101410006A8D7B8D8C8D9D8D0E94A60D88232CF46A
:1014200081E090E09F8F8E8F76C020E03FEF4FE706
:1014300057E46A8D7B8D8C8D9D8D0E94050F8823CE
:1014400009F00CF452C020E030E040E251E46E8933
:101450007F89888D998D0E940A0FC155DF4F68835F
:1014600079838A839B83CF5AD040C155DF4F8881CF
:101470009981AA81BB81CF5AD040C956DF4F88835A
:101480009983AA83BB83C759D040C956DF4F68816F
:1014900079818A819B81C759D0400E94240ECD5406
:1014A000DF4F688379838A839B83C35BD040CD54AD
:1014B000DF4FA881B981C35BD040BF8FAE8F10C012
:1014C00080E991E099A388A388A199A10197F1F7F8
:1014D00099A388A300008E8D9F8D01979F8F8E8F7B
:1014E0008E8D9F8D009761F764C06A8D7B8D8C8D8A
:1014F0009D8D0E94240EC954DF4F688379838A83AF
:101500009B83C75BD040C954DF4FE881F981C75B3B
:10151000D040FF8FEE8F8E8D9F8D9BA38AA38AA1D3
:101520009BA10197F1F79BA38AA343C020E030E081
:101530004FE753E46D857E858F8598890E94050F5E
:10154000882319F114F169897A898B899C890E9411
:10155000240EC554DF4F688379838A839B83CB5BDA
:10156000D040C554DF4F28813981CB5BD0403DA3AB
:101570002CA38CA19DA19FA38EA38EA19FA10197B7
:10158000F1F79FA38EA300001BC06D857E858F851C
:1015900098890E94240EC154DF4F688379838A831F
:1015A0009B83CF5BD040C154DF4F3881CF5BD040AD
:1015B0003D8B8D8988A788A58A95F1F788A70000BB
:1015C00085E290E0DC012C9185E290E02F7EFC0129
:1015D000208385E290E0DC012C9185E290E02F7D74
:1015E000FC01208385E290E0DC012C9185E290E013
:1015F0002F7BFC01208385E290E0DC012C9185E2C9
:1016000090E02F77FC0120838091240290912502A5
:101610009C01990F440B550BCD53DF4F2883398321
:101620004A835B83C35CD040CD53DF4F68817981AF
:101630008A819B81C35CD0400E94550EEB966CAFB3
:101640007DAF8EAF9FAFEB9722EB3DE94FE25CE3BE
:10165000EB966CAD7DAD8EAD9FADEB970E940A0F02
:10166000C953DF4F688379838A839B83C75CD040EB
:10167000C953DF4F88819981AA81BB81C75CD04063
:10168000EF968CAF9DAFAEAFBFAFEF97EF966CAD5F
:101690007DAD8EAD9FADEF970E941D0EC553DF4F00
:1016A000688379838A839B83CB5CD040C553DF4FAB
:1016B000A881B981CB5CD040BA83A98380912802EC
:1016C000909129029C01990F440B550BC153DF4F98
:1016D000288339834A835B83CF5CD040C153DF4F7B
:1016E000688179818A819B81CF5CD0400E94550EB0
:1016F000C158DF4F688379838A839B83CF57D0405B
:1017000022EB3DE94FE25CE3C158DF4F688179810C
:101710008A819B81CF57D0400E940A0FCD52DF4F64
:10172000688379838A839B83C35DD040CD52DF4F2A
:1017300088819981AA81BB81C35DD040CD57DF4F9D
:1017400088839983AA83BB83C358D040CD57DF4F8A
:10175000688179818A819B81C358D0400E941D0E87
:10176000C952DF4F688379838A839B83C75DD040EA
:10177000C952DF4FA881B981C75DD040BC83AB831C
:1017800080912C0290912D029C01990F440B550BD6
:10179000C552DF4F288339834A835B83CB5DD040BA
:1017A000C552DF4F688179818A819B81CB5DD040B2
:1017B0000E94550EC957DF4F688379838A839B83C4
:1017C000C758D04022EB3DE94FE25CE3C957DF4FF9
:1017D000688179818A819B81C758D0400E940A0F15
:1017E000C152DF4F688379838A839B83CF5DD0406A
:1017F000C152DF4F88819981AA81BB81CF5DD040E2
:10180000C557DF4F88839983AA83BB83CB58D040C9
:10181000C557DF4F688179818A819B81CB58D04041
:101820000E941D0ECD51DF4F688379838A839B838D
:10183000C35ED040CD51DF4FA881B981C35ED04097
:10184000BE83AD8380913002909131029C01990F4B
:10185000440B550BC951DF4F288339834A835B837F
:10186000C75ED040C951DF4F688179818A819B81F1
:10187000C75ED0400E94550EC157DF4F6883798301
:101880008A839B83CF58D04022EB3DE94FE25CE353
:10189000C157DF4F688179818A819B81CF58D040C1
:1018A0000E940A0FC551DF4F688379838A839B8327
:1018B000CB5ED040C551DF4F88819981AA81BB8121
:1018C000CB5ED040CD56DF4F88839983AA83BB83FC
:1018D000C359D040CD56DF4F688179818A819B8181
:1018E000C359D0400E941D0EC151DF4F68837983D8
:1018F0008A839B83CF5ED040C151DF4FA881B981DD
:10190000CF5ED040B887AF839E01295C3F4F89816D
:101910009A814AE050E0B9010E94770F9E01295B4D
:101920003F4F8B819C814AE050E0B9010E94770FC4
:101930009E01295A3F4F8D819E814AE050E0B901B6
:101940000E94770F9E0129593F4F8F8198854AE069
:1019500050E0B9010E94770F89819A818233910505
:1019600009F06CF489819A8199234CF061E081E05F
:101970000E948D0682E092E00E946B061BC08B8164
:101980009C818233910509F06CF48B819C819923B1
:101990004CF061E081E00E948D068DE092E00E94B3
:1019A0006B0608C061E081E00E948D0689E192E04B
:1019B0000E946B0662E081E00E948D06CE01C79610
:1019C0000E946B0662E08BE00E948D06CE01895B6F
:1019D0009F4F0E946B0680E090E0A0E2B1E489A7EF
:1019E0009AA7ABA7BCA720E030E04AE755E469A579
:1019F0007AA58BA59CA50E940A0FCD50DF4F688366
:101A000079838A839B83C35FD040CD50DF4F288189
:101A100039814A815B81C35FD0402DA73EA74FA784
:101A200058AB20E030E040E85FE36DA57EA58FA5D0
:101A300098A90E94A60D88232CF481E090E09AAB2F
:101A400089AB76C020E03FEF4FE757E46DA57EA558
:101A50008FA598A90E94050F882309F00CF452C0A5
:101A600020E030E040E251E469A57AA58BA59CA571
:101A70000E940A0FC950DF4F688379838A839B8352
:101A8000C75FD040C950DF4F88819981AA81BB814F
:101A9000C75FD040C556DF4F88839983AA83BB8335
:101AA000CB59D040C556DF4F688179818A819B81AF
:101AB000CB59D0400E94240EC550DF4F68837983F4
:101AC0008A839B83CB5FD040C550DF4FA881B9810B
:101AD000CB5FD040BAABA9AB10C080E991E09CAB22
:101AE0008BAB8BA99CA90197F1F79CAB8BAB00004A
:101AF00089A99AA901979AAB89AB89A99AA9009754
:101B000061F721C06DA57EA58FA598A90E94240E1E
:101B1000C150DF4F688379838A839B83CF5FD04036
:101B2000C150DF4FE881F981CF5FD040FAABE9AB1C
:101B300089A99AA99EAB8DAB8DA99EA90197F1F7B2
:101B40009EAB8DAB00000E94A9069DCB0E94900E1B
:101B500008F481E008950E94BF0D0C94CB0E0E9402
:101B6000C40E58F00E94BD0E40F029F45F3F29F0EA
:101B70000C94B40E51110C94FF0E0C94BA0E0E94EA
:101B8000DC0E68F39923B1F3552391F3951B550BA4
:101B9000BB27AA2762177307840738F09F5F5F4F40
:101BA000220F331F441FAA1FA9F335D00E2E3AF07F
:101BB000E0E832D091505040E695001CCAF72BD097
:101BC000FE2F29D0660F771F881FBB1F26173707E8
:101BD0004807AB07B0E809F0BB0B802DBF01FF271A
:101BE00093585F4F3AF09E3F510578F00C94B40E35
:101BF0000C94FF0E5F3FE4F3983ED4F386957795FF
:101C00006795B795F7959F5FC9F7880F911D9695D2
:101C1000879597F90895E1E0660F771F881FBB1F2E
:101C2000621773078407BA0720F0621B730B840BDB
:101C3000BA0BEE1F88F7E09508950E94240E689471
:101C4000B1110C94FF0E08950E94E40E88F09F5786
:101C500098F0B92F9927B751B0F0E1F0660F771FD0
:101C6000881F991F1AF0BA95C9F714C0B13091F0C6
:101C70000E94FE0EB1E008950C94FE0E672F782F9F
:101C80008827B85F39F0B93FCCF38695779567958B
:101C9000B395D9F73EF490958095709561957F4FF7
:101CA0008F4F9F4F0895E89409C097FB3EF490959D
:101CB0008095709561957F4F8F4F9F4F9923A9F025
:101CC000F92F96E9BB279395F695879577956795B4
:101CD000B795F111F8CFFAF4BB0F11F460FF1BC0F8
:101CE0006F5F7F4F8F4F9F4F16C0882311F096E98B
:101CF00011C0772321F09EE8872F762F05C0662339
:101D000071F096E8862F70E060E02AF09A95660FF1
:101D1000771F881FDAF7880F9695879597F90895AA
:101D2000990F0008550FAA0BE0E8FEEF16161706EC
:101D3000E807F907C0F012161306E407F50798F054
:101D4000621B730B840B950B39F40A2661F0232B6D
:101D5000242B252B21F408950A2609F4A140A695E9
:101D60008FEF811D811D089597F99F6780E870E0CE
:101D700060E008959FEF80EC089500240A94161601
:101D8000170618060906089500240A941216130669
:101D9000140605060895092E0394000C11F48823F7
:101DA00052F0BB0F40F4BF2B11F460FF04C06F5F13
:101DB0007F4F8F4F9F4F089557FD9058440F551FE9
:101DC00059F05F3F71F04795880F97FB991F61F0BD
:101DD0009F3F79F087950895121613061406551F34
:101DE000F2CF4695F1DF08C0161617061806991FA0
:101DF000F1CF86957105610508940895E894BB2795
:101E000066277727CB0197F908950E94900E08F472
:101E10008FEF08950E941D0F0C94CB0E0E94BD0EF3
:101E200038F00E94C40E20F0952311F00C94B40EEB
:101E30000C94BA0E11240C94FF0E0E94DC0E70F369
:101E4000959FC1F3950F50E0551F629FF001729F5F
:101E5000BB27F00DB11D639FAA27F00DB11DAA1F6E
:101E6000649F6627B00DA11D661F829F2227B00DBB
:101E7000A11D621F739FB00DA11D621F839FA00D46
:101E8000611D221F749F3327A00D611D231F849F96
:101E9000600D211D822F762F6A2F11249F575040ED
:101EA0009AF0F1F088234AF0EE0FFF1FBB1F661F68
:101EB000771F881F91505040A9F79E3F510580F031
:101EC0000C94B40E0C94FF0E5F3FE4F3983ED4F3F1
:101ED000869577956795B795F795E7959F5FC1F7D5
:101EE000FE2B880F911D9695879597F90895453299
:101EF000510520F4423010F00C94820FFB01108247
:101F0000CB010895BB274A3031F4992322F4BDE276
:101F1000909581959F4F0C948E0FBB27FB01552701
:101F2000AA27880F991FAA1FA41710F0A41B839536
:101F30005051B9F7A05DAA3308F0A95DA1930097AD
:101F400079F7B111B1931192CB010C94A70FDC0179
:101F5000FC01672F71917723E1F7329704C07C91E0
:101F60006D9370836291AE17BF07C8F30895F8941C
:021F7000FFCFA1
:101F720000406E616172206C696E6B73006E61610C
:101F82007220726563687473007265636874646F4B
:041F92006F7200006A
:00000001FF
