:100000000C9472000C9493000C9493000C94930045
:100010000C9493000C9493000C9493000C94930014
:100020000C9493000C9493000C9493000C94930004
:100030000C9493000C9493000C9493000C949300F4
:100040000C9493000C9493000C9493000C949300E4
:100050000C9493000C9493000C9493000C949300D4
:100060000C9493000C9495000C9493000C949300C2
:100070000C9493000C9493000C9493000C949300B4
:100080000C9493000C9493000C9493000C949300A4
:100090000C9493000C9493000C9493000C94930094
:1000A0000C9493000C9493000C9493000C94930084
:1000B0000C9493000C9493000C9493000C94930074
:1000C0000C9493000C9493000C9493000C94930064
:1000D0000C9493000C9493000C9493000C94930054
:1000E0000C94930011241FBECFEFD1E2DEBFCDBF31
:1000F00000E00CBF12E0A0E0B2E0ECE6F6E100E0C8
:100100000BBF02C007900D92A032B107D9F722E0D1
:10011000A0E2B2E001C01D92A83AB207E1F70E9446
:1001200037080C94340B0C9400001F920F920FB6FA
:100130000F9211240BB60F928F939F93EF93FF931F
:10014000CF93DF93CDB7DEB786EC90E0FC018081E2
:10015000882F90E0909321028093200280912202C8
:1001600090912302009751F48091220290912302F2
:100170000196909323028093220204C010922302DE
:10018000109222020000DF91CF91FF91EF919F9199
:100190008F910F900BBE0F900FBE0F901F90189570
:1001A0000F931F93CF93DF93CDB7DEB7C25BD10917
:1001B0000FB6F894DEBF0FBECDBF8AE091E0DC0140
:1001C0002C918AE091E02760FC0120839E012F5B47
:1001D0003F4F80E090E0A0E7B1E4F9018083918394
:1001E000A283B3838E010B5B1F4FCE018F5B9F4FAA
:1001F00020E030E04AE755E4DC016D917D918D917E
:100200009C910E94BE0A6F966CAF7DAF8EAF9FAF80
:100210006F976F968CAD9DADAEADBFAD6F97F8018A
:1002200080839183A283B383CE018B5B9F4F20E0B9
:1002300030E040E85FE3DC016D917D918D919C9110
:100240000E949E0988234CF4CE01875B9F4F21E0DA
:1002500030E0FC013183208395C0CE018B5B9F4F42
:1002600020E03FEF4FE757E4DC016D917D918D91E8
:100270009C910E94B90A882309F00CF469C0CE0150
:100280008F5B9F4F20E030E040E251E4FC01608151
:100290007181828193810E94BE0AA3966CAF7DAF6B
:1002A0008EAF9FAFA397A3968CAD9DADAEADBFAD06
:1002B000A3976B968CAF9DAFAEAFBFAF6B978E0120
:1002C000075B1F4F6B966CAD7DAD8EAD9FAD6B9791
:1002D0000E94150AA7966CAF7DAF8EAF9FAFA79710
:1002E000A596EEADFFADA597D8011196FC93EE93C0
:1002F00026C0CE01855B9F4F20E931E0DC012D93C4
:100300003C93CE01855B9F4FFC01808191810197D9
:10031000F1F79E01255B3F4FD9018D939C9300001F
:10032000CE01875B9F4F9E01275B3F4FF9012081E4
:10033000318121503109DC0111963C932E93CE017D
:10034000875B9F4FFC0180819181009791F635C0BA
:100350008E01075B1F4FCE018B5B9F4FDC016D91C0
:100360007D918D919C910E94150AAB966CAF7DAFEB
:100370008EAF9FAFAB97A9968EAD9FADA997F801B1
:1003800091838083CE01835B9F4F9E01275B3F4F0C
:10039000D9012D913C91FC0131832083CE01835BF7
:1003A0009F4FDC018D919C910197F1F79E01235B9A
:1003B0003F4FF9019183808300000E94910788E3F9
:1003C0000E946F0680E090E0A8E4B2E489A39AA3BB
:1003D000ABA3BCA32BEA3AEA4AEA50E469A17AA1AA
:1003E0008BA19CA10E94BE0AAF966CAF7DAF8EAF71
:1003F0009FAFAF97AF968CAD9DADAEADBFADAF9794
:100400008DA39EA3AFA3B8A720E030E040E850E45E
:1004100069A17AA18BA19CA10E94BE0AE3966CAF50
:100420007DAF8EAF9FAFE397E3968CAD9DADAEAD44
:10043000BFADE39789A79AA7ABA7BCA720E030E0A0
:1004400040E85FE36DA17EA18FA198A50E949E095F
:1004500088231CF481E08DA70FC120E03FEF4FE718
:1004600057E469A57AA58BA59CA50E94B90A8823A3
:1004700009F00CF4BEC020E030E04AE754E469A182
:100480007AA18BA19CA10E94A309E7966CAF7DAFD6
:100490008EAF9FAFE797E7968CAD9DADAEADBFAD8C
:1004A000E7978EA79FA7A8ABB9AB20E030E04AE75B
:1004B00055E46EA57FA588A999A90E94BE0AEB966E
:1004C0006CAF7DAF8EAF9FAFEB97EB968CAD9DADD4
:1004D000AEADBFADEB978AAB9BABACABBDAB20E099
:1004E00030E040E85FE36AA97BA98CA99DA90E943E
:1004F0009E0988232CF481E090E09FAB8EAB6EC008
:1005000020E03FEF4FE757E46AA97BA98CA99DA99A
:100510000E94B90A882309F00CF44AC020E030E0B8
:1005200040E251E46EA57FA588A999A90E94BE0A60
:10053000EF966CAF7DAF8EAF9FAFEF97EF968CAD20
:100540009DADAEADBFADEF9767968CAF9DAFAEAF33
:10055000BFAF679767966CAD7DAD8EAD9FAD67976A
:100560000E94150AC158DF4F688379838A839B8371
:10057000CF57D040C158DF4FA881B981CF57D04065
:10058000BFABAEAB10C080E991E099AF88AF88AD4A
:1005900099AD0197F1F799AF88AF00008EA99FA997
:1005A00001979FAB8EAB8EA99FA9009761F764C09E
:1005B0006AA97BA98CA99DA90E94150ACD57DF4F76
:1005C000688379838A839B83C358D040CD57DF4F9C
:1005D000E881F981C358D040FFABEEAB8EA99FA94B
:1005E0009BAF8AAF8AAD9BAD0197F1F79BAF8AAF06
:1005F00043C020E030E04FE753E46DA17EA18FA11E
:1006000098A50E94B90A882319F114F169A57AA561
:100610008BA59CA50E94150AC957DF4F6883798373
:100620008A839B83C758D040C957DF4F88819981FF
:10063000C758D0409DAF8CAF8CAD9DAD9FAF8EAFF6
:100640008EAD9FAD0197F1F79FAF8EAF000028C030
:100650006DA17EA18FA198A50E94150AC557DF4FF5
:10066000688379838A839B83CB58D040C557DF4FFB
:100670009881CB58D0409DA72DA5CE01805C9F4F7F
:10068000DC012C93CE01805C9F4FFC018081282FE0
:100690002A95F1F7CE01805C9F4FDC012C9300007E
:1006A0008CE00E946F0680E090E0A8E4B2E48983C9
:1006B0009A83AB83BC832BEA3AEA4AEA50E4698125
:1006C0007A818B819C810E94BE0AC157DF4F68836B
:1006D00079838A839B83CF58D040C157DF4F88816D
:1006E0009981AA81BB81CF58D0408D839E83AF83EF
:1006F000B88720E030E040E850E469817A818B815E
:100700009C810E94BE0ACD56DF4F688379838A831D
:100710009B83C359D040CD56DF4F88819981AA81F0
:10072000BB81C359D04089879A87AB87BC8720E0BB
:1007300030E040E85FE36D817E818F8198850E9483
:100740009E0988231CF481E08D871BC120E03FEFC8
:100750004FE757E469857A858B859C850E94B90AA5
:10076000882309F00CF4CAC020E030E04AE754E4E2
:1007700069817A818B819C810E94A309C956DF4FD0
:10078000688379838A839B83C759D040C956DF4FDA
:1007900088819981AA81BB81C759D0408E879F8764
:1007A000A88BB98B20E030E04AE755E46E857F8561
:1007B000888999890E94BE0AC556DF4F688379836C
:1007C0008A839B83CB59D040C556DF4F888199815E
:1007D000AA81BB81CB59D0408A8B9B8BAC8BBD8BC4
:1007E00020E030E040E85FE36A897B898C899D895D
:1007F0000E949E0988232CF481E090E09F8B8E8BD1
:1008000072C020E03FEF4FE757E46A897B898C890B
:100810009D890E94B90A882309F00CF44EC020E09B
:1008200030E040E251E46E857F85888999890E9495
:10083000BE0AC156DF4F688379838A839B83CF5971
:10084000D040C156DF4F88819981AA81BB81CF59A1
:10085000D04063968CAF9DAFAEAFBFAF639763964A
:100860006CAD7DAD8EAD9FAD63970E94150ACD55E1
:10087000DF4F688379838A839B83C35AD040CD55E9
:10088000DF4FA881B981C35AD040BF8BAE8B10C057
:1008900080E991E0998F888F888D998D0197F1F784
:1008A000998F888F00008E899F8901979F8B8E8BEF
:1008B0008E899F89009761F764C06A897B898C89DA
:1008C0009D890E94150AC955DF4F688379838A8301
:1008D0009B83C75AD040C955DF4FE881F981C75A79
:1008E000D040FF8BEE8B8E899F899B8F8A8F8A8D5C
:1008F0009B8D0197F1F79B8F8A8F43C020E030E0FA
:100900004FE753E46D817E818F8198850E94B90AFB
:10091000882319F114F169857A858B859C850E945D
:10092000150AC555DF4F688379838A839B83CB5A29
:10093000D040C555DF4F88819981CB5AD0409D8FDB
:100940008C8F8C8D9D8D9F8F8E8F8E8D9F8D01971F
:10095000F1F79F8F8E8F00001BC06D817E818F818C
:1009600098850E94150AC155DF4F688379838A8371
:100970009B83CF5AD040C155DF4F9881CF5AD0408A
:100980009D878D8588A388A18A95F1F788A30000AB
:1009900085EC90E0DC011C9284EC90E027E6FC0101
:1009A000208381EC90E028EDDC012C9382EC90E038
:1009B00026E0FC01208378940000CE54DF4F0FB670
:1009C000F894DEBF0FBECDBFDF91CF911F910F9185
:1009D0000895CF93DF93CDB7DEB787E290E0FC01B7
:1009E00010828BE091E0FC0120818BE091E022609D
:1009F000FC0120838BE091E0FC0120818BE091E001
:100A00002E7FFC01208302C00E94150588E290E041
:100A1000FC0180818823C4F387E290E02FEFFC0182
:100A200020830000DF91CF910895CF93DF93CDB75E
:100A3000DEB7C854D1090FB6F894DEBF0FBECDBFE4
:100A40008BE091E0DC012C918BE091E02460FC01D3
:100A5000208380E090E0A8E4B2E489839A83AB83AA
:100A6000BC832BEA3AEA4AEA50E469817A818B81B5
:100A70009C810E94BE0A6DA37EA38FA398A78DA11F
:100A80009EA1AFA1B8A58D839E83AF83B88720E0D8
:100A900030E040E850E469817A818B819C810E943A
:100AA000BE0A69A77AA78BA79CA789A59AA5ABA51B
:100AB000BCA589879A87AB87BC8720E030E040E8F7
:100AC0005FE36D817E818F8198850E949E098823D6
:100AD0001CF481E08D87E8C020E03FEF4FE757E44A
:100AE00069857A858B859C850E94B90A882309F0DF
:100AF0000CF49FC020E030E04AE754E469817A8139
:100B00008B819C810E94A3096DA77EA78FA798ABBC
:100B10008DA59EA5AFA5B8A98E879F87A88BB98BF9
:100B200020E030E04AE755E46E857F858889998921
:100B30000E94BE0A69AB7AAB8BAB9CAB89A99AA920
:100B4000ABA9BCA98A8B9B8BAC8BBD8B20E030E022
:100B500040E85FE36A897B898C899D890E949E09B0
:100B600088232CF481E090E09F8B8E8B57C020E08F
:100B70003FEF4FE757E46A897B898C899D890E9402
:100B8000B90A8823D9F1D4F120E030E040E251E401
:100B90006E857F85888999890E94BE0A6DAB7EAB80
:100BA0008FAB98AF8DA99EA9AFA9B8AD89A39AA321
:100BB000ABA3BCA369A17AA18BA19CA10E94150A39
:100BC00069AF7AAF8BAF9CAFA9ADBAADBF8BAE8B1F
:100BD00010C080E991E0998F888F888D998D019759
:100BE000F1F7998F888F00008E899F8901979F8BDD
:100BF0008E8B8E899F89009761F756C06A897B89A1
:100C00008C899D890E94150A21966CAF7DAF8EAFAD
:100C10009FAF2197EDADFEADFF8BEE8B8E899F8947
:100C20009B8F8A8F8A8D9B8D0197F1F79B8F8A8F7F
:100C30003BC020E030E04FE753E46D817E818F813F
:100C400098850E94B90A8823F9F0F4F069857A85BD
:100C50008B859C850E94150A25966CAF7DAF8EAF63
:100C60009FAF259723968EAD9FAD23979D8F8C8F39
:100C70008C8D9D8D9F8F8E8F8E8D9F8D0197F1F71F
:100C80009F8F8E8F000017C06D817E818F81988528
:100C90000E94150A29966CAF7DAF8EAF9FAF299742
:100CA00026969FAD26979D878D8588A388A18A95D6
:100CB000F1F788A300008BE091E0DC012C918BE040
:100CC00091E02B7FFC0120830000C85BDF4F0FB653
:100CD000F894DEBF0FBECDBFDF91CF910895CF93C3
:100CE000DF930F92CDB7DEB789830E94E90488E2D3
:100CF00090E02981FC0120838BE091E0FC012081C0
:100D00008BE091E02C7FFC0120830E94150588E296
:100D100090E0FC01108200000F90DF91CF910895C8
:100D2000CF93DF93CDB7DEB7A3970FB6F894DEBFAE
:100D30000FBECDBF8F870E94E90488E290E02F8527
:100D4000DC012C938BE091E0FC0120818BE091E0B1
:100D50002D7FDC012C938BE091E0FC0120818BE066
:100D600091E02160DC012C930E94150588E290E05F
:100D7000FC01108280E090E0A0E2B1E489839A83D4
:100D8000AB83BC8320E030E04AE755E469817A8197
:100D90008B819C810E94BE0A6C8B7D8B8E8B9F8B7E
:100DA0008C899D89AE89BF898D839E83AF83B887E7
:100DB00020E030E040E85FE36D817E818F8198859F
:100DC0000E949E0988232CF481E090E09A8789870D
:100DD00055C020E03FEF4FE757E46D817E818F8162
:100DE00098850E94B90A8823D9F1D4F120E030E037
:100DF00040E251E469817A818B819C810E94BE0A24
:100E0000688F798F8A8F9B8F888D998DAA8DBB8DE6
:100E1000888B998BAA8BBB8B688979898A899B89F6
:100E20000E94150A6C8F7D8F8E8F9F8FAC8DBD8D2C
:100E3000BA87A98710C080E991E09C878B878B8552
:100E40009C850197F1F79C878B87000089859A859F
:100E500001979A87898789859A85009761F719C0D4
:100E60006D817E818F8198850E94150A68A379A380
:100E70008AA39BA3E8A1F9A1FA87E98789859A85C6
:100E80009E878D878D859E850197F1F79E878D873B
:100E900000000000A3960FB6F894DEBF0FBECDBFD2
:100EA000DF91CF910895CF93DF930F920F92CDB73B
:100EB000DEB79A8389830BC089819A819C012F5F59
:100EC0003F4F3A832983FC0180810E9490068981EB
:100ED0009A81FC018081882309F074F700000000EA
:100EE0000F900F90DF91CF910895CF93DF930F92E2
:100EF0000F92CDB7DEB789836A838A81882F90E00D
:100F0000019780509E4FFC018081982F8981890F25
:100F100081580E946F0600000F900F90DF91CF91D3
:100F20000895CF93DF93CDB7DEB7A2970FB6F894AD
:100F3000DEBF0FBECDBF81E00E946F0680E090E073
:100F4000A0E0B0E489839A83AB83BC8320E030E0E7
:100F50004AE755E469817A818B819C810E94BE0AAF
:100F60006B8B7C8B8D8B9E8B8B899C89AD89BE898D
:100F70008D839E83AF83B88720E030E040E85FE355
:100F80006D817E818F8198850E949E0988232CF433
:100F900081E090E09A87898755C020E03FEF4FE7D6
:100FA00057E46D817E818F8198850E94B90A8823DC
:100FB000D9F1D4F120E030E040E251E469817A8156
:100FC0008B819C810E94BE0A6F8B788F898F9A8F4C
:100FD0008F89988DA98DBA8D8F87988BA98BBA8BA5
:100FE0006F85788989899A890E94150A6B8F7C8F11
:100FF0008D8F9E8FAB8DBC8DBA87A98710C080E97D
:1010000091E09C878B878B859C850197F1F79C8766
:101010008B87000089859A8501979A8789878985BA
:101020009A85009761F719C06D817E818F819885BF
:101030000E94150A6F8F78A389A39AA38F8D98A118
:101040009A87898789859A859E878D878D859E85D4
:101050000197F1F79E878D8700000000A2960FB6DA
:10106000F894DEBF0FBECDBFDF91CF910895CF932F
:10107000DF93CDB7DEB7C658D1090FB6F894DEBFFF
:101080000FBECDBF0E94D00061E084E00E947507D2
:1010900082E092E00E94530762E084E00E947507BC
:1010A0008BE092E00E94530781E192E00E942509C3
:1010B00080E090E0AAE7B4E489839A83AB83BC83A1
:1010C00020E030E04AE755E469817A818B819C8198
:1010D0000E94BE0AEB966CAF7DAF8EAF9FAFEB97D1
:1010E000EB968CAD9DADAEADBFADEB978D839E8382
:1010F000AF83B88720E030E040E85FE36D817E8118
:101100008F8198850E949E0988232CF481E090E0CD
:101110009A8789876EC020E03FEF4FE757E46D81E3
:101120007E818F8198850E94B90A882309F00CF48A
:101130004AC020E030E040E251E469817A818B814D
:101140009C810E94BE0AEF966CAF7DAF8EAF9FAFC1
:10115000EF97EF968CAD9DADAEADBFADEF97E79637
:101160008CAF9DAFAEAFBFAFE797E7966CAD7DADEF
:101170008EAD9FADE7970E94150AC158DF4F688377
:1011800079838A839B83CF57D040C158DF4FA88192
:10119000B981CF57D040BA87A98710C080E991E0C4
:1011A0009C878B878B859C850197F1F79C878B8724
:1011B000000089859A8501979A87898789859A850C
:1011C000009761F721C06D817E818F8198850E9493
:1011D000150ACD57DF4F688379838A839B83C35871
:1011E000D040CD57DF4F88819981C358D0409A872E
:1011F000898789859A859E878D878D859E850197AC
:10120000F1F79E878D87000000004ECFCF93DF93CC
:101210000F92CDB7DEB789838091A702882F90E027
:101220008A5D9D4F2981FC0120838091A7028F5FF9
:101230008093A7028091A702882314F41092A7023A
:1012400000000F90DF91CF9108950F931F93CF93DC
:10125000DF9300D0CDB7DEB79B838A8319820EC09F
:101260008981882F90E02A813B81820F931FFC01A6
:1012700080810E94060989818F5F89838981082F77
:1012800010E08A819B810E942B0B0817190740F3FD
:1012900080EC90E0FC018081882F90E0807299279B
:1012A000009721F086EC90E0FC01108200000F9086
:1012B0000F900F90DF91CF911F910F9108951F9282
:1012C0000F920FB60F9211240BB60F922F938F939C
:1012D0009F93EF93FF93CF93DF93CDB7DEB79091BA
:1012E000A6028091A7029817D1F08091A602882FBC
:1012F00090E08A5D9D4FFC01208186EC90E0FC012E
:1013000020838091A6028F5F8093A6028091A6021F
:1013100088232CF48091A6028F5F8093A6020000A0
:10132000DF91CF91FF91EF919F918F912F910F902E
:101330000BBE0F900FBE0F901F9018950E94440A8D
:1013400008F481E008950E94B7090C947F0A0E9476
:10135000780A58F00E94710A40F029F45F3F29F0A2
:101360000C94680A51110C94B30A0C946E0A0E94F2
:10137000900A68F39923B1F3552391F3951B550B0C
:10138000BB27AA2762177307840738F09F5F5F4F58
:10139000220F331F441FAA1FA9F335D00E2E3AF097
:1013A000E0E832D091505040E695001CCAF72BD0AF
:1013B000FE2F29D0660F771F881FBB1F2617370700
:1013C0004807AB07B0E809F0BB0B802DBF01FF2732
:1013D00093585F4F3AF09E3F510578F00C94680A9D
:1013E0000C94B30A5F3FE4F3983ED4F38695779567
:1013F0006795B795F7959F5FC9F7880F911D9695EB
:10140000879597F90895E1E0660F771F881FBB1F46
:10141000621773078407BA0720F0621B730B840BF3
:10142000BA0BEE1F88F7E09508950E94980A88F09D
:101430009F5798F0B92F9927B751B0F0E1F0660F98
:10144000771F881F991F1AF0BA95C9F714C0B130D9
:1014500091F00E94B20AB1E008950C94B20A672F8D
:10146000782F8827B85F39F0B93FCCF38695779508
:101470006795B395D9F73EF49095809570956195F1
:101480007F4F8F4F9F4F0895990F0008550FAA0B5C
:10149000E0E8FEEF16161706E807F907C0F0121687
:1014A0001306E407F50798F0621B730B840B950B8A
:1014B00039F40A2661F0232B242B252B21F40895DF
:1014C0000A2609F4A140A6958FEF811D811D08957C
:1014D00097F99F6780E870E060E008959FEF80ECE7
:1014E000089500240A94161617061806090608958A
:1014F00000240A9412161306140605060895092EF0
:101500000394000C11F4882352F0BB0F40F4BF2B5E
:1015100011F460FF04C06F5F7F4F8F4F9F4F08959E
:1015200057FD9058440F551F59F05F3F71F0479594
:10153000880F97FB991F61F09F3F79F08795089579
:10154000121613061406551FF2CF4695F1DF08C098
:10155000161617061806991FF1CF869571056105B5
:1015600008940895E894BB2766277727CB0197F95D
:1015700008950E94440A08F48FEF08950E94D10A4A
:101580000C947F0A0E94710A38F00E94780A20F0B9
:10159000952311F00C94680A0C946E0A11240C9493
:1015A000B30A0E94900A70F3959FC1F3950F50E023
:1015B000551F629FF001729FBB27F00DB11D639F05
:1015C000AA27F00DB11DAA1F649F6627B00DA11DAB
:1015D000661F829F2227B00DA11D621F739FB00D51
:1015E000A11D621F839FA00D611D221F749F3327C1
:1015F000A00D611D231F849F600D211D822F762F5A
:101600006A2F11249F5750409AF0F1F088234AF036
:10161000EE0FFF1FBB1F661F771F881F91505040A2
:10162000A9F79E3F510580F00C94680A0C94B30A08
:101630005F3FE4F3983ED4F3869577956795B79529
:10164000F795E7959F5FC1F7FE2B880F911D969543
:10165000879597F90895FC0101900020E9F780959E
:0C16600090958E0F9F1F0895F894FFCF07
:10166C0000404265676F6E6E656E005374617274F4
:10167C0000687568756A6B6866656966686F69008D
:00000001FF
