:100000000C9488000C94A9000C94A9000C94A900ED
:100010000C94A9000C94A9000C94A9000C94A900BC
:100020000C94A9000C94A9000C94A9000C94A900AC
:100030000C94A9000C94A9000C94A9000C943B0DFD
:100040000C94A9000C9460030C94A9000C94A900D2
:100050000C9435030C94A9000C94A9000C94DB03B8
:100060000C94A9000C94AB000C94A9000C94A9006A
:100070000C94A9000C94A9000C94A9000C94A9005C
:100080000C94B3030C94A9000C94A9000C9488035D
:100090000C94A9000C94A9000C94A9000C94A9003C
:1000A0000C94A9000C94A9000C94A9000C94A9002C
:1000B0000C94A9000C94F9030C94A9000C94A900C9
:1000C0000C94A9000C94A9000C94A9000C94A9000C
:1000D0000C94A9000C94A9000C94A9000C94A900FC
:1000E0000C94A9000C94B7050C9480050C94BA06E6
:1000F0000C9426060C9449050C94BF070C948B06AF
:100100000C94E8050C945C060C9477070C946A0731
:1001100011241FBECFEFD1E2DEBFCDBF00E00CBF88
:1001200012E0A0E0B2E0EAE8F2E200E00BBF02C0B9
:1001300007900D92A032B107D9F722E0A0E2B2E019
:1001400001C01D92A033B207E1F70E9433040C9462
:1001500038110C9400001F920F920FB60F921124C9
:100160000BB60F928F939F93EF93FF93CF93DF93F1
:10017000CDB7DEB786EC90E0FC018081882F90E05F
:100180009093210280932002809122029091230279
:10019000009751F48091220290912302019690934E
:1001A00023028093220204C01092230210922202A2
:1001B0000000DF91CF91FF91EF919F918F910F9070
:1001C0000BBE0F900FBE0F901F901895CF93DF932B
:1001D000CDB7DEB785EC90E0FC01108284EC90E0B6
:1001E00027E6FC01208381EC90E028EDFC012083D0
:1001F00082EC90E026E0FC01208378940000DF91FF
:10020000CF910895CF93DF93CDB7DEB782E290E030
:10021000FC01208182E290E02F7BFC01208382E2BE
:1002200090E0FC01208182E290E02062FC012083CA
:1002300082E290E0FC01208182E290E02F7EFC01CE
:10024000208382E290E0FC01208182E290E028603D
:10025000FC0120830000DF91CF910895CF93DF93BD
:10026000CDB7DEB782E290E0FC01208182E290E02F
:100270002F7BFC01208382E290E0FC01208182E25E
:1002800090E02062FC01208382E290E0FC0120816A
:1002900082E290E02061FC01208382E290E0FC0198
:1002A000208182E290E0277FFC0120830000DF9123
:1002B000CF910895CF93DF93CDB7DEB782E290E080
:1002C000FC01208182E290E02064FC01208382E234
:1002D00090E0FC01208182E290E02F7DFC012083F0
:1002E00082E290E0FC01208182E290E02F7EFC011E
:1002F000208382E290E0FC01208182E290E028608D
:10030000FC0120830000DF91CF910895CF93DF930C
:10031000CDB7DEB782E290E0FC01208182E290E07E
:100320002F7DFC01208382E290E0FC01208182E2AB
:1003300090E02064FC01208382E290E0FC012081B7
:1003400082E290E0277FFC01208382E290E0FC01C2
:10035000208182E290E02061FC0120830000DF9197
:10036000CF910895CF93DF93CDB7DEB782E290E0CF
:10037000FC01208182E290E02062FC01208382E285
:1003800090E0FC01208182E290E02F7BFC01208341
:1003900082E290E0FC01208182E290E02860FC0192
:1003A000208382E290E0FC01208182E290E02F7EB7
:1003B000FC0120830000DF91CF910895CF93DF935C
:1003C000CDB7DEB7A2970FB6F894DEBF0FBECDBF94
:1003D00082E091E0DC012C9182E091E02061FC015F
:1003E000208382E091E0DC012C9182E091E02F7D7E
:1003F000FC01208382E091E0DC012C9182E091E01D
:100400002860FC01208380E090E0AAE7B4E48983BF
:100410009A83AB83BC8320E030E04AE755E46981EE
:100420007A818B819C810E94CB106B8B7C8B8D8B16
:100430009E8B8B899C89AD89BE898D839E83AF837A
:10044000B88720E030E040E85FE36D817E818F81F6
:1004500098850E94670F88232CF481E090E09A87AA
:10046000898755C020E03FEF4FE757E46D817E81DB
:100470008F8198850E94C6108823D9F1D4F120E09D
:1004800030E040E251E469817A818B819C810E9455
:10049000CB106F8B788F898F9A8F8F89988DA98DCC
:1004A000BA8D8F87988BA98BBA8B6F85788989894C
:1004B0009A890E94E50F6B8F7C8F8D8F9E8FAB8DFD
:1004C000BC8DBA87A98710C080E991E09C878B8793
:1004D0008B859C850197F1F79C878B870000898528
:1004E0009A8501979A87898789859A85009761F708
:1004F00019C06D817E818F8198850E94E50F6F8F75
:1005000078A389A39AA3EF8DF8A1FA87E987898553
:100510009A859E878D878D859E850197F1F79E87A9
:100520008D87000082E091E0DC012C9182E091E077
:100530002062FC01208382E091E0DC012C9182E0CA
:1005400091E02F7EFC01208382E091E0DC012C9180
:1005500082E091E0277FFC0120830000A2960FB685
:10056000F894DEBF0FBECDBFDF91CF9108950F93FA
:100570001F93CF93DF9300D00F920F92CDB7DEB7CA
:100580008983898188233CF18981843609F01CF5AF
:100590008981082E000C990BAA0BBB0BAC013327E9
:1005A00022272A833B834C835D8304E610E020E00E
:1005B00030E06A817B818C819D81A90198010E9434
:1005C0000F0FDA01C901AC01BD0188E890E09A0182
:1005D000FC013183208300000F900F900F900F904B
:1005E0000F90DF91CF911F910F9108950F931F935B
:1005F000CF93DF9300D00F920F92CDB7DEB78983F0
:10060000898188233CF18981843609F01CF5898130
:10061000082E000C990BAA0BBB0BAC013327222729
:100620002A833B834C835D8304E610E020E030E0C6
:100630006A817B818C819D81A90198010E940F0FA5
:10064000DA01C901AC01BD0188E990E09A01FC0121
:100650003183208300000F900F900F900F900F9028
:10066000DF91CF911F910F9108951F920F920FB6B6
:100670000F9211240BB60F922F933F938F939F935A
:10068000EF93FF93CF93DF93CDB7DEB782E290E095
:10069000FC01308182E290E020E82327FC012083E6
:1006A0000000DF91CF91FF91EF919F918F913F914A
:1006B0002F910F900BBE0F900FBE0F901F901895AB
:1006C0001F920F920FB60F9211240BB60F922F9319
:1006D0008F939F93EF93FF93CF93DF93CDB7DEB7C5
:1006E00082E290E0FC01208182E290E02068FC013F
:1006F00020830000DF91CF91FF91EF919F918F9127
:100700002F910F900BBE0F900FBE0F901F9018955A
:100710001F920F920FB60F9211240BB60F922F93C8
:100720003F938F939F93EF93FF93CF93DF93CDB737
:10073000DEB782E290E0FC01308182E290E024E0CA
:100740002327FC0120830000DF91CF91FF91EF91DF
:100750009F918F913F912F910F900BBE0F900FBEE5
:100760000F901F9018951F920F920FB60F921124A1
:100770000BB60F922F938F939F93EF93FF93CF938B
:10078000DF93CDB7DEB782E290E0FC01208182E208
:1007900090E02460FC0120830000DF91CF91FF9165
:1007A000EF919F918F912F910F900BBE0F900FBEE5
:1007B0000F901F9018951F920F920FB60F92112451
:1007C0008F939F93CF93DF93CDB7DEB780912602AF
:1007D00090912702019690932702809326020000B1
:1007E000DF91CF919F918F910F900FBE0F901F902F
:1007F00018951F920F920FB60F9211240BB60F92FD
:100800008F939F93EF93FF93CF93DF93CDB7DEB793
:1008100080912802909129028130910569F064F05D
:10082000109229021092280210922B0210922A0292
:1008300081EA90E0FC0110828091280290912902C7
:10084000019690932902809328020000DF91CF91B6
:10085000FF91EF919F918F910F900BBE0F900FBE64
:100860000F901F901895CF93DF93CDB7DEB7CA5482
:10087000D1090FB6F894DEBF0FBECDBF0E94970816
:100880000E94590D0E948C091A8219821C821B82B7
:1008900080912002909121028230910511F41A82F8
:1008A000198280912002909121028630910521F4D5
:1008B00081E090E09A8389838091200290912102C7
:1008C0008730910521F483E690E09A8389838981BA
:1008D0009A8182309105A9F1A4F189819A818336A8
:1008E000910579F186E290E0DC018C91882F90E00F
:1008F00080729927009751F086E290E0FC01808198
:10090000882F90E0807199270097D9F480912A026E
:1009100090912B028130910581F081E090E09093DD
:100920002B0280932A0281EA90E024E0DC012C93E0
:1009300088E090E09A83898304C084E090E09A8301
:10094000898389819A8182309105C9F0C4F086E259
:1009500090E0FC018081882F90E0887099270097B3
:1009600071F086E290E0DC018C91882F90E0847039
:100970009927009721F08AE090E09A838983898102
:100980009A818A30910509F0CCF489819A81992362
:100990000CF47ECF89819A81092E000CAA0BBB0B27
:1009A0008A309105A105B10511F008F071CFFC0165
:1009B0008827E65CFE4E8F4F0C942E0F89819A811A
:1009C0008336910509F064CF83E60E94B70283E67F
:1009D0000E94F60280912602909127028E319105A5
:1009E00009F0DCF482E091E0FC01208182E091E0FA
:1009F000277FDC012C9382E091E0FC01208182E0E2
:100A000091E02F7EDC012C9382E091E0FC012081BB
:100A100082E091E02F7DDC012C9380912602909161
:100A200027028D31910541F13CF182E091E0FC011A
:100A3000208182E091E02860DC012C9382E091E04B
:100A4000FC01208182E091E02061DC012C9382E0B6
:100A500091E0FC01208182E091E02062DC012C9396
:100A600080912602909127028B33910529F024F082
:100A7000109227021092260280912002909121026A
:100A80008830910509F03FC382E090E09A83898322
:100A90003AC382E091E0FC01208182E091E0277F6F
:100AA000DC012C9382E091E0FC01208182E091E066
:100AB0002062DC012C9382E091E0FC01208182E045
:100AC00091E02F7EDC012C9382E091E0FC012081FB
:100AD00082E091E0277FDC012C9383E60E94F602FE
:100AE00083E60E94B702809120029091210281301A
:100AF000910509F00AC381E090E09A83898305C3D8
:100B000082E091E0FC01208182E091E0277FDC011E
:100B10002C9382E091E0FC01208182E091E0206250
:100B2000DC012C9382E091E0FC01208182E091E0E5
:100B30002061DC012C9382E091E0FC01208182E0C5
:100B400091E0277FDC012C9383E60E94F60283E686
:100B50000E94B7028091200290912102833091057A
:100B600009F0D5C282E090E09A838983D0C282E006
:100B700091E0FC01208182E091E0277FDC012C9351
:100B800082E091E0FC01208182E091E02F7DDC0198
:100B90002C9382E091E0FC01208182E091E02061D1
:100BA000DC012C9382E091E0FC01208182E091E065
:100BB000277FDC012C9380912002909121028430C8
:100BC000910509F0A6C283E090E09A838983A1C2CF
:100BD00082E091E0FC01208182E091E02F7DDC0148
:100BE0002C9382E091E0FC01208182E091E02F7E55
:100BF000DC012C9382E091E0FC01208182E091E015
:100C0000277FDC012C938CE30E94B7028CE30E94C7
:100C1000F6020E942E0186E290E0FC018081882F7E
:100C200090E084709927009709F075C286E290E001
:100C3000DC018C91882F90E088709927009709F04B
:100C40006AC284E090E09A83898365C20E942E0183
:100C50008CE30E94B7028CE30E94F60286E290E0E9
:100C6000FC018081882F90E084709927009729F0FB
:100C700085E090E09A83898350C286E290E0DC01AF
:100C80008C91882F90E088709927009729F086E052
:100C900090E09A83898341C286E290E0FC018081E2
:100CA000882F90E084709927009709F436C286E275
:100CB00090E0DC018C9131C287E30E94B70281E4AD
:100CC0000E94F60286E290E0FC018081882F90E08D
:100CD00084709927009779F486E290E0DC018C918A
:100CE000882F90E088709927009729F484E090E09D
:100CF0009A83898314C286E290E0FC018081882F68
:100D000090E084709927009709F409C286E290E088
:100D1000DC018C9104C281E40E94B70287E30E9447
:100D2000F60286E290E0FC018081882F90E08470DA
:100D30009927009779F486E290E0DC018C91882F66
:100D400090E088709927009729F484E090E09A83D6
:100D50008983E7C186E290E0FC018081882F90E0E2
:100D600084709927009709F4DCC186E290E0DC01E9
:100D70008C91D7C180E090E0AAEFB4E48F8398878C
:100D8000A987BA8720E030E04AE755E46F8178858B
:100D900089859A850E94CB106BA77CA78DA79EA7FB
:100DA0008BA59CA5ADA5BEA58B879C87AD87BE876F
:100DB00020E030E040E85FE36B857C858D859E8593
:100DC0000E94670F88232CF481E090E0988B8F8736
:100DD00055C020E03FEF4FE757E46B857C858D855C
:100DE0009E850E94C6108823D9F1D4F120E030E01E
:100DF00040E251E46F81788589859A850E94CB1005
:100E00006FA778AB89AB9AAB8FA598A9A9A9BAA906
:100E10008BA39CA3ADA3BEA36BA17CA18DA19EA11E
:100E20000E94E50F6BAB7CAB8DAB9EABABA9BCA9B5
:100E3000B88BAF8710C080E991E09A8B898B898944
:100E40009A890197F1F79A8B898B00008F85988991
:100E50000197988B8F878F859889009761F719C0C4
:100E60006B857C858D859E850E94E50F6FAB78AF85
:100E700089AF9AAFEFA9F8ADF88BEF878F85988986
:100E80009C8B8B8B8B899C890197F1F79C8B8B8B2F
:100E9000000087E30E94B70281E40E94F60286E226
:100EA00090E0DC018C91882F90E088709927009762
:100EB00009F039C186E290E0FC018081882F90E042
:100EC00084709927009709F02EC184E090E09A83FE
:100ED000898329C183E60E94B70283E60E94F60255
:100EE0000E94DE0184E090E09A8389831FC183E63B
:100EF0000E94B70283E60E94F60282E091E0DC01E4
:100F00002C9182E091E02061FC01208382E091E05D
:100F1000DC012C9182E091E02062FC01208382E0E0
:100F200091E0DC012C9182E091E02860FC012083BB
:100F30008D819E818C33910509F00CF4F6C082E01E
:100F400091E0DC012C9182E091E02F7DFC01208377
:100F500082E091E0DC012C9182E091E02F7EFC01A7
:100F6000208382E091E0DC012C9182E091E0277FF8
:100F7000FC01208384E090E09A838983D6C00E949C
:100F80002E0182E30E94B70280E50E94F60280E013
:100F900090E0AAE7B4E48D8B9E8BAF8BB88F20E0F6
:100FA00030E04AE755E46D897E898F89988D0E94EB
:100FB000CB106BAF7CAF8DAF9EAF8BAD9CADADADAD
:100FC000BEAD898F9A8FAB8FBC8F20E030E040E8B8
:100FD0005FE3698D7A8D8B8D9C8D0E94670F8823CE
:100FE0002CF481E090E09E8F8D8F62C020E03FEF77
:100FF0004FE757E4698D7A8D8B8D9C8D0E94C610CA
:10100000882309F00CF442C020E030E040E251E4D3
:101010006D897E898F89988D0E94CB1023966CAF45
:101020007DAF8EAF9FAF239723968CAD9DADAEADB8
:10103000BFAD23978FA398A7A9A7BAA76FA178A53B
:1010400089A59AA50E94E50F27966CAF7DAF8EAF5C
:101050009FAF27972596AEADBFAD2597BE8FAD8FBD
:1010600010C080E991E098A38F8F8F8D98A1019790
:10107000F1F798A38F8F00008D8D9E8D01979E8F25
:101080008D8F8D8D9E8D009761F71DC0698D7A8D36
:101090008B8D9C8D0E94E50F2B966CAF7DAF8EAF34
:1010A0009FAF2B972996EEADFFAD2997FE8FED8F61
:1010B0008D8D9E8D9AA389A389A19AA10197F1F79D
:1010C0009AA389A30000000089819A81823091054A
:1010D000A9F0A4F086E290E0DC018C91882F90E0EA
:1010E00088709927009751F086E290E0FC0180819A
:1010F000882F90E084709927009731F783E090E083
:101100009A83898313C00000C3CB0000C1CB0000C9
:10111000BFCB0000BDCB0000BBCB0000B9CB0000B3
:10112000B7CB0000B5CB0000B3CB0000B1CBCF9361
:10113000DF93CDB7DEB70E94E600789481E890E0B7
:1011400021E0FC0120838FE690E023E0FC01208376
:1011500088E890E0FC011182108281E990E021E0B2
:10116000FC01208381E790E023E0FC01208388E9F3
:1011700090E0FC011182108285E490E025E0FC0102
:1011800020838EE690E0FC0120818EE690E02160D5
:10119000FC01208382E790E0FC01208182E790E05F
:1011A0002160FC01208381E290E0FC01208181E24A
:1011B00090E02068FC01208381E290E0FC01208126
:1011C00081E290E02064FC01208381E290E0FC0158
:1011D000208181E290E02062FC01208381E290E0A6
:1011E000FC01208181E290E02061FC01208381E20A
:1011F00090E0FC01208181E290E02860FC012083E6
:1012000081E290E0FC01208181E290E02460FC0119
:10121000208382E290E0FC01208182E290E02F773F
:10122000FC01208382E290E0FC01208182E290E0D8
:101230002F7BFC01208382E290E0FC01208182E28E
:1012400090E02F7DFC01208382E290E0FC01208170
:1012500082E290E02F7EFC01208382E290E0FC019C
:10126000208182E290E0277FFC01208382E290E0EF
:10127000FC01208182E290E02B7FFC01208381E051
:1012800091E0FC01208181E091E02063FC0120835A
:1012900082E091E0FC01208182E091E02F7CFC0162
:1012A000208384E290E0FC01208184E290E02068C9
:1012B000FC01208385E290E0FC018081282F2F67CC
:1012C00085E290E0FC01208381E091E0FC01208137
:1012D00081E091E02860FC01208382E091E0FC0144
:1012E000208182E091E0277FFC01208380E390E071
:1012F000FC01208180E390E02D7FFC01208381E3CD
:1013000090E0FC01208181E390E02260FC012083D9
:101310000000DF91CF910895CF93DF93CDB7DEB773
:1013200080EB90E0FC01108281EB90E0FC012081D9
:1013300081EB90E02160FC01208380E790E021E0D8
:10134000FC01208380E390E0FC01208180E390E0B9
:101350002F77FC0120838AE091E0FC0120818AE064
:1013600091E02064FC0120838BE091E0FC0120816E
:101370008BE091E02F7BFC0120830000DF91CF9177
:101380000895CF93DF93CDB7DEB76E970FB6F8947D
:10139000DEBF0FBECDBF0E94470A00008FE290E083
:1013A000DC018C918823D4F782EB90E0FC01108261
:1013B00087E390E021E0DC012C9310922F02109241
:1013C0002E0200008FE290E0FC0180818823D4F39C
:1013D00080912E0290912F029A83898389819A812C
:1013E0009C01990F440B550B2F87388B498B5A8BD7
:1013F0006F85788989899A890E9416106B837C830E
:101400008D839E832FE632E143E05CE36B817C8138
:101410008D819E810E94CB106B8B7C8B8D8B9E8BE4
:101420008B899C89AD89BE898F839887A987BA8764
:1014300020E030E84BEA53E46F81788589859A850E
:101440000E94CB106F8B788F898F9A8F2F89388D60
:10145000498D5A8D2B873C874D875E876B857C85B0
:101460008D859E850E94DE0F6B8F7C8F8D8F9E8F6A
:101470004B8D5C8D5A83498389819A816E960FB614
:10148000F894DEBF0FBECDBFDF91CF910895CF930B
:10149000DF93CDB7DEB7C059D1090FB6F894DEBFE0
:1014A0000FBECDBF8BE091E0DC012C918BE091E091
:1014B0002F7BFC01208380E090E0A0E0B0E489A3D2
:1014C0009AA3ABA3BCA32BEA3AEA4AEA50E469A187
:1014D0007AA18BA19CA10E94CB102D966CAF7DAF01
:1014E0008EAF9FAF2D972D968CAD9DADAEADBFADA0
:1014F0002D978DA39EA3AFA3B8A720E030E040E8CE
:1015000050E469A17AA18BA19CA10E94CB106196A5
:101510006CAF7DAF8EAF9FAF619761968CAD9DAD87
:10152000AEADBFAD619789A79AA7ABA7BCA720E0D6
:1015300030E040E85FE36DA17EA18FA198A50E94F5
:10154000670F88231CF481E08DA7FFC020E03FEFE8
:101550004FE757E469A57AA58BA59CA50E94C61004
:10156000882309F00CF4B6C020E030E04AE754E4E8
:1015700069A17AA18BA19CA10E946C0F65966CAFAA
:101580007DAF8EAF9FAF659765968CAD9DADAEADCF
:10159000BFAD65978EA79FA7A8ABB9AB20E030E0A1
:1015A0004AE755E46EA57FA588A999A90E94CB10AA
:1015B00069966CAF7DAF8EAF9FAF699769968CAD22
:1015C0009DADAEADBFAD69978AAB9BABACABBDABD0
:1015D00020E030E040E85FE36AA97BA98CA99DA9DF
:1015E0000E94670F88232CF481E090E09FAB8EABC4
:1015F00066C020E03FEF4FE757E46AA97BA98CA9BA
:101600009DA90E94C610882309F00CF446C020E072
:1016100030E040E251E46EA57FA588A999A90E9417
:10162000CB106D966CAF7DAF8EAF9FAF6D976D9603
:101630008CAD9DADAEADBFAD6D9729968CAF9DAF16
:10164000AEAFBFAF299729966CAD7DAD8EAD9FAD86
:1016500029970E94E50FA1966CAF7DAF8EAF9FAF2B
:10166000A1976F96AEADBFAD6F97BFABAEAB10C0DD
:1016700080E991E099AF88AF88AD99AD0197F1F716
:1016800099AF88AF00008EA99FA901979FAB8EAB41
:101690008EA99FA9009761F758C06AA97BA98CA958
:1016A0009DA90E94E50FA5966CAF7DAF8EAF9FAF51
:1016B000A597A396EEADFFADA397FFABEEAB8EA9BA
:1016C0009FA99BAF8AAF8AAD9BAD0197F1F79BAF06
:1016D0008AAF3BC020E030E04FE753E46DA17EA12C
:1016E0008FA198A50E94C6108823F9F0F4F069A58F
:1016F0007AA58BA59CA50E94E50FA9966CAF7DAF3E
:101700008EAF9FAFA997A7968EAD9FADA7979DAFC0
:101710008CAF8CAD9DAD9FAF8EAF8EAD9FAD019761
:10172000F1F79FAF8EAF000024C06DA17EA18FA105
:1017300098A50E94E50FAD966CAF7DAF8EAF9FAFC1
:10174000AD97AA969FADAA979DA72DA5CE01805CC7
:101750009F4FDC012C93CE01805C9F4FFC01808168
:10176000282F2A95F1F7CE01805C9F4FDC012C9346
:1017700000008BE091E0FC0120818BE091E020648F
:10178000DC012C9380E090E0A0E2B1E489839A83AD
:10179000AB83BC832BEA3AEA4AEA50E469817A8156
:1017A0008B819C810E94CB10E1966CAF7DAF8EAF98
:1017B0009FAFE197E1968CAD9DADAEADBFADE1972A
:1017C0008D839E83AF83B88720E030E040E850E40B
:1017D00069817A818B819C810E94CB10E5966CAFE8
:1017E0007DAF8EAF9FAFE597E5968CAD9DADAEAD6D
:1017F000BFADE59789879A87AB87BC8720E030E04B
:1018000040E85FE36D817E818F8198850E94670F3C
:1018100088231CF481E08D8713C120E03FEF4FE760
:1018200057E469857A858B859C850E94C61088233C
:1018300009F00CF4C2C020E030E04AE754E46981CA
:101840007A818B819C810E946C0FE9966CAF7DAF91
:101850008EAF9FAFE997E9968CAD9DADAEADBFADB4
:10186000E9978E879F87A88BB98B20E030E04AE705
:1018700055E46E857F85888999890E94CB10ED9605
:101880006CAF7DAF8EAF9FAFED97ED968CAD9DADFC
:10189000AEADBFADED978A8B9B8BAC8BBD8B20E043
:1018A00030E040E85FE36A897B898C899D890E94EA
:1018B000670F88232CF481E090E09F8B8E8B72C0A1
:1018C00020E03FEF4FE757E46A897B898C899D8947
:1018D0000E94C610882309F00CF44EC020E030E0CE
:1018E00040E251E46E857F85888999890E94CB10FA
:1018F000C358DF4F688379838A839B83CD57D04059
:10190000C358DF4F88819981AA81BB81CD57D040D0
:1019100025968CAF9DAFAEAFBFAF259725966CAD2A
:101920007DAD8EAD9FAD25970E94E50FCF57DF4F60
:10193000688379838A839B83C158D040CF57DF4F18
:10194000A881B981C158D040BF8BAE8B10C080E94F
:1019500091E0998F888F888D998D0197F1F7998FF4
:10196000888F00008E899F8901979F8B8E8B8E892F
:101970009F89009761F764C06A897B898C899D89FA
:101980000E94E50FCB57DF4F688379838A839B835F
:10199000C558D040CB57DF4FE881F981C558D040BA
:1019A000FF8BEE8B8E899F899B8F8A8F8A8D9B8D73
:1019B0000197F1F79B8F8A8F43C020E030E04FE71B
:1019C00053E46D817E818F8198850E94C6108823A3
:1019D00019F114F169857A858B859C850E94E50F44
:1019E000C757DF4F688379838A839B83C958D04068
:1019F000C757DF4F88819981C958D0409D8F8C8F00
:101A00008C8D9D8D9F8F8E8F8E8D9F8D0197F1F781
:101A10009F8F8E8F00001BC06D817E818F81988586
:101A20000E94E50FC357DF4F688379838A839B83C6
:101A3000CD58D040C357DF4F9881CD58D0409D87B7
:101A40008D8588A388A18A95F1F788A300008BE093
:101A500091E0DC012C918BE091E02F7BFC01208355
:101A60000000C057DF4F0FB6F894DEBF0FBECDBFEA
:101A7000DF91CF9108951F920F920FB60F9211240C
:101A80008F939F93CF93DF93CDB7DEB780912E02D4
:101A900090912F02019690932F0280932E020000C6
:101AA000DF91CF919F918F910F900FBE0F901F905C
:101AB0001895CF93DF93CDB7DEB781E091E0FC01BD
:101AC000208181E091E02062FC01208381E091E0AF
:101AD000FC01208181E091E02061FC01208383E30F
:101AE00090E0FC01208183E390E02062FC012083F0
:101AF00082E091E0FC01208182E091E02F7EFC01F8
:101B0000208384E390E0FC01208184E390E02F7D3A
:101B1000FC0120830000DF91CF910895CF93DF93E4
:101B200000D00F920F92CDB7DEB78D831A82198243
:101B300039C08D81082E000C990B817099279C83E8
:101B40008B838D8185958D838B819C81009751F04E
:101B500082E091E0FC01208182E091E02062FC01C2
:101B6000208309C082E091E0FC01208182E091E0C5
:101B70002F7DFC01208382E091E0FC01208182E046
:101B800091E02061FC01208382E091E0FC01208152
:101B900082E091E02F7EFC01208389819A81019669
:101BA0009A83898389819A818730910511F208F29D
:101BB000000000000F900F900F900F900F90DF919A
:101BC000CF910895CF93DF930F920F92CDB7DEB7E9
:101BD0009A83898380E190E0098002C0880F991F71
:101BE0000A94E2F70E948E0D00000F900F90DF9193
:101BF000CF910895CF93DF9300D0CDB7DEB789831F
:101C00007B836A8389810E948E0D8A819B810E94D9
:101C1000E20D84E390E0FC01208184E390E0206207
:101C2000FC01208384E390E0FC01208184E390E0C8
:101C30002F7DFC01208300000F900F900F90DF910B
:101C4000CF910895CF93DF93CDB7DEB7A6970FB6A8
:101C5000F894DEBF0FBECDBF9A8B898B1A82198292
:101C6000CCC049895A899A01ADECBCEC0E94360F70
:101C70009C01369527953695279536952795C90168
:101C8000880F991F880F991F820F931F880F991F24
:101C90009A01281B390BC901880F991F80509E4F4C
:101CA000DC018D919C91282F89819A81BC01822F22
:101CB0000E94FA0D89899A899C01ADECBCEC0E94C6
:101CC000360F9695879596958795969587959A8BD5
:101CD000898B80E090E0A0E8BFE38B839C83AD8399
:101CE000BE8320E030E04AE755E46B817C818D8142
:101CF0009E810E94CB106F8B788F898F9A8F8F89EE
:101D0000988DA98DBA8D8F839887A987BA8720E08F
:101D100030E040E85FE36F81788589859A850E948D
:101D2000670F88232CF481E090E09C878B8755C057
:101D300020E03FEF4FE757E46F81788589859A85EA
:101D40000E94C6108823D9F1D4F120E030E040E2AF
:101D500051E46B817C818D819E810E94CB106B8FC1
:101D60007C8F8D8F9E8F8B8D9C8DAD8DBE8D8B8B43
:101D70009C8BAD8BBE8B6B897C898D899E890E94E3
:101D8000E50F6F8F78A389A39AA3AF8DB8A1BC8705
:101D9000AB8710C080E991E09E878D878D859E85F9
:101DA0000197F1F79E878D8700008B859C850197B1
:101DB0009C878B878B859C85009761F719C06F8105
:101DC000788589859A850E94E50F6BA37CA38DA3F6
:101DD0009EA3EBA1FCA1FC87EB878B859C85988B50
:101DE0008F878F8598890197F1F7988B8F870000EF
:101DF00089819A8101969A83898389819A81833026
:101E0000910509F00CF42DCF00000000A6960FB646
:101E1000F894DEBF0FBECDBFDF91CF910895052EA0
:101E200097FB1EF400940E94260F57FD07D00E94D6
:101E3000450F07FC03D04EF40C94260F50954095A7
:101E4000309521953F4F4F4F5F4F08959095809566
:101E5000709561957F4F8F4F9F4F0895EE0FFF1F35
:101E6000881F8BBF0790F691E02D1994A29FB001B7
:101E7000B39FC001A39F700D811D1124911DB29FBE
:101E8000700D811D1124911D0895A1E21A2EAA1B27
:101E9000BB1BFD010DC0AA1FBB1FEE1FFF1FA2171A
:101EA000B307E407F50720F0A21BB30BE40BF50B17
:101EB000661F771F881F991F1A9469F760957095A0
:101EC000809590959B01AC01BD01CF0108950E94C2
:101ED000511008F481E008950E94800F0C948C103A
:101EE0000E94851058F00E947E1040F029F45F3F58
:101EF00029F00C94751051110C94C0100C947B10A7
:101F00000E949D1068F39923B1F3552391F3951B1B
:101F1000550BBB27AA2762177307840738F09F5F0A
:101F20005F4F220F331F441FAA1FA9F335D00E2E77
:101F30003AF0E0E832D091505040E695001CCAF7E4
:101F40002BD0FE2F29D0660F771F881FBB1F2617A7
:101F500037074807AB07B0E809F0BB0B802DBF017E
:101F6000FF2793585F4F3AF09E3F510578F00C944D
:101F700075100C94C0105F3FE4F3983ED4F386953F
:101F800077956795B795F7959F5FC9F7880F911D6E
:101F90009695879597F90895E1E0660F771F881F5A
:101FA000BB1F621773078407BA0720F0621B730B0D
:101FB000840BBA0BEE1F88F7E09508950E94E50F99
:101FC0006894B1110C94C01008950E94A51088F077
:101FD0009F5798F0B92F9927B751B0F0E1F0660FED
:101FE000771F881F991F1AF0BA95C9F714C0B1302E
:101FF00091F00E94BF10B1E008950C94BF10672FBC
:10200000782F8827B85F39F0B93FCCF3869577955C
:102010006795B395D9F73EF4909580957095619545
:102020007F4F8F4F9F4F0895E89409C097FB3EF470
:1020300090958095709561957F4F8F4F9F4F992315
:10204000A9F0F92F96E9BB279395F6958795779593
:102050006795B795F111F8CFFAF4BB0F11F460FF53
:102060001BC06F5F7F4F8F4F9F4F16C0882311F0AB
:1020700096E911C0772321F09EE8872F762F05C0BF
:10208000662371F096E8862F70E060E02AF09A955A
:10209000660F771F881FDAF7880F9695879597F94F
:1020A0000895990F0008550FAA0BE0E8FEEF1616E9
:1020B0001706E807F907C0F012161306E407F5073C
:1020C00098F0621B730B840B950B39F40A2661F0B0
:1020D000232B242B252B21F408950A2609F4A14053
:1020E000A6958FEF811D811D089597F99F6780E860
:1020F00070E060E008959FEF80EC089500240A945A
:102100001616170618060906089500240A941216D2
:102110001306140605060895092E0394000C11F405
:10212000882352F0BB0F40F4BF2B11F460FF04C0B2
:102130006F5F7F4F8F4F9F4F089557FD9058440F0B
:10214000551F59F05F3F71F04795880F97FB991F16
:1021500061F09F3F79F087950895121613061406D3
:10216000551FF2CF4695F1DF08C016161706180660
:10217000991FF1CF86957105610508940895E8943B
:10218000BB2766277727CB0197F908950E94511046
:1021900008F48FEF08950E94DE100C948C100E94BA
:1021A0007E1038F00E94851020F0952311F00C94D9
:1021B00075100C947B1011240C94C0100E949D107B
:1021C00070F3959FC1F3950F50E0551F629FF0018A
:1021D000729FBB27F00DB11D639FAA27F00DB11DA3
:1021E000AA1F649F6627B00DA11D661F829F22272C
:1021F000B00DA11D621F739FB00DA11D621F839FB3
:10220000A00D611D221F749F3327A00D611D231F88
:10221000849F600D211D822F762F6A2F11249F57D6
:1022200050409AF0F1F088234AF0EE0FFF1FBB1FD9
:10223000661F771F881F91505040A9F79E3F510598
:1022400080F00C9475100C94C0105F3FE4F3983E3E
:10225000D4F3869577956795B795F795E7959F5F42
:10226000C1F7FE2B880F911D9695879597F90895D4
:10227000F894FFCF49058005B705E80526065C06FA
:0A2280008B06BA066A077707BF074E
:10228A0003FF9FFF25FF0DFF99FF49FF41FF1FFF36
:10229A0001FF09FF11FFC1FF63FF85FF61FF71FFA6
:00000001FF
