:100000000C9490000C94B1000C94B1000C94B100CD
:100010000C94B1000C94B1000C94B1000C94B1009C
:100020000C94B1000C94B1000C94B1000C94B1008C
:100030000C94B1000C94B1000C94B1000C94F21427
:100040000C94B1000C9468030C94B1000C94B100B2
:100050000C943D030C94B1000C94B1000C94E30398
:100060000C94B1000C94B3000C94B1000C94B1004A
:100070000C94B1000C94B1000C94B1000C94B1003C
:100080000C94BB030C94B1000C94B1000C9490033D
:100090000C94B1000C94B1000C94B1000C94B1001C
:1000A0000C94B1000C94B1000C94B1000C94B1000C
:1000B0000C94B1000C9401040C94B1000C94B100A8
:1000C0000C94B1000C94B1000C94B1000C94B100EC
:1000D0000C94B1000C94B1000C94B1000C94B100DC
:1000E0000C94B1000C945C070C9439060C949706A0
:1000F0000C9426050C945D050C94F9070C9454049B
:100100000C94C1040C9403060C94C5050C94680669
:100110000C9469070C9494050C94440B0C94B1074F
:1001200011241FBECFEFD1E2DEBFCDBF00E00CBF78
:1001300012E0A0E0B2E0EAEAF2E300E00BBF02C0A6
:1001400007900D92A032B107D9F722E0A0E2B2E009
:1001500001C01D92A033B207E1F70E943B040C944A
:10016000EF180C9400001F920F920FB60F921124FB
:100170000BB60F928F939F93EF93FF93CF93DF93E1
:10018000CDB7DEB786EC90E0FC018081882F90E04F
:100190009093210280932002809122029091230269
:1001A000009751F48091220290912302019690933E
:1001B00023028093220204C0109223021092220292
:1001C0000000DF91CF91FF91EF919F918F910F9060
:1001D0000BBE0F900FBE0F901F901895CF93DF931B
:1001E000CDB7DEB785EC90E0FC01108284EC90E0A6
:1001F00027E6FC01208381EC90E028EDFC012083C0
:1002000082EC90E026E0FC01208378940000DF91EE
:10021000CF910895CF93DF93CDB7DEB782E290E020
:10022000FC01208182E290E02F7BFC01208382E2AE
:1002300090E0FC01208182E290E02062FC012083BA
:1002400082E290E0FC01208182E290E02F7EFC01BE
:10025000208382E290E0FC01208182E290E028602D
:10026000FC0120830000DF91CF910895CF93DF93AD
:10027000CDB7DEB782E290E0FC01208182E290E01F
:100280002F7BFC01208382E290E0FC01208182E24E
:1002900090E02062FC01208382E290E0FC0120815A
:1002A00082E290E02061FC01208382E290E0FC0188
:1002B000208182E290E0277FFC0120830000DF9113
:1002C000CF910895CF93DF93CDB7DEB782E290E070
:1002D000FC01208182E290E02064FC01208382E224
:1002E00090E0FC01208182E290E02F7DFC012083E0
:1002F00082E290E0FC01208182E290E02F7EFC010E
:10030000208382E290E0FC01208182E290E028607C
:10031000FC0120830000DF91CF910895CF93DF93FC
:10032000CDB7DEB782E290E0FC01208182E290E06E
:100330002F7DFC01208382E290E0FC01208182E29B
:1003400090E02064FC01208382E290E0FC012081A7
:1003500082E290E0277FFC01208382E290E0FC01B2
:10036000208182E290E02061FC0120830000DF9187
:10037000CF910895CF93DF93CDB7DEB782E290E0BF
:10038000FC01208182E290E02062FC01208382E275
:1003900090E0FC01208182E290E02F7BFC01208331
:1003A00082E290E0FC01208182E290E02860FC0182
:1003B000208382E290E0FC01208182E290E02F7EA7
:1003C000FC0120830000DF91CF910895CF93DF934C
:1003D000CDB7DEB7A2970FB6F894DEBF0FBECDBF84
:1003E00082E091E0DC012C9182E091E02061FC014F
:1003F000208382E091E0DC012C9182E091E02F7D6E
:10040000FC01208382E091E0DC012C9182E091E00C
:100410002860FC01208380E090E0AAE7B4E48983AF
:100420009A83AB83BC8320E030E04AE755E46981DE
:100430007A818B819C810E9482186B8B7C8B8D8B47
:100440009E8B8B899C89AD89BE898D839E83AF836A
:10045000B88720E030E040E85FE36D817E818F81E6
:1004600098850E941E1788232CF481E090E09A87DB
:10047000898755C020E03FEF4FE757E46D817E81CB
:100480008F8198850E947D188823D9F1D4F120E0CE
:1004900030E040E251E469817A818B819C810E9445
:1004A00082186F8B788F898F9A8F8F89988DA98DFD
:1004B000BA8D8F87988BA98BBA8B6F85788989893C
:1004C0009A890E949C176B8F7C8F8D8F9E8FAB8D2E
:1004D000BC8DBA87A98710C080E991E09C878B8783
:1004E0008B859C850197F1F79C878B870000898518
:1004F0009A8501979A87898789859A85009761F7F8
:1005000019C06D817E818F8198850E949C176F8FA5
:1005100078A389A39AA3EF8DF8A1FA87E987898543
:100520009A859E878D878D859E850197F1F79E8799
:100530008D87000082E091E0DC012C9182E091E067
:100540002062FC01208382E091E0DC012C9182E0BA
:1005500091E02F7EFC01208382E091E0DC012C9170
:1005600082E091E0277FFC0120830000A2960FB675
:10057000F894DEBF0FBECDBFDF91CF9108950F93EA
:100580001F93CF93DF9300D00F920F92CDB7DEB7BA
:100590008983898188233CF18981843609F01CF59F
:1005A0008981082E000C990BAA0BBB0BAC013327D9
:1005B00022272A833B834C835D8304E610E020E0FE
:1005C00030E06A817B818C819D81A90198010E9424
:1005D000C616DA01C901AC01BD0188E890E09A01B4
:1005E000FC013183208300000F900F900F900F903B
:1005F0000F90DF91CF911F910F9108950F931F934B
:10060000CF93DF9300D00F920F92CDB7DEB78983DF
:10061000898188233CF18981843609F01CF5898120
:10062000082E000C990BAA0BBB0BAC013327222719
:100630002A833B834C835D8304E610E020E030E0B6
:100640006A817B818C819D81A90198010E94C616D7
:10065000DA01C901AC01BD0188E990E09A01FC0111
:100660003183208300000F900F900F900F900F9018
:10067000DF91CF911F910F9108951F920F920FB6A6
:100680000F9211240BB60F922F933F938F939F934A
:10069000EF93FF93CF93DF93CDB7DEB782E290E085
:1006A000FC01308182E290E020E82327FC012083D6
:1006B0000000DF91CF91FF91EF919F918F913F913A
:1006C0002F910F900BBE0F900FBE0F901F9018959B
:1006D0001F920F920FB60F9211240BB60F922F9309
:1006E0008F939F93EF93FF93CF93DF93CDB7DEB7B5
:1006F00082E290E0FC01208182E290E02068FC012F
:1007000020830000DF91CF91FF91EF919F918F9116
:100710002F910F900BBE0F900FBE0F901F9018954A
:100720001F920F920FB60F9211240BB60F922F93B8
:100730003F938F939F93EF93FF93CF93DF93CDB727
:10074000DEB782E290E0FC01308182E290E024E0BA
:100750002327FC0120830000DF91CF91FF91EF91CF
:100760009F918F913F912F910F900BBE0F900FBED5
:100770000F901F9018951F920F920FB60F92112491
:100780000BB60F922F938F939F93EF93FF93CF937B
:10079000DF93CDB7DEB782E290E0FC01208182E2F8
:1007A00090E02460FC0120830000DF91CF91FF9155
:1007B000EF919F918F912F910F900BBE0F900FBED5
:1007C0000F901F9018951F920F920FB60F92112441
:1007D0008F939F93CF93DF93CDB7DEB7809126029F
:1007E00090912702019690932702809326020000A1
:1007F000DF91CF919F918F910F900FBE0F901F901F
:1008000018951F920F920FB60F9211240BB60F92EC
:100810008F939F93EF93FF93CF93DF93CDB7DEB783
:1008200080912802909129028130910569F064F04D
:10083000109229021092280210922B0210922A0282
:1008400081EA90E0FC0110828091280290912902B7
:10085000019690932902809328020000DF91CF91A6
:10086000FF91EF919F918F910F900BBE0F900FBE54
:100870000F901F9018950F931F93CF93DF93CDB7D1
:10088000DEB7C25BD1090FB6F894DEBF0FBECDBF95
:100890000E94B10C0E9410150E94A60D1E821D829E
:1008A0001A8219821C821B8280912002909121025F
:1008B0008230910511F41A82198280912002909160
:1008C00021028630910521F481E090E09A838983AA
:1008D00080912002909121028730910521F483E6D6
:1008E00090E09A83898389819A8182309105A9F168
:1008F000A4F189819A818336910579F186E290E0AD
:10090000DC018C91882F90E080729927009751F03C
:1009100086E290E0FC018081882F90E08071992729
:100920000097D9F480912A0290912B028130910591
:1009300081F081E090E090932B0280932A0281EA7B
:1009400090E024E0DC012C9388E090E09A83898396
:1009500004C084E090E09A83898389819A81092E7A
:10096000000CAA0BBB0B83369105A105B10511F054
:1009700008F09ACFFC018827EF50F74E8F4F0C9468
:10098000E51683E60E94BF0283E60E94FE02809184
:100990002602909127028E31910509F0DCF482E065
:1009A00091E0FC01208182E091E0277FDC012C9323
:1009B00082E091E0FC01208182E091E02F7EDC0169
:1009C0002C9382E091E0FC01208182E091E02F7D78
:1009D000DC012C9380912602909127028D319105A4
:1009E00041F13CF182E091E0FC01208182E091E064
:1009F0002860DC012C9382E091E0FC01208182E000
:100A000091E02061DC012C9382E091E0FC012081E7
:100A100082E091E02062DC012C938091260290918B
:100A200027028B33910529F024F0109227021092AF
:100A3000260280912002909121028830910509F0D0
:100A400063C782E090E09A8389835EC782E091E089
:100A5000FC01208182E091E0277FDC012C9382E081
:100A600091E0FC01208182E091E02062DC012C9386
:100A700082E091E0FC01208182E091E02F7EDC01A8
:100A80002C9382E091E0FC01208182E091E0277FBD
:100A9000DC012C9383E60E94FE0283E60E94BF02E3
:100AA00080912002909121028130910509F02FC799
:100AB00081E090E09A8389832AC782E091E0FC017B
:100AC000208182E091E0277FDC012C9382E091E09D
:100AD000FC01208182E091E02062DC012C9382E025
:100AE00091E0FC01208182E091E02061DC012C9307
:100AF00082E091E0FC01208182E091E0277FDC012F
:100B00002C9383E60E94FE0283E60E94BF0280913E
:100B10002002909121028330910509F0FBC682E00A
:100B200090E09A838983F6C682E091E0FC012081FF
:100B300082E091E0277FDC012C9382E091E0FC01D0
:100B4000208182E091E02F7DDC012C9382E091E016
:100B5000FC01208182E091E02061DC012C9382E0A5
:100B600091E0FC01208182E091E0277FDC012C9361
:100B700080912002909121028430910509F0CDC628
:100B800083E090E09A838983C8C682E091E0FC010B
:100B9000208182E091E02F7DDC012C9382E091E0C6
:100BA000FC01208182E091E02F7EDC012C9382E029
:100BB00091E0FC01208182E091E0277FDC012C9311
:100BC0008CE30E94BF028CE30E94FE020E94360169
:100BD00086E290E0FC018081882F90E08470992764
:100BE000009709F09DC686E290E0DC018C91882F89
:100BF00090E088709927009709F092C684E090E011
:100C00009A8389838DC60E9436018CE30E94BF02BD
:100C10008CE30E94FE0286E290E0FC018081882F36
:100C200090E084709927009729F085E090E09A83FE
:100C3000898379C686E290E0DC018C91882F90E070
:100C400088709927009729F086E090E09A8389833D
:100C50006AC686E290E0FC018081882F90E0847073
:100C60009927009709F45FC686E290E0DC018C9139
:100C70005AC687E30E94BF0281E40E94FE0286E218
:100C800090E0FC018081882F90E084709927009784
:100C900079F486E290E0DC018C91882F90E08870F6
:100CA0009927009729F484E090E09A8389833EC6CF
:100CB00086E290E0FC018081882F90E08470992783
:100CC000009709F433C686E290E0DC018C912EC6D1
:100CD00081E40E94BF0287E30E94FE0286E290E068
:100CE000FC018081882F90E084709927009779F427
:100CF00086E290E0DC018C91882F90E08870992743
:100D0000009729F484E090E09A83898312C686E2F2
:100D100090E0FC018081882F90E0847099270097F3
:100D200009F407C686E290E0DC018C9102C680E0FF
:100D300090E0AAEFB4E489879A87AB87BC8720E06C
:100D400030E04AE755E469857A858B859C850E9469
:100D50008218A7966CAF7DAF8EAF9FAFA797A7966F
:100D60008CAD9DADAEADBFADA7978D879E87AF878C
:100D7000B88B20E030E040E85FE36D857E858F85AD
:100D800098890E941E1788232CF481E090E09A8BAA
:100D9000898B66C020E03FEF4FE757E46D857E8585
:100DA0008F8598890E947D18882309F00CF446C02D
:100DB00020E030E040E251E469857A858B859C85AE
:100DC0000E948218AB966CAF7DAF8EAF9FAFAB9792
:100DD000AB968CAD9DADAEADBFADAB9763968CAF12
:100DE0009DAFAEAFBFAF639763966CAD7DAD8EAD7B
:100DF0009FAD63970E949C17AF966CAF7DAF8EAF8F
:100E00009FAFAF97AD96AEADBFADAD97BA8BA98B87
:100E100010C080E991E09C8B8B8B8B899C8901971A
:100E2000F1F79C8B8B8B000089899A8901979A8BAB
:100E3000898B89899A89009761F71DC06D857E85A8
:100E40008F8598890E949C17E3966CAF7DAF8EAF1B
:100E50009FAFE397E196EEADFFADE197FA8BE98B9B
:100E600089899A899E8B8D8B8D899E890197F1F74F
:100E70009E8B8D8B000087E30E94BF0281E40E945D
:100E8000FE0286E290E0DC018C91882F90E0887071
:100E90009927009709F050C586E290E0FC01808117
:100EA000882F90E084709927009709F045C584E069
:100EB00090E09A83898340C583E60E94BF0283E65F
:100EC0000E94FE020E94E60184E090E09A838983FA
:100ED00046C583E60E94BF0283E60E94FE0282E0CE
:100EE00091E0DC012C9182E091E02061FC01208303
:100EF00082E091E0DC012C9182E091E02062FC0133
:100F0000208382E091E0DC012C9182E091E0286076
:100F1000FC0120838F8198858C33910509F00CF4B6
:100F20000EC582E091E0DC012C9182E091E02F7D02
:100F3000FC01208382E091E0DC012C9182E091E0D1
:100F40002F7EFC01208382E091E0DC012C9182E085
:100F500091E0277FFC01208384E090E09A838983DD
:100F6000EEC483E60E94BF0283E60E94FE0282E096
:100F700091E0DC012C9182E091E02061FC01208372
:100F800082E091E0DC012C9182E091E02062FC01A2
:100F9000208382E091E0DC012C9182E091E02860E6
:100FA000FC0120838D819E818C33910509F00CF426
:100FB000C9C482E091E0DC012C9182E091E02F7DB8
:100FC000FC01208382E091E0DC012C9182E091E041
:100FD0002F7EFC01208382E091E0DC012C9182E0F5
:100FE00091E0277FFC01208384E090E09A8389834D
:100FF000A9C40E9436019E012F5B3F4F80E090E024
:10100000AAE7B4E4F90180839183A283B3838E01BC
:101010000B5B1F4FCE018F5B9F4F20E030E04AE714
:1010200055E4DC016D917D918D919C910E94821817
:10103000E7966CAF7DAF8EAF9FAFE797E7968CAD2D
:101040009DADAEADBFADE797F80180839183A283DC
:10105000B383CE018B5B9F4F20E030E040E85FE33D
:10106000DC016D917D918D919C910E941E178823CA
:101070004CF4CE01875B9F4F21E030E0FC013183CF
:10108000208399C0CE018B5B9F4F20E03FEF4FE75D
:1010900057E4DC016D917D918D919C910E947D18AA
:1010A000882309F00CF469C0CE018F5B9F4F20E0CC
:1010B00030E040E251E4FC016081718182819381E2
:1010C0000E948218EB966CAF7DAF8EAF9FAFEB970F
:1010D000EB968CAD9DADAEADBFADEB97A3968CAF4F
:1010E0009DAFAEAFBFAFA3978E01075B1F4FA39617
:1010F0006CAD7DAD8EAD9FADA3970E949C17EF9612
:101100006CAF7DAF8EAF9FAFEF97ED96EEADFFADBD
:10111000ED97D8011196FC93EE9326C0CE01855B26
:101120009F4F20E931E0DC012D933C93CE01855B9C
:101130009F4FFC01808191810197F1F79E01255B12
:101140003F4FD9018D939C930000CE01875B9F4F49
:101150009E01275B3F4FF9012081318121503109E8
:10116000DC0111963C932E93CE01875B9F4FFC01CF
:1011700080819181009791F639C08E01075B1F4FE6
:10118000CE018B5B9F4FDC016D917D918D919C9188
:101190000E949C17C158DF4F688379838A839B83A1
:1011A000CF57D040C158DF4F88819981CF57D04069
:1011B000F80191838083CE01835B9F4F9E01275B63
:1011C0003F4FD9012D913C91FC0131832083CE0109
:1011D000835B9F4FDC018D919C910197F1F79E01FC
:1011E000235B3F4FF9019183808300000E940A0135
:1011F00080E090E0AAEFB3E48BAB9CABADABBEABB1
:1012000020E030E04AE755E46BA97CA98DA99EA9AE
:101210000E948218CD57DF4F688379838A839B832E
:10122000C358D040CD57DF4F88819981AA81BB81B7
:10123000C358D0408FAB98AFA9AFBAAF20E030E031
:1012400040E85FE36FA978AD89AD9AAD0E941E17A3
:1012500088232CF481E090E09CAF8BAF72C020E03B
:101260003FEF4FE757E46FA978AD89AD9AAD0E9483
:101270007D18882309F00CF44EC020E030E040E2F5
:1012800051E46BA97CA98DA99EA90E948218C95717
:10129000DF4F688379838A839B83C758D040C957BF
:1012A000DF4F88819981AA81BB81C758D0406F9652
:1012B0008CAF9DAFAEAFBFAF6F976F966CAD7DAD8E
:1012C0008EAD9FAD6F970E949C17C557DF4F688307
:1012D00079838A839B83CB58D040C557DF4FA88141
:1012E000B981CB58D040BCAFABAF10C080E991E022
:1012F0009EAF8DAF8DAD9EAD0197F1F79EAF8DAFD7
:1013000000008BAD9CAD01979CAF8BAF8BAD9CADBE
:10131000009761F72BC06FA978AD89AD9AAD0E9497
:101320009C17C157DF4F688379838A839B83CF588B
:10133000D040C157DF4FE881F981CF58D040FCAF92
:10134000EBAF2BAD3CADCE01CF96DC012D933C93A2
:10135000CE01CF96FC01808191810197F1F79E012A
:10136000215C3F4FD9018D939C9300000E94360170
:1013700080E090E0AAE7B4E48DA39EA3AFA3B8A752
:1013800020E030E04AE755E46DA17EA18FA198A549
:101390000E948218CD56DF4F688379838A839B83AE
:1013A000C359D040CD56DF4F88819981AA81BB8136
:1013B000C359D04089A79AA7ABA7BCA720E030E0CB
:1013C00040E85FE369A57AA58BA59CA50E941E173E
:1013D00088232CF481E090E09EA78DA772C020E0C6
:1013E0003FEF4FE757E469A57AA58BA59CA50E941E
:1013F0007D18882309F00CF44EC020E030E040E274
:1014000051E46DA17EA18FA198A50E948218C956B2
:10141000DF4F688379838A839B83C759D040C9563D
:10142000DF4F88819981AA81BB81C759D0406B96D3
:101430008CAF9DAFAEAFBFAF6B976B966CAD7DAD14
:101440008EAD9FAD6B970E949C17C556DF4F68838A
:1014500079838A839B83CB59D040C556DF4FA881BF
:10146000B981CB59D040BEA7ADA710C080E991E0AB
:1014700098AB8FA78FA598A90197F1F798AB8FA785
:1014800000008DA59EA501979EA78DA78DA59EA561
:10149000009761F721C069A57AA58BA59CA50E943C
:1014A0009C17C156DF4F688379838A839B83CF590A
:1014B000D040C156DF4FE881F981CF59D040FEA717
:1014C000EDA78DA59EA59AAB89AB89A99AA901978D
:1014D000F1F79AAB89AB00000E940A0180E090E02E
:1014E000AAEFB3E48F8B988FA98FBA8F20E030E0FA
:1014F0004AE755E46F89788D898D9A8D0E9482180C
:10150000CD55DF4F688379838A839B83C35AD0404C
:10151000CD55DF4F88819981AA81BB81C35AD040C4
:101520008B8F9C8FAD8FBE8F20E030E040E85FE373
:101530006B8D7C8D8D8D9E8D0E941E1788232CF4C3
:1015400081E090E098A38F8F72C020E03FEF4FE7DB
:1015500057E46B8D7C8D8D8D9E8D0E947D18882328
:1015600009F00CF44EC020E030E040E251E46F8915
:10157000788D898D9A8D0E948218C955DF4F6883B6
:1015800079838A839B83C75AD040C955DF4F8881AE
:101590009981AA81BB81C75AD04067968CAF9DAF15
:1015A000AEAFBFAF679767966CAD7DAD8EAD9FADAB
:1015B00067970E949C17C555DF4F688379838A839C
:1015C0009B83CB5AD040C555DF4FA881B981CB5AF8
:1015D000D040B8A3AF8F10C080E991E09AA389A34F
:1015E00089A19AA10197F1F79AA389A300008F8D91
:1015F00098A1019798A38F8F8F8D98A1009761F77D
:1016000021C06B8D7C8D8D8D9E8D0E949C17C15548
:10161000DF4F688379838A839B83CF5AD040C1553B
:10162000DF4FE881F981CF5AD040F8A3EF8F8F8D3B
:1016300098A19CA38BA38BA19CA10197F1F79CA3DC
:101640008BA300000E943601000089819A818230BC
:101650009105A9F0A4F086E290E0DC018C91882F3E
:1016600090E088709927009751F086E290E0FC01A5
:101670008081882F90E084709927009731F783E06C
:1016800090E09A8389836BC18F8198858639910513
:1016900009F024F483E090E09C838B838F8198850C
:1016A0008639910509F034F48D819E818639910542
:1016B00019F014F01C821B8280912002909121026B
:1016C0008230910511F41A82198280912002909142
:1016D00021028630910521F481E090E09A8389838C
:1016E00080912002909121028730910521F483E6B8
:1016F00090E09A8389838B819C818630910509F4DF
:10170000D5C08B819C818630910511F00CF0CCC83E
:101710008B819C818530910509F499C08B819C81D6
:101720008530910511F00CF0BFC88B819C8184300D
:10173000910509F456C08B819C818430910511F08C
:101740000CF0B2C88B819C81009731F08B819C8119
:101750008330910541F0A8C883E60E94BF0283E66A
:101760000E94FE02FCC082E091E0DC012C9182E04C
:1017700091E02F7DFC01208382E091E0DC012C913F
:1017800082E091E02F7EFC01208382E091E0DC0189
:101790002C9182E091E0277FFC0120838CE30E9462
:1017A000BF028CE30E94FE020E94360186E290E0B6
:1017B000DC018C91882F90E084709927009709F0C4
:1017C000C4C086E290E0FC018081882F90E08870A0
:1017D0009927009709F0B9C084E090E09C838B833F
:1017E000B4C00E9436018CE30E94BF028CE30E94C9
:1017F000FE0286E290E0DC018C91882F90E08470FC
:101800009927009729F085E090E09C838B83A0C006
:1018100086E290E0FC018081882F90E08870992713
:10182000009729F086E090E09C838B8391C086E24C
:1018300090E0DC018C91882F90E0847099270097CC
:1018400009F486C086E290E0FC01808181C087E3D4
:101850000E94BF0281E40E94FE0286E290E0DC0169
:101860008C91882F90E084709927009779F486E214
:1018700090E0FC018081882F90E088709927009784
:1018800029F484E090E09C838B8365C086E290E03D
:10189000DC018C91882F90E084709927009709F4DF
:1018A0005AC086E290E0FC01808155C081E40E942C
:1018B000BF0287E30E94FE0286E290E0DC018C9189
:1018C000882F90E084709927009779F486E290E061
:1018D000FC018081882F90E088709927009729F477
:1018E00084E090E09C838B8339C086E290E0DC0149
:1018F0008C91882F90E084709927009779F186E287
:1019000090E0FC0180812AC000000C945404000087
:101910000C94540400000C94540400000C945404DF
:1019200000000C94540400000C94540400000C9427
:10193000540400000C94540400000C94540400005F
:101940000C94540400000C94540400000C945404AF
:1019500000000C94540400000C94540400000C94F7
:101960005404CF93DF93CDB7DEB70E94EE00789496
:1019700081E890E021E0FC0120838FE690E023E005
:10198000FC01208388E890E0FC011182108281E94B
:1019900090E021E0FC01208381E790E023E0FC015E
:1019A000208388E990E0FC011182108285E490E0B8
:1019B00025E0FC0120838EE690E0FC0120818EE68C
:1019C00090E02160FC01208382E790E0FC0120810F
:1019D00082E790E02160FC01208381E290E0FC013D
:1019E000208181E290E02068FC01208381E290E088
:1019F000FC01208181E290E02064FC01208381E2EF
:101A000090E0FC01208181E290E02062FC012083D3
:101A100081E290E0FC01208181E290E02061FC0104
:101A2000208381E290E0FC01208181E290E0286047
:101A3000FC01208381E290E0FC01208181E290E0C2
:101A40002460FC01208382E290E0FC01208182E29C
:101A500090E02F77FC01208382E290E0FC0120815E
:101A600082E290E02F7BFC01208382E290E0FC0187
:101A7000208182E290E02F7DFC01208382E290E0D1
:101A8000FC01208182E290E02F7EFC01208382E233
:101A900090E0FC01208182E290E0277FFC0120831E
:101AA00082E290E0FC01208182E290E02B7FFC0149
:101AB000208381E091E0FC01208181E091E02063BE
:101AC000FC01208382E091E0FC01208182E091E032
:101AD0002F7CFC01208384E290E0FC01208184E2E1
:101AE00090E02068FC01208385E290E0FC01808189
:101AF000282F2F6785E290E0FC01208381E091E0B0
:101B0000FC01208181E091E02860FC01208382E0DB
:101B100091E0FC01208182E091E0277FFC0120839D
:101B200080E390E0FC01208180E390E02D7FFC01C8
:101B3000208381E390E0FC01208181E390E022603A
:101B4000FC0120830000DF91CF910895CF93DF93B4
:101B5000CDB7DEB780EB90E0FC01108281EB90E026
:101B6000FC01208181EB90E02160FC01208380E773
:101B700090E021E0FC01208387E091E0FC012081DE
:101B800087E091E02E7FFC0120838AE091E0FC0158
:101B900020818AE091E02068FC0120838BE091E0C5
:101BA000FC0120818BE091E02F77FC01208380E312
:101BB00090E0FC01208180E390E02F77FC012083FE
:101BC0008AE091E0FC0120818AE091E02064FC0140
:101BD00020838BE091E0FC0120818BE091E02F7B62
:101BE000FC0120830000DF91CF910895CF93DF9314
:101BF000CDB7DEB76E970FB6F894DEBF0FBECDBF80
:101C00000E940A0F00008FE290E0DC018C91882393
:101C1000D4F782EB90E0FC01108287E390E021E0B2
:101C2000DC012C9310922F0210922E0200008FE202
:101C300090E0FC0180818823D4F380912E02909162
:101C40002F029A83898389819A819C01990F440B81
:101C5000550B2F87388B498B5A8B6F8578898989EB
:101C60009A890E94CD176B837C838D839E832FE698
:101C700032E143E05CE36B817C818D819E810E9437
:101C800082186B8B7C8B8D8B9E8B8B899C89AD890D
:101C9000BE898F839887A987BA8720E030E84BEA0E
:101CA00053E46F81788589859A850E9482186F8BAD
:101CB000788F898F9A8F2F89388D498D5A8D2B87F0
:101CC0003C874D875E876B857C858D859E850E94D0
:101CD00095176B8F7C8F8D8F9E8F4B8D5C8D5A836C
:101CE000498389819A816E960FB6F894DEBF0FBE44
:101CF000CDBFDF91CF910895CF93DF93CDB7DEB7FE
:101D00006E970FB6F894DEBF0FBECDBF0E94FE11D6
:101D1000000086E091E0DC018C91882F90E08170DA
:101D200099270097B1F382EB90E0FC01108287E3E2
:101D300090E021E0DC012C9310922F0210922E02F1
:101D4000000086E091E0FC018081882F90E08170A6
:101D500099270097B1F780912E0290912F029A83D4
:101D6000898389819A819C01990F440B550B2F8798
:101D7000388B498B5A8B6F85788989899A890E941B
:101D8000CD176B837C838D839E832FE632E143E006
:101D90005CE36B817C818D819E810E9482186B8BBC
:101DA0007C8B8D8B9E8B8B899C89AD89BE898F8323
:101DB0009887A987BA8720E030E84BEA53E46F811F
:101DC000788589859A850E9482186F8B788F898F94
:101DD0009A8F2F89388D498D5A8D2B873C874D8757
:101DE0005E876B857C858D859E850E9495176B8FA0
:101DF0007C8F8D8F9E8F4B8D5C8D5A83498389811B
:101E00009A816E960FB6F894DEBF0FBECDBFDF91FC
:101E1000CF910895CF93DF93CDB7DEB7C059D109E5
:101E20000FB6F894DEBF0FBECDBF8BE091E0DC01B2
:101E30002C918BE091E02F77FC01208380E090E0F3
:101E4000A0E0B0E489A39AA3ABA3BCA32BEA3AEA2F
:101E50004AEA50E469A17AA18BA19CA10E94821850
:101E60002D966CAF7DAF8EAF9FAF2D972D968CAD1D
:101E70009DADAEADBFAD2D978DA39EA3AFA3B8A76B
:101E800020E030E040E850E469A17AA18BA19CA158
:101E90000E94821861966CAF7DAF8EAF9FAF619745
:101EA00061968CAD9DADAEADBFAD619789A79AA788
:101EB000ABA7BCA720E030E040E85FE36DA17EA1C6
:101EC0008FA198A50E941E1788231CF481E08DA77E
:101ED000FFC020E03FEF4FE757E469A57AA58BA547
:101EE0009CA50E947D18882309F00CF4B6C020E060
:101EF00030E04AE754E469A17AA18BA19CA10E9439
:101F0000231765966CAF7DAF8EAF9FAF65976596D3
:101F10008CAD9DADAEADBFAD65978EA79FA7A8ABAD
:101F2000B9AB20E030E04AE755E46EA57FA588A96B
:101F300099A90E94821869966CAF7DAF8EAF9FAF52
:101F4000699769968CAD9DADAEADBFAD69978AAB13
:101F50009BABACABBDAB20E030E040E85FE36AA9EF
:101F60007BA98CA99DA90E941E1788232CF481E0CF
:101F700090E09FAB8EAB66C020E03FEF4FE757E4A9
:101F80006AA97BA98CA99DA90E947D18882309F0C4
:101F90000CF446C020E030E040E251E46EA57FA59D
:101FA00088A999A90E9482186D966CAF7DAF8EAFFB
:101FB0009FAF6D976D968CAD9DADAEADBFAD6D977E
:101FC00029968CAF9DAFAEAFBFAF299729966CAD68
:101FD0007DAD8EAD9FAD29970E949C17A1966CAFE9
:101FE0007DAF8EAF9FAFA1976F96AEADBFAD6F9730
:101FF000BFABAEAB10C080E991E099AF88AF88ADC0
:1020000099AD0197F1F799AF88AF00008EA99FA90C
:1020100001979FAB8EAB8EA99FA9009761F758C01F
:102020006AA97BA98CA99DA90E949C17A5966CAF53
:102030007DAF8EAF9FAFA597A396EEADFFADA397F3
:10204000FFABEEAB8EA99FA99BAF8AAF8AAD9BADCC
:102050000197F1F79BAF8AAF3BC020E030E04FE73C
:1020600053E46DA17EA18FA198A50E947D188823BD
:10207000F9F0F4F069A57AA58BA59CA50E949C17A0
:10208000A9966CAF7DAF8EAF9FAFA997A7968EAD87
:102090009FADA7979DAF8CAF8CAD9DAD9FAF8EAF21
:1020A0008EAD9FAD0197F1F79FAF8EAF000024C0BA
:1020B0006DA17EA18FA198A50E949C17AD966CAFD3
:1020C0007DAF8EAF9FAFAD97AA969FADAA979DA704
:1020D0002DA5CE01805C9F4FDC012C93CE01805C4E
:1020E0009F4FFC018081282F2A95F1F7CE01805C5B
:1020F0009F4FDC012C9300008BE091E0FC012081DC
:102100008BE091E02068DC012C9380E090E0A0E27D
:10211000B1E489839A83AB83BC832BEA3AEA4AEA27
:1021200050E469817A818B819C810E948218E196BA
:102130006CAF7DAF8EAF9FAFE197E1968CAD9DAD5B
:10214000AEADBFADE1978D839E83AF83B88720E0AE
:1021500030E040E850E469817A818B819C810E9463
:102160008218E5966CAF7DAF8EAF9FAFE597E59691
:102170008CAD9DADAEADBFADE59789879A87AB8736
:10218000BC8720E030E040E85FE36D817E818F8195
:1021900098850E941E1788231CF481E08D8713C147
:1021A00020E03FEF4FE757E469857A858B859C8572
:1021B0000E947D18882309F00CF4C2C020E030E0B2
:1021C0004AE754E469817A818B819C810E942317BC
:1021D000E9966CAF7DAF8EAF9FAFE997E9968CAD76
:1021E0009DADAEADBFADE9978E879F87A88BB98BAC
:1021F00020E030E04AE755E46E857F85888999893B
:102200000E948218ED966CAF7DAF8EAF9FAFED97B9
:10221000ED968CAD9DADAEADBFADED978A8B9B8B32
:10222000AC8BBD8B20E030E040E85FE36A897B89BE
:102230008C899D890E941E1788232CF481E090E0F0
:102240009F8B8E8B72C020E03FEF4FE757E46A8987
:102250007B898C899D890E947D18882309F00CF464
:102260004EC020E030E040E251E46E857F858889F1
:1022700099890E948218C358DF4F688379838A83C3
:102280009B83CD57D040C358DF4F88819981AA8165
:10229000BB81CD57D04025968CAF9DAFAEAFBFAFC1
:1022A000259725966CAD7DAD8EAD9FAD25970E948F
:1022B0009C17CF57DF4F688379838A839B83C158EC
:1022C000D040CF57DF4FA881B981C158D040BF8BD4
:1022D000AE8B10C080E991E0998F888F888D998DA1
:1022E0000197F1F7998F888F00008E899F89019758
:1022F0009F8B8E8B8E899F89009761F764C06A8956
:102300007B898C899D890E949C17CB57DF4F6883FE
:1023100079838A839B83C558D040CB57DF4FE881B0
:10232000F981C558D040FF8BEE8B8E899F899B8F9A
:102330008A8F8A8D9B8D0197F1F79B8F8A8F43C07F
:1023400020E030E04FE753E46D817E818F819885F6
:102350000E947D18882319F114F169857A858B858F
:102360009C850E949C17C757DF4F688379838A83B7
:102370009B83C958D040C757DF4F88819981C9587E
:10238000D0409D8F8C8F8C8D9D8D9F8F8E8F8E8D4D
:102390009F8D0197F1F79F8F8E8F00001BC06D817D
:1023A0007E818F8198850E949C17C357DF4F688379
:1023B00079838A839B83CD58D040C357DF4F988160
:1023C000CD58D0409D878D8588A388A18A95F1F747
:1023D00088A300008BE091E0DC012C918BE091E080
:1023E0002F77FC0120830000C057DF4F0FB6F89411
:1023F000DEBF0FBECDBFDF91CF910895CF93DF93A6
:10240000CDB7DEB7C059D1090FB6F894DEBF0FBE05
:10241000CDBF8BE091E0DC012C918BE091E02F7B34
:10242000FC01208380E090E0A0E0B0E489A39AA3BF
:10243000ABA3BCA32BEA3AEA4AEA50E469A17AA129
:102440008BA19CA10E9482182D966CAF7DAF8EAFA0
:102450009FAF2D972D968CAD9DADAEADBFAD2D9799
:102460008DA39EA3AFA3B8A720E030E040E850E4DE
:1024700069A17AA18BA19CA10E94821861966CAF80
:102480007DAF8EAF9FAF619761968CAD9DADAEADC8
:10249000BFAD619789A79AA7ABA7BCA720E030E0A2
:1024A00040E85FE36DA17EA18FA198A50E941E1751
:1024B00088231CF481E08DA7FFC020E03FEF4FE7A9
:1024C00057E469A57AA58BA59CA50E947D18882351
:1024D00009F00CF4B6C020E030E04AE754E469A10A
:1024E0007AA18BA19CA10E94231765966CAF7DAF4A
:1024F0008EAF9FAF659765968CAD9DADAEADBFAD10
:1025000065978EA79FA7A8ABB9AB20E030E04AE75C
:1025100055E46EA57FA588A999A90E94821869969D
:102520006CAF7DAF8EAF9FAF699769968CAD9DAD57
:10253000AEADBFAD69978AAB9BABACABBDAB20E09A
:1025400030E040E85FE36AA97BA98CA99DA90E94BD
:102550001E1788232CF481E090E09FAB8EAB66C001
:1025600020E03FEF4FE757E46AA97BA98CA99DA91A
:102570000E947D18882309F00CF446C020E030E06A
:1025800040E251E46EA57FA588A999A90E9482180E
:102590006D966CAF7DAF8EAF9FAF6D976D968CAD26
:1025A0009DADAEADBFAD6D9729968CAF9DAFAEAF73
:1025B000BFAF299729966CAD7DAD8EAD9FAD2997A4
:1025C0000E949C17A1966CAF7DAF8EAF9FAFA19775
:1025D0006F96AEADBFAD6F97BFABAEAB10C080E92D
:1025E00091E099AF88AF88AD99AD0197F1F799AFB8
:1025F00088AF00008EA99FA901979FAB8EAB8EA9D3
:102600009FA9009761F758C06AA97BA98CA99DA9C9
:102610000E949C17A5966CAF7DAF8EAF9FAFA5971C
:10262000A396EEADFFADA397FFABEEAB8EA99FA92E
:102630009BAF8AAF8AAD9BAD0197F1F79BAF8AAF95
:102640003BC020E030E04FE753E46DA17EA18FA1B5
:1026500098A50E947D188823F9F0F4F069A57AA561
:102660008BA59CA50E949C17A9966CAF7DAF8EAFE1
:102670009FAFA997A7968EAD9FADA7979DAF8CAF43
:102680008CAD9DAD9FAF8EAF8EAD9FAD0197F1F735
:102690009FAF8EAF000024C06DA17EA18FA198A531
:1026A0000E949C17AD966CAF7DAF8EAF9FAFAD977C
:1026B000AA969FADAA979DA72DA5CE01805C9F4F9E
:1026C000DC012C93CE01805C9F4FFC018081282F80
:1026D0002A95F1F7CE01805C9F4FDC012C9300001E
:1026E0008BE091E0FC0120818BE091E02064DC0133
:1026F0002C9380E090E0A0E2B1E489839A83AB83DD
:10270000BC832BEA3AEA4AEA50E469817A818B81F8
:102710009C810E948218E1966CAF7DAF8EAF9FAF17
:10272000E197E1968CAD9DADAEADBFADE1978D83E8
:102730009E83AF83B88720E030E040E850E46981B1
:102740007A818B819C810E948218E5966CAF7DAF67
:102750008EAF9FAFE597E5968CAD9DADAEADBFADAD
:10276000E59789879A87AB87BC8720E030E040E80F
:102770005FE36D817E818F8198850E941E1788237B
:102780001CF481E08D8713C120E03FEF4FE757E451
:1027900069857A858B859C850E947D18882309F040
:1027A0000CF4C2C020E030E04AE754E469817A8149
:1027B0008B819C810E942317E9966CAF7DAF8EAF11
:1027C0009FAFE997E9968CAD9DADAEADBFADE997F2
:1027D0008E879F87A88BB98B20E030E04AE755E4CD
:1027E0006E857F85888999890E948218ED966CAFE5
:1027F0007DAF8EAF9FAFED97ED968CAD9DADAEAD3D
:10280000BFADED978A8B9B8BAC8BBD8B20E030E00E
:1028100040E85FE36A897B898C899D890E941E1745
:1028200088232CF481E090E09F8B8E8B72C020E097
:102830003FEF4FE757E46A897B898C899D890E9425
:102840007D18882309F00CF44EC020E030E040E20F
:1028500051E46E857F85888999890E948218C358C2
:10286000DF4F688379838A839B83CD57D040C358D9
:10287000DF4F88819981AA81BB81CD57D0402596B1
:102880008CAF9DAFAEAFBFAF259725966CAD7DAD3C
:102890008EAD9FAD25970E949C17CF57DF4F688361
:1028A00079838A839B83C158D040CF57DF4FA8815B
:1028B000B981C158D040BF8BAE8B10C080E991E088
:1028C000998F888F888D998D0197F1F7998F888FCF
:1028D00000008E899F8901979F8B8E8B8E899F899F
:1028E000009761F764C06A897B898C899D890E9401
:1028F0009C17CB57DF4F688379838A839B83C558A6
:10290000D040CB57DF4FE881F981C558D040FF8BCD
:10291000EE8B8E899F899B8F8A8F8A8D9B8D0197E5
:10292000F1F79B8F8A8F43C020E030E04FE753E4FC
:102930006D817E818F8198850E947D18882319F191
:1029400014F169857A858B859C850E949C17C757F1
:10295000DF4F688379838A839B83C958D040C757E8
:10296000DF4F88819981C958D0409D8F8C8F8C8D85
:102970009D8D9F8F8E8F8E8D9F8D0197F1F79F8FED
:102980008E8F00001BC06D817E818F8198850E9493
:102990009C17C357DF4F688379838A839B83CD5805
:1029A000D040C357DF4F9881CD58D0409D878D854B
:1029B00088A388A18A95F1F788A300008BE091E0B5
:1029C000DC012C918BE091E02F7BFC012083000047
:1029D000C057DF4F0FB6F894DEBF0FBECDBFDF91FB
:1029E000CF9108951F920F920FB60F9211248F93DB
:1029F0009F93CF93DF93CDB7DEB780912E02909156
:102A00002F02019690932F0280932E020000DF91F7
:102A1000CF919F918F910F900FBE0F901F9018959F
:102A2000CF93DF93CDB7DEB781E091E0FC01208149
:102A300081E091E02062FC01208381E091E0FC01D3
:102A4000208181E091E02061FC01208383E390E01C
:102A5000FC01208183E390E02062FC01208382E07E
:102A600091E0FC01208182E091E02F7EFC01208337
:102A700084E390E0FC01208184E390E02F7DFC0161
:102A800020830000DF91CF910895CF93DF9300D092
:102A90000F920F92CDB7DEB78D831A82198239C09B
:102AA0008D81082E000C990B817099279C838B8354
:102AB0008D8185958D838B819C81009751F082E07B
:102AC00091E0FC01208182E091E02062FC01208302
:102AD00009C082E091E0FC01208182E091E02F7D3D
:102AE000FC01208382E091E0FC01208182E091E002
:102AF0002061FC01208382E091E0FC01208182E0E2
:102B000091E02F7EFC01208389819A8101969A832E
:102B1000898389819A818730910511F208F200003A
:102B200000000F900F900F900F900F90DF91CF91BA
:102B30000895CF93DF930F920F92CDB7DEB79A83AC
:102B4000898380E190E0098002C0880F991F0A9470
:102B5000E2F70E94451500000F900F90DF91CF9192
:102B60000895CF93DF9300D0CDB7DEB789837B8301
:102B70006A8389810E9445158A819B810E949915EB
:102B800084E390E0FC01208184E390E02062FC017A
:102B9000208384E390E0FC01208184E390E02F7D9A
:102BA000FC01208300000F900F900F90DF91CF91D8
:102BB0000895CF93DF93CDB7DEB7A6970FB6F894FD
:102BC000DEBF0FBECDBF9A8B898B1A821982CCC013
:102BD00049895A899A01ADECBCEC0E94ED169C0122
:102BE000369527953695279536952795C901880FEF
:102BF000991F880F991F820F931F880F991F9A01A1
:102C0000281B390BC901880F991F80509E4FDC018A
:102C10008D919C91282F89819A81BC01822F0E94DD
:102C2000B11589899A899C01ADECBCEC0E94ED1626
:102C30009695879596958795969587959A8B898B86
:102C400080E090E0A0E8BFE38B839C83AD83BE83EC
:102C500020E030E04AE755E46B817C818D819E81E4
:102C60000E9482186F8B788F898F9A8F8F89988DA9
:102C7000A98DBA8D8F839887A987BA8720E030E025
:102C800040E85FE36F81788589859A850E941E17E9
:102C900088232CF481E090E09C878B8755C020E04E
:102CA0003FEF4FE757E46F81788589859A850E94C9
:102CB0007D188823D9F1D4F120E030E040E251E4DE
:102CC0006B817C818D819E810E9482186B8F7C8FAD
:102CD0008D8F9E8F8B8D9C8DAD8DBE8D8B8B9C8BA8
:102CE000AD8BBE8B6B897C898D899E890E949C17D8
:102CF0006F8F78A389A39AA3AF8DB8A1BC87AB8748
:102D000010C080E991E09E878D878D859E85019713
:102D1000F1F79E878D8700008B859C8501979C87A6
:102D20008B878B859C85009761F719C06F817885AB
:102D300089859A850E949C176BA37CA38DA39EA373
:102D4000EBA1FCA1FC87EB878B859C85988B8F87FB
:102D50008F8598890197F1F7988B8F87000089817B
:102D60009A8101969A83898389819A81833091051A
:102D700009F00CF42DCF00000000A6960FB6F894D1
:102D8000DEBF0FBECDBFDF91CF910895052E97FB1B
:102D90001EF400940E94DD1657FD07D00E94FC1619
:102DA00007FC03D04EF40C94DD16509540953095F9
:102DB00021953F4F4F4F5F4F0895909580957095A7
:102DC00061957F4F8F4F9F4F0895EE0FFF1F881F14
:102DD0008BBF0790F691E02D1994A29FB001B39F8D
:102DE000C001A39F700D811D1124911DB29F700D14
:102DF000811D1124911D0895A1E21A2EAA1BBB1B4F
:102E0000FD010DC0AA1FBB1FEE1FFF1FA217B307B6
:102E1000E407F50720F0A21BB30BE40BF50B661FCC
:102E2000771F881F991F1A9469F760957095809590
:102E300090959B01AC01BD01CF0108950E94081837
:102E400008F481E008950E9437170C9443180E94FB
:102E50003C1858F00E94351840F029F45F3F29F0E3
:102E60000C942C1851110C9477180C9432180E9461
:102E7000541868F39923B1F3552391F3951B550B1F
:102E8000BB27AA2762177307840738F09F5F5F4F3D
:102E9000220F331F441FAA1FA9F335D00E2E3AF07C
:102EA000E0E832D091505040E695001CCAF72BD094
:102EB000FE2F29D0660F771F881FBB1F26173707E5
:102EC0004807AB07B0E809F0BB0B802DBF01FF2717
:102ED00093585F4F3AF09E3F510578F00C942C18B0
:102EE0000C9477185F3FE4F3983ED4F3869577957A
:102EF0006795B795F7959F5FC9F7880F911D9695D0
:102F0000879597F90895E1E0660F771F881FBB1F2B
:102F1000621773078407BA0720F0621B730B840BD8
:102F2000BA0BEE1F88F7E09508950E949C176894ED
:102F3000B1110C94771808950E945C1888F09F577F
:102F400098F0B92F9927B751B0F0E1F0660F771FCD
:102F5000881F991F1AF0BA95C9F714C0B13091F0C3
:102F60000E947618B1E008950C947618672F782F98
:102F70008827B85F39F0B93FCCF386957795679588
:102F8000B395D9F73EF490958095709561957F4FF4
:102F90008F4F9F4F0895E89409C097FB3EF490959A
:102FA0008095709561957F4F8F4F9F4F9923A9F022
:102FB000F92F96E9BB279395F695879577956795B1
:102FC000B795F111F8CFFAF4BB0F11F460FF1BC0F5
:102FD0006F5F7F4F8F4F9F4F16C0882311F096E988
:102FE00011C0772321F09EE8872F762F05C0662336
:102FF00071F096E8862F70E060E02AF09A95660FEF
:10300000771F881FDAF7880F9695879597F90895A7
:10301000990F0008550FAA0BE0E8FEEF16161706E9
:10302000E807F907C0F012161306E407F50798F051
:10303000621B730B840B950B39F40A2661F0232B6A
:10304000242B252B21F408950A2609F4A140A695E6
:103050008FEF811D811D089597F99F6780E870E0CB
:1030600060E008959FEF80EC089500240A941616FE
:10307000170618060906089500240A941216130666
:10308000140605060895092E0394000C11F48823F4
:1030900052F0BB0F40F4BF2B11F460FF04C06F5F10
:1030A0007F4F8F4F9F4F089557FD9058440F551FE6
:1030B00059F05F3F71F04795880F97FB991F61F0BA
:1030C0009F3F79F087950895121613061406551F31
:1030D000F2CF4695F1DF08C0161617061806991F9D
:1030E000F1CF86957105610508940895E894BB2792
:1030F00066277727CB0197F908950E94081808F4EE
:103100008FEF08950E9495180C9443180E9435186B
:1031100038F00E943C1820F0952311F00C942C18E4
:103120000C94321811240C9477180E94541870F3E0
:10313000959FC1F3950F50E0551F629FF001729F5C
:10314000BB27F00DB11D639FAA27F00DB11DAA1F6B
:10315000649F6627B00DA11D661F829F2227B00DB8
:10316000A11D621F739FB00DA11D621F839FA00D43
:10317000611D221F749F3327A00D611D231F849F93
:10318000600D211D822F762F6A2F11249F575040EA
:103190009AF0F1F088234AF0EE0FFF1FBB1F661F65
:1031A000771F881F91505040A9F79E3F510580F02E
:1031B0000C942C180C9477185F3FE4F3983ED4F3EA
:1031C000869577956795B795F795E7959F5FC1F7D2
:1031D000FE2B880F911D9695879597F90895F89481
:1031E000FFCF26055D059405C5050306390668066B
:1031F00097065C076907F907440B54045404540408
:1032000054045404540454045404540454045404FE
:1032100054045404540454045404540454045404EE
:1032200054045404B107540454045404540454047E
:1032300054045404540454045404540454045404CE
:1032400054045404540454045404540454045404BE
:1032500054045404540454045404540454045404AE
:10326000540454045404540454045404540454049E
:10327000540454045404540454045404540454048E
:10328000540454045404540454045404540454047E
:10329000540454045404540454045404540454046E
:0A32A0005404540454045404C104FF
:1032AA0003FF9FFF25FF0DFF99FF49FF41FF1FFF06
:1032BA0001FF09FF11FFC1FF63FF85FF61FF71FF76
:00000001FF
