:100000000C9472000C947E000C947E000C947E0084
:100010000C947E000C947E000C947E000C947E0068
:100020000C947E000C947E000C947E000C947E0058
:100030000C947E000C947E000C947E000C947E0048
:100040000C947E000C947E000C947E000C947E0038
:100050000C947E000C947E000C947E000C947E0028
:100060000C947E000C947E000C947E000C947E0018
:100070000C947E000C947E000C947E000C947E0008
:100080000C947E000C947E000C947E000C947E00F8
:100090000C947E000C947E000C947E000C947E00E8
:1000A0000C947E000C947E000C947E000C947E00D8
:1000B0000C947E000C947E000C947E000C947E00C8
:1000C0000C947E000C947E000C947E000C947E00B8
:1000D0000C947E000C947E000C947E000C947E00A8
:1000E0000C947E0011241FBECFEFD1E2DEBFCDBF46
:1000F00000E00CBF0E9475020C9403050C940000F4
:10010000CF93DF93CDB7DEB784E290E0FC0120818E
:1001100084E290E0206AFC01208385E290E0FC010B
:10012000208185E290E02F77FC0120830000DF91A1
:10013000CF910895CF93DF93CDB7DEB781E091E003
:10014000FC01208181E091E0277EFC01208382E098
:1001500091E0FC01208182E091E0277EFC01208378
:100160000000DF91CF910895CF93DF93CDB7DEB735
:100170008DE290E0FC0120818DE290E02063FC01A3
:1001800020838EE290E0FC0120818EE290E02F7CC3
:10019000FC0120838DE290E0FC0120818DE290E063
:1001A0002860FC0120838EE290E0FC0120818EE239
:1001B00090E0277FFC0120830000DF91CF9108951C
:1001C000CF93DF93CDB7DEB70E949A000E94B400B0
:1001D0000E9480000000DF91CF910895CF93DF93BC
:1001E000CDB7DEB7C654D1090FB6F894DEBF0FBE47
:1001F000CDBF9E8F8D8F8D8D9E8D8130910509F0A5
:1002000066C18EE290E0DC012C918EE290E02062EB
:10021000FC0120838EE290E0DC012C918EE290E0E4
:100220002F7EFC0120838EE290E0DC012C918EE297
:1002300090E02860FC01208380E090E0AAE7B4E42D
:100240008F87988BA98BBA8B20E030E04AE755E482
:100250006F85788989899A890E946E046FA378A72F
:1002600089A79AA78FA198A5A9A5BAA58B8B9C8BC6
:10027000AD8BBE8B20E030E040E85FE36B897C898A
:100280008D899E890E94E80388232CF481E090E008
:10029000988F8F8B55C020E03FEF4FE757E46B8975
:1002A0007C898D899E890E9469048823D9F1D4F1C3
:1002B00020E030E040E251E46F85788989899A89AD
:1002C0000E946E046BA77CA78DA79EA78BA59CA5FB
:1002D000ADA5BEA58BA39CA3ADA3BEA36BA17CA122
:1002E0008DA19EA10E94ED036FA778AB89AB9AAB5D
:1002F000AFA5B8A9B88FAF8B10C080E991E09A8FF5
:10030000898F898D9A8D0197F1F79A8F898F0000D7
:100310008F89988D0197988F8F8B8F89988D0097F3
:1003200061F719C06B897C898D899E890E94ED03D4
:100330006BAB7CAB8DAB9EABEBA9FCA9F88FEF8BC5
:100340008F89988D9C8F8B8F8B8D9C8D0197F1F76A
:100350009C8F8B8F00008EE290E0DC012C918EE26E
:1003600090E02061FC0120838EE290E0DC012C9182
:100370008EE290E02F7DFC0120838EE290E0DC0194
:100380002C918EE290E0277FFC01208385E290E0B3
:10039000DC012C9185E290E02062FC01208380E06A
:1003A00090E0AAE7B4E489839A83AB83BC8320E01E
:1003B00030E04AE755E469817A818B819C810E9413
:1003C0006E046FAB78AF89AF9AAF8FA998ADA9AD26
:1003D000BAAD8D839E83AF83B88720E030E040E8DC
:1003E0005FE36D817E818F8198850E94E803882379
:1003F0002CF481E090E09A8789875EC020E03FEF8F
:100400004FE757E46D817E818F8198850E94690452
:10041000882309F00CF43EC020E030E040E251E4D3
:1004200069817A818B819C810E946E046BAF7CAF65
:100430008DAF9EAF8BAD9CADADADBEAD8F8F98A394
:10044000A9A3BAA36F8D78A189A19AA10E94ED03F7
:1004500023966CAF7DAF8EAF9FAF23972196AEAD45
:10046000BFAD2197BA87A98710C080E991E09C872A
:100470008B878B859C850197F1F79C878B87000084
:1004800089859A8501979A87898789859A850097B2
:1004900061F720C06D817E818F8198850E94ED0378
:1004A00027966CAF7DAF8EAF9FAF27972596EEADA9
:1004B000FFAD2597FA87E98789859A859E878D877D
:1004C0008D859E850197F1F79E878D8703C01E8ECF
:1004D0001D8E00000000CA5BDF4F0FB6F894DEBF30
:1004E0000FBECDBFDF91CF910895CF93DF93CDB7EE
:1004F000DEB7C854D1090FB6F894DEBF0FBECDBF2A
:100500000E94E00080E091E0DC018C91882F90E077
:1005100088709927009709F0A1C080E090E0A0EAD8
:10052000B1E48D839E83AF83B88720E030E04AE753
:1005300055E46D817E818F8198850E946E0469A744
:100540007AA78BA79CA789A59AA5ABA5BCA58987E7
:100550009A87AB87BC8720E030E040E85FE369859D
:100560007A858B859C850E94E80388232CF481E0A2
:1005700090E09E878D8755C020E03FEF4FE757E41E
:1005800069857A858B859C850E9469048823D9F1C9
:10059000D4F120E030E040E251E46D817E818F8132
:1005A00098850E946E046DA77EA78FA798AB8DA536
:1005B0009EA5AFA5B8A989A39AA3ABA3BCA369A123
:1005C0007AA18BA19CA10E94ED0369AB7AAB8BABA6
:1005D0009CABA9A9BAA9BE87AD8710C080E991E0FC
:1005E000988B8F878F8598890197F1F7988B8F87E4
:1005F00000008D859E8501979E878D878D859E85C0
:10060000009761F719C069857A858B859C850E9462
:10061000ED036DAB7EAB8FAB98AFEDA9FEA9FE8766
:10062000ED878D859E859A8B898B89899A8901971B
:10063000F1F79A8B898B00001A82198209C081E038
:1006400090E00E94EE0089819A8101969A838983C5
:1006500089819A818930910591F38CF380E091E052
:10066000DC018C91882F90E080719927009709F028
:1006700049CF80E090E0A0EAB1E48B8B9C8BAD8BFE
:10068000BE8B20E030E04AE755E46B897C898D8998
:100690009E890E946E0469AF7AAF8BAF9CAF89AD23
:1006A0009AADABADBCAD8F8B988FA98FBA8F20E080
:1006B00030E040E85FE36F89788D898D9A8D0E94E4
:1006C000E80388232CF481E090E09C8F8B8F62C03C
:1006D00020E03FEF4FE757E46F89788D898D9A8D41
:1006E0000E946904882309F00CF442C020E030E045
:1006F00040E251E46B897C898D899E890E946E0459
:1007000021966CAF7DAF8EAF9FAF219721968CADB8
:100710009DADAEADBFAD21978DA39EA3AFA3B8A7EE
:100720006DA17EA18FA198A50E94ED0325966CAFC7
:100730007DAF8EAF9FAF25972396AEADBFAD23970C
:10074000BC8FAB8F10C080E991E09E8F8D8F8D8D17
:100750009E8D0197F1F79E8F8D8F00008B8D9C8D64
:1007600001979C8F8B8F8B8D9C8D009761F71DC09F
:100770006F89788D898D9A8D0E94ED0329966CAFD3
:100780007DAF8EAF9FAF29972796EEADFFAD279730
:10079000FC8FEB8F8B8D9C8D98A38F8F8F8D98A165
:1007A0000197F1F798A38F8F00001C821B8209C06C
:1007B00081E090E00E94EE008B819C8101969C83F9
:1007C0008B838B819C818930910591F38CF39ACE38
:1007D0000E941C0408F481E008950E94480488F0F7
:1007E0009F5798F0B92F9927B751B0F0E1F0660FF5
:1007F000771F881F991F1AF0BA95C9F714C0B13036
:1008000091F00E946204B1E008950C946204672F95
:10081000782F8827B85F39F0B93FCCF38695779564
:100820006795B395D9F73EF490958095709561954D
:100830007F4F8F4F9F4F0895990F0008550FAA0BB8
:10084000E0E8FEEF16161706E807F907C0F01216E3
:100850001306E407F50798F0621B730B840B950BE6
:1008600039F40A2661F0232B242B252B21F408953B
:100870000A2609F4A140A6958FEF811D811D0895D8
:1008800057FD9058440F551F59F05F3F71F0479541
:10089000880F97FB991F61F09F3F79F08795089526
:1008A000121613061406551FF2CF4695F1DF08C045
:1008B000161617061806991FF1CF86957105610562
:1008C00008940895E894BB2766277727CB0197F90A
:1008D00008950E941C0408F48FEF08950E9481047B
:1008E0000C94F2040E94E40438F00E94EB0420F01F
:1008F000952311F00C94DB040C94E10411240C9466
:1009000063040E94400470F3959FC1F3950F50E07B
:10091000551F629FF001729FBB27F00DB11D639FB1
:10092000AA27F00DB11DAA1F649F6627B00DA11D57
:10093000661F829F2227B00DA11D621F739FB00DFD
:10094000A11D621F839FA00D611D221F749F33276D
:10095000A00D611D231F849F600D211D822F762F06
:100960006A2F11249F5750409AF0F1F088234AF0E3
:10097000EE0FFF1FBB1F661F771F881F915050404F
:10098000A9F79E3F510580F00C94DB040C9463049E
:100990005F3FE4F3983ED4F3869577956795B795D6
:1009A000F795E7959F5FC1F7FE2B880F911D9695F0
:1009B000879597F9089597F99F6780E870E060E060
:1009C00008959FEF80EC089500240A9416161706E8
:1009D00018060906089500240A9412161306140630
:1009E00005060895092E0394000C11F4882352F093
:1009F000BB0F40F4BF2B11F460FF04C06F5F7F4F4B
:0A0A00008F4F9F4F0895F894FFCF29
:00000001FF
