:100000000C9486000C94A7000C94A7000C94A700F5
:100010000C94A7000C94A7000C94A7000C94A700C4
:100020000C94A7000C94A7000C94A7000C94A700B4
:100030000C94A7000C94A7000C94A7000C94380C07
:100040000C94A7000C9432030C94A7000C94A70006
:100050000C9407030C94A7000C94A7000C94AD0318
:100060000C94A7000C94A9000C94A7000C94A70072
:100070000C94A7000C94A7000C94A7000C94A70064
:100080000C9485030C94A7000C94A7000C945A03BD
:100090000C94A7000C94A7000C94A7000C94A70044
:1000A0000C94A7000C94A7000C94A7000C94A70034
:1000B0000C94A7000C94CB030C94A7000C94A700FD
:1000C0000C94A7000C94A7000C94A7000C94A70014
:1000D0000C94A7000C94A7000C94A7000C94A70004
:1000E0000C94A7000C948D050C9401060C94370514
:1000F0000C941A070C9465050C94CB050C942707F7
:100100000C9430060C946A060C94090511241FBE49
:10011000CFEFD1E2DEBFCDBF00E00CBF12E0A0E028
:10012000B2E0E2E8F0E200E00BBF02C007900D92FF
:10013000A032B107D9F722E0A0E2B2E001C01D92DF
:10014000A033B207E1F70E9405040C9435100C941B
:1001500000001F920F920FB60F9211240BB60F9250
:100160008F939F93EF93FF93CF93DF93CDB7DEB73A
:1001700086EC90E0FC018081882F90E09093210232
:10018000809320028091220290912302009751F4E3
:1001900080912202909123020196909323028093F2
:1001A000220204C010922302109222020000DF916A
:1001B000CF91FF91EF919F918F910F900BBE0F9078
:1001C0000FBE0F901F901895CF93DF93CDB7DEB77A
:1001D00085EC90E0FC01108284EC90E027E6FC01C5
:1001E000208381EC90E028EDFC01208382EC90E0FC
:1001F00026E0FC01208378940000DF91CF910895E0
:10020000CF93DF93CDB7DEB782E290E0FC0120818F
:1002100082E290E02F7BFC01208382E290E0FC01EF
:10022000208182E290E02062FC01208382E290E063
:10023000FC01208182E290E02061FC01208382E2C7
:1002400090E0FC01208182E290E0277FFC01208386
:100250000000DF91CF910895CF93DF93CDB7DEB744
:1002600082E290E0FC01208182E290E02064FC01C7
:10027000208382E290E0FC01208182E290E02F7DE9
:10028000FC01208382E290E0FC01208182E290E088
:100290002F7EFC01208382E290E0FC01208182E23B
:1002A00090E02860FC0120830000DF91CF91089549
:1002B000CF93DF93CDB7DEB782E290E0FC012081DF
:1002C00082E290E02F7DFC01208382E290E0FC013D
:1002D000208182E290E02064FC01208382E290E0B1
:1002E000FC01208182E290E0277FFC01208382E2F2
:1002F00090E0FC01208182E290E02061FC012083FB
:100300000000DF91CF910895CF93DF93CDB7DEB793
:1003100082E290E0FC01208182E290E02062FC0118
:10032000208382E290E0FC01208182E290E02F7B3A
:10033000FC01208382E290E0FC01208182E290E0D7
:100340002860FC01208382E290E0FC01208182E2AF
:1003500090E02F7EFC0120830000DF91CF91089573
:10036000CF93DF93CDB7DEB7A2970FB6F894DEBF79
:100370000FBECDBF82E091E0DC012C9182E091E0E4
:100380002061FC01208382E091E0DC012C9182E07D
:1003900091E02F7DFC01208382E091E0DC012C9133
:1003A00082E091E02860FC01208380E090E0AAEFE9
:1003B000B3E489839A83AB83BC8320E030E04AE7CF
:1003C00055E469817A818B819C810E94C80F6B8B77
:1003D0007C8B8D8B9E8B8B899C89AD89BE898D830F
:1003E0009E83AF83B88720E030E040E85FE36D8113
:1003F0007E818F8198850E94640E88232CF481E091
:1004000090E09A87898755C020E03FEF4FE757E497
:100410006D817E818F8198850E94C30F8823D9F1D9
:10042000D4F120E030E040E251E469817A818B81AF
:100430009C810E94C80F6F8B788F898F9A8F8F89CC
:10044000988DA98DBA8D8F87988BA98BBA8B6F8564
:10045000788989899A890E94E20E6B8F7C8F8D8FB3
:100460009E8FAB8DBC8DBA87A98710C080E991E0C3
:100470009C878B878B859C850197F1F79C878B8761
:10048000000089859A8501979A87898789859A8549
:10049000009761F719C06D817E818F8198850E94D8
:1004A000E20E6F8F78A389A39AA3EF8DF8A1FA8744
:1004B000E98789859A859E878D878D859E85019799
:1004C000F1F79E878D87000082E091E0DC012C919E
:1004D00082E091E02062FC01208382E091E0DC0177
:1004E0002C9182E091E02F7EFC01208382E091E05C
:1004F000DC012C9182E091E0277FFC012083000049
:10050000A2960FB6F894DEBF0FBECDBFDF91CF919C
:1005100008950F931F93CF93DF9300D00F920F9204
:10052000CDB7DEB78983898188233CF18981843600
:1005300009F01CF58981082E000C990BAA0BBB0B46
:10054000AC01332722272A833B834C835D8304E657
:1005500010E020E030E06A817B818C819D81A901DF
:1005600098010E940C0EDA01C901AC01BD0188E8B6
:1005700090E09A01FC013183208300000F900F90DE
:100580000F900F900F90DF91CF911F910F910895D1
:100590000F931F93CF93DF9300D00F920F92CDB79D
:1005A000DEB78983898188233CF18981843609F00B
:1005B0001CF58981082E000C990BAA0BBB0BAC0112
:1005C000332722272A833B834C835D8304E610E094
:1005D00020E030E06A817B818C819D81A9019801B6
:1005E0000E940C0EDA01C901AC01BD0188E990E05E
:1005F0009A01FC013183208300000F900F900F902F
:100600000F900F90DF91CF911F910F9108951F923E
:100610000F920FB60F9211240BB60F922F933F93A8
:100620008F939F93EF93FF93CF93DF93CDB7DEB775
:1006300082E290E0FC01308182E290E020E8232712
:10064000FC0120830000DF91CF91FF91EF919F91FA
:100650008F913F912F910F900BBE0F900FBE0F9077
:100660001F9018951F920F920FB60F9211240BB680
:100670000F922F938F939F93EF93FF93CF93DF93DB
:10068000CDB7DEB782E290E0FC01208182E290E00B
:100690002068FC0120830000DF91CF91FF91EF9152
:1006A0009F918F912F910F900BBE0F900FBE0F90C7
:1006B0001F9018951F920F920FB60F9211240BB630
:1006C0000F922F933F938F939F93EF93FF93CF932B
:1006D000DF93CDB7DEB782E290E0FC01308182E2A9
:1006E00090E024E02327FC0120830000DF91CF91DC
:1006F000FF91EF919F918F913F912F910F900BBEA2
:100700000F900FBE0F901F9018951F920F920FB66B
:100710000F9211240BB60F922F938F939F93EF9309
:10072000FF93CF93DF93CDB7DEB782E290E0FC0179
:10073000208182E290E02460FC0120830000DF91B0
:10074000CF91FF91EF919F918F912F910F900BBEC1
:100750000F900FBE0F901F9018951F920F920FB61B
:100760000F9211248F939F93CF93DF93CDB7DEB772
:100770008091260290912702019690932702809300
:1007800026020000DF91CF919F918F910F900FBEB5
:100790000F901F9018951F920F920FB60F92112471
:1007A0000BB60F928F939F93EF93FF93CF93DF93AB
:1007B000CDB7DEB780912802909129028130910552
:1007C00069F064F0109229021092280210922B0214
:1007D00010922A0281EA90E0FC01108280912802A6
:1007E000909129020196909329028093280200009B
:1007F000DF91CF91FF91EF919F918F910F900BBE61
:100800000F900FBE0F901F901895CF93DF93CDB729
:10081000DEB7A6970FB6F894DEBF0FBECDBF0E941D
:1008200082070E94560C0E9489081A8219820E942F
:10083000BE089C838B83809120029091210282309C
:10084000910511F41A82198280912002909121025F
:100850008630910521F481E090E09A83898380912C
:100860002002909121028730910521F483E690E0E7
:100870009A83898389819A818230910581F17CF103
:1008800086E290E0DC018C91882F90E080729927BD
:10089000009751F086E290E0FC018081882F90E083
:1008A000807199270097D9F480912A0290912B02A8
:1008B0008130910581F081E090E090932B0280934C
:1008C0002A0281EA90E024E0DC012C9388E090E0A9
:1008D0009A83898304C084E090E09A838983898124
:1008E0009A818230910559F054F08B819C81843635
:1008F000910509F024F489E090E09A838983898145
:100900009A818930910509F0CCF489819A819923E3
:100910000CF48DCF89819A81092E000CAA0BBB0B98
:1009200089309105A105B10511F008F080CFFC01D7
:100930008827E95CFF4E8F4F0C942B0E89819A819A
:100940008336910509F073CF83E60E94890283E61E
:100950000E94C80280912602909127028E31910553
:1009600009F0DCF482E091E0FC01208182E091E07A
:10097000277FDC012C9382E091E0FC01208182E062
:1009800091E02F7EDC012C9382E091E0FC0120813C
:1009900082E091E02F7DDC012C93809126029091E2
:1009A00027028D31910541F13CF182E091E0FC019B
:1009B000208182E091E02860DC012C9382E091E0CC
:1009C000FC01208182E091E02061DC012C9382E037
:1009D00091E0FC01208182E091E02062DC012C9317
:1009E00080912602909127028B33910529F024F003
:1009F00010922702109226028091200290912102EB
:100A00008830910509F06AC282E090E09A83898378
:100A100065C282E091E0FC01208182E091E02062E9
:100A2000DC012C9382E091E0FC01208182E091E0E6
:100A30002F7EDC012C9382E091E0FC01208182E09A
:100A400091E0277FDC012C9383E60E94C80283E6B5
:100A50000E948902809120029091210281309105AB
:100A600009F03EC281E090E09A83898339C282E036
:100A700091E0FC01208182E091E02062DC012C9376
:100A800082E091E0FC01208182E091E02061DC01C4
:100A90002C9382E091E0FC01208182E091E0277FAD
:100AA000DC012C9383E60E94C80283E60E9489023F
:100AB00080912002909121028330910509F012C2A9
:100AC00082E090E09A8389830DC282E091E0FC018C
:100AD000208182E091E02F7DDC012C9382E091E087
:100AE000FC01208182E091E02061DC012C9382E016
:100AF00091E0FC01208182E091E0277FDC012C93D2
:100B000080912002909121028430910509F0ECC17E
:100B100083E090E09A838983E7C182E091E0FC0161
:100B2000208182E091E02F7DDC012C9382E091E036
:100B3000FC01208182E091E02F7EDC012C9382E099
:100B400091E0FC01208182E091E0277FDC012C9381
:100B500082E30E94890282E30E94C8020E9400018F
:100B600086E290E0FC018081882F90E084709927D4
:100B7000009709F0BBC186E290E0DC018C91882FE0
:100B800090E088709927009709F0B0C184E090E068
:100B90009A838983ABC10E94000182E30E9489028B
:100BA00082E30E94C80286E290E0FC018081882FE7
:100BB00090E084709927009729F085E090E09A836F
:100BC000898396C186E290E0DC018C91882F90E0C9
:100BD00088709927009729F086E090E09A838983AE
:100BE00087C186E290E0FC018081882F90E08470CC
:100BF0009927009709F47CC186E290E0DC018C9192
:100C000077C188E20E9489028EE10E94C80286E2D2
:100C100090E0FC018081882F90E0847099270097F4
:100C200079F486E290E0DC018C91882F90E0887066
:100C30009927009729F484E090E09A8389835AC128
:100C400086E290E0FC018081882F90E084709927F3
:100C5000009709F44FC186E290E0DC018C914AC113
:100C60008EE10E94890288E20E94C80286E290E03A
:100C7000FC018081882F90E084709927009779F497
:100C800086E290E0DC018C91882F90E088709927B3
:100C9000009729F484E090E09A8389832DC186E24D
:100CA00090E0FC018081882F90E084709927009764
:100CB00009F422C186E290E0DC018C91882F90E05B
:100CC00088709927009709F417C187E090E09A830C
:100CD000898312C180E090E0AAEFB4E48D839E8303
:100CE000AF83B88720E030E04AE755E46D817E812C
:100CF0008F8198850E94C80F6F8B788F898F9A8F0C
:100D00008F89988DA98DBA8D89879A87AB87BC8783
:100D100020E030E040E85FE369857A858B859C853B
:100D20000E94640E88232CF481E090E09E878D87DA
:100D300055C020E03FEF4FE757E469857A858B8502
:100D40009C850E94C30F8823D9F1D4F120E030E0C4
:100D500040E251E46D817E818F8198850E94C80FA9
:100D60006B8F7C8F8D8F9E8F8B8D9C8DAD8DBE8D6F
:100D70008B8B9C8BAD8BBE8B6B897C898D899E897F
:100D80000E94E20E6F8F78A389A39AA3AF8DB8A1BA
:100D9000BE87AD8710C080E991E0988B8F878F85E3
:100DA00098890197F1F7988B8F8700008D859E8534
:100DB00001979E878D878D859E85009761F719C065
:100DC00069857A858B859C850E94E20E6BA37CA346
:100DD0008DA39EA3EBA1FCA1FE87ED878D859E854B
:100DE0009A8B898B89899A890197F1F79A8B898BDC
:100DF000000088E20E9489028EE10E94C80286E219
:100E000090E0DC018C91882F90E088709927009702
:100E100009F074C086E290E0FC018081882F90E0A8
:100E200084709927009709F069C084E090E09A8364
:100E3000898364C083E60E94890283E60E94C80217
:100E40000E94B00184E090E09A8389835AC083E6CF
:100E50000E94890283E60E94C80282E091E0DC01E0
:100E60002C9182E091E02061FC01208382E091E0FE
:100E7000DC012C9182E091E02062FC01208382E081
:100E800091E0DC012C9182E091E02860FC0120835C
:100E90008B819C818C33910599F194F182E091E0F2
:100EA000DC012C9182E091E02F7DFC01208382E027
:100EB00091E0DC012C9182E091E02F7EFC01208307
:100EC00082E091E0DC012C9182E091E0277FFC013F
:100ED000208384E090E09A83898312C00000A7CC2D
:100EE0000000A5CC0000A3CC0000A1CC00009FCC4A
:100EF00000009DCC00009BCC000099CC000097CC5A
:100F0000000095CCCF93DF93CDB7DEB70E94E4000D
:100F1000789481E890E021E0FC0120838FE690E066
:100F200023E0FC01208388E890E0FC01118210821C
:100F300081E990E021E0FC01208381E790E023E05B
:100F4000FC01208388E990E0FC011182108285E495
:100F500090E025E0FC0120838EE690E0FC012081FA
:100F60008EE690E02160FC01208382E790E0FC01A6
:100F7000208182E790E02160FC01208381E290E003
:100F8000FC01208181E290E02068FC01208381E265
:100F900090E0FC01208181E290E02064FC0120834C
:100FA00081E290E0FC01208181E290E02062FC017E
:100FB000208381E290E0FC01208181E290E02061C9
:100FC000FC01208381E290E0FC01208181E290E03D
:100FD0002860FC01208381E290E0FC01208181E215
:100FE00090E02460FC01208382E290E0FC012081FB
:100FF00082E290E02F77FC01208382E290E0FC0106
:10100000208182E290E02F7BFC01208382E290E04D
:10101000FC01208182E290E02F7DFC01208382E2AE
:1010200090E0FC01208182E290E02F7EFC01208391
:1010300082E290E0FC01208182E290E0277FFC01C7
:10104000208382E290E0FC01208182E290E02B7F0D
:10105000FC01208381E091E0FC01208181E091E0AE
:101060002063FC01208382E091E0FC01208182E08A
:1010700091E02F7CFC01208384E290E0FC01208140
:1010800084E290E02068FC01208385E290E0FC018E
:101090008081282F2F6785E290E0FC01208381E08A
:1010A00091E0FC01208181E091E02860FC01208337
:1010B00082E091E0FC01208182E091E0277FFC0149
:1010C000208380E390E0FC01208180E390E02D7F8D
:1010D000FC01208381E390E0FC01208181E390E02A
:1010E0002260FC01208383E290E0FC01208183E206
:1010F00090E02062FC01208385E290E0FC012081E9
:1011000085E290E02F7DFC0120830000DF91CF91EC
:101110000895CF93DF93CDB7DEB780EB90E0FC016D
:10112000108281EB90E0FC01208181EB90E0216056
:10113000FC01208380E790E021E0FC01208380E334
:1011400090E0FC01208180E390E02F77FC01208378
:101150008AE091E0FC0120818AE091E02064FC01BA
:1011600020838BE091E0FC0120818BE091E02F7BDC
:10117000FC0120830000DF91CF910895CF93DF938E
:10118000CDB7DEB76E970FB6F894DEBF0FBECDBFFA
:101190000E94440900008FE290E0DC018C918823DA
:1011A000D4F782EB90E0FC01108287E390E021E02D
:1011B000DC012C9310922F0210922E0200008FE27D
:1011C00090E0FC0180818823D4F380912E029091DD
:1011D0002F029A83898389819A819C01990F440BFC
:1011E000550B2F87388B498B5A8B6F857889898966
:1011F0009A890E94130F6B837C838D839E832FE6D5
:1012000032E143E05CE36B817C818D819E810E94B1
:10121000C80F6B8B7C8B8D8B9E8B8B899C89AD894A
:10122000BE898F839887A987BA8720E030E84BEA88
:1012300053E46F81788589859A850E94C80F6F8BEA
:10124000788F898F9A8F2F89388D498D5A8D2B876A
:101250003C874D875E876B857C858D859E850E944A
:10126000DB0E6B8F7C8F8D8F9E8F4B8D5C8D5A83A9
:10127000498389819A816E960FB6F894DEBF0FBEBE
:10128000CDBFDF91CF910895CF93DF93CDB7DEB778
:10129000C059D1090FB6F894DEBF0FBECDBF8BE0A9
:1012A00091E0DC012C918BE091E02F7BFC0120830D
:1012B00080E090E0A0E0B0E489A39AA3ABA3BCA334
:1012C0002BEA3AEA4AEA50E469A17AA18BA19CA1EF
:1012D0000E94C80F2D966CAF7DAF8EAF9FAF2D973C
:1012E0002D968CAD9DADAEADBFAD2D978DA39EA3BC
:1012F000AFA3B8A720E030E040E850E469A17AA1AC
:101300008BA19CA10E94C80F61966CAF7DAF8EAF80
:101310009FAF619761968CAD9DADAEADBFAD61974E
:1013200089A79AA7ABA7BCA720E030E040E85FE31D
:101330006DA17EA18FA198A50E94640E88231CF444
:1013400081E08DA7FFC020E03FEF4FE757E469A59C
:101350007AA58BA59CA50E94C30F882309F00CF4E5
:10136000B6C020E030E04AE754E469A17AA18BA13D
:101370009CA10E94690E65966CAF7DAF8EAF9FAF4A
:10138000659765968CAD9DADAEADBFAD65978EA7EB
:101390009FA7A8ABB9AB20E030E04AE755E46EA5C3
:1013A0007FA588A999A90E94C80F69966CAF7DAFE7
:1013B0008EAF9FAF699769968CAD9DADAEADBFAD59
:1013C00069978AAB9BABACABBDAB20E030E040E8AB
:1013D0005FE36AA97BA98CA99DA90E94640E88235A
:1013E0002CF481E090E09FAB8EAB66C020E03FEF35
:1013F0004FE757E46AA97BA98CA99DA90E94C30F56
:10140000882309F00CF446C020E030E040E251E4CB
:101410006EA57FA588A999A90E94C80F6D966CAF8B
:101420007DAF8EAF9FAF6D976D968CAD9DADAEAD20
:10143000BFAD6D9729968CAF9DAFAEAFBFAF29976B
:1014400029966CAD7DAD8EAD9FAD29970E94E20EC1
:10145000A1966CAF7DAF8EAF9FAFA1976F96AEADEB
:10146000BFAD6F97BFABAEAB10C080E991E099AF55
:1014700088AF88AD99AD0197F1F799AF88AF0000BB
:101480008EA99FA901979FAB8EAB8EA99FA90097AC
:1014900061F758C06AA97BA98CA99DA90E94E20E98
:1014A000A5966CAF7DAF8EAF9FAFA597A396EEAD1F
:1014B000FFADA397FFABEEAB8EA99FA99BAF8AAF01
:1014C0008AAD9BAD0197F1F79BAF8AAF3BC020E09F
:1014D00030E04FE753E46DA17EA18FA198A50E9453
:1014E000C30F8823F9F0F4F069A57AA58BA59CA514
:1014F0000E94E20EA9966CAF7DAF8EAF9FAFA99709
:10150000A7968EAD9FADA7979DAF8CAF8CAD9DADCF
:101510009FAF8EAF8EAD9FAD0197F1F79FAF8EAFAE
:10152000000024C06DA17EA18FA198A50E94E20EAB
:10153000AD966CAF7DAF8EAF9FAFAD97AA969FADC6
:10154000AA979DA72DA5CE01805C9F4FDC012C930F
:10155000CE01805C9F4FFC018081282F2A95F1F7F6
:10156000CE01805C9F4FDC012C9300008BE091E06A
:10157000FC0120818BE091E02064DC012C9380E071
:1015800090E0A0E2B1E489839A83AB83BC832BEA29
:101590003AEA4AEA50E469817A818B819C810E940F
:1015A000C80FE1966CAF7DAF8EAF9FAFE197E1962C
:1015B0008CAD9DADAEADBFADE1978D839E83AF8306
:1015C000B88720E030E040E850E469817A818B817F
:1015D0009C810E94C80FE5966CAF7DAF8EAF9FAF28
:1015E000E597E5968CAD9DADAEADBFADE59789872E
:1015F0009A87AB87BC8720E030E040E85FE36D81ED
:101600007E818F8198850E94640E88231CF481E07E
:101610008D8713C120E03FEF4FE757E469857A8556
:101620008B859C850E94C30F882309F00CF4C2C0EF
:1016300020E030E04AE754E469817A818B819C8123
:101640000E94690EE9966CAF7DAF8EAF9FAFE997B0
:10165000E9968CAD9DADAEADBFADE9978E879F8706
:10166000A88BB98B20E030E04AE755E46E857F8592
:10167000888999890E94C80FED966CAF7DAF8EAFB7
:101680009FAFED97ED968CAD9DADAEADBFADED9737
:101690008A8B9B8BAC8BBD8B20E030E040E85FE316
:1016A0006A897B898C899D890E94640E88232CF429
:1016B00081E090E09F8B8E8B72C020E03FEF4FE780
:1016C00057E46A897B898C899D890E94C30F88238E
:1016D00009F00CF44EC020E030E040E251E46E85A9
:1016E0007F85888999890E94C80FC358DF4F688316
:1016F00079838A839B83CD57D040C358DF4F88813D
:101700009981AA81BB81CD57D04025968CAF9DAFE2
:10171000AEAFBFAF259725966CAD7DAD8EAD9FADBD
:1017200025970E94E20ECF57DF4F688379838A8323
:101730009B83C158D040CF57DF4FA881B981C15892
:10174000D040BF8BAE8B10C080E991E0998F888F1D
:10175000888D998D0197F1F7998F888F00008E8978
:101760009F8901979F8B8E8B8E899F89009761F748
:1017700064C06A897B898C899D890E94E20ECB575F
:10178000DF4F688379838A839B83C558D040CB57CA
:10179000DF4FE881F981C558D040FF8BEE8B8E89F1
:1017A0009F899B8F8A8F8A8D9B8D0197F1F79B8FE5
:1017B0008A8F43C020E030E04FE753E46D817E81A3
:1017C0008F8198850E94C30F882319F114F16985D0
:1017D0007A858B859C850E94E20EC757DF4F688310
:1017E00079838A839B83C958D040C757DF4F88814C
:1017F0009981C958D0409D8F8C8F8C8D9D8D9F8FE6
:101800008E8F8E8D9F8D0197F1F79F8F8E8F0000A9
:101810001BC06D817E818F8198850E94E20EC35727
:10182000DF4F688379838A839B83CD58D040C35729
:10183000DF4F9881CD58D0409D878D8588A388A1A2
:101840008A95F1F788A300008BE091E0DC012C91F0
:101850008BE091E02F7BFC0120830000C057DF4F1D
:101860000FB6F894DEBF0FBECDBFDF91CF910895C4
:101870001F920F920FB60F9211248F939F93CF93C5
:10188000DF93CDB7DEB780912E0290912F020196A3
:1018900090932F0280932E020000DF91CF919F91B1
:1018A0008F910F900FBE0F901F901895CF93DF93DD
:1018B000CDB7DEB781E091E0FC01208181E091E0CD
:1018C0002062FC01208381E091E0FC01208181E025
:1018D00091E02061FC01208383E390E0FC01208102
:1018E00083E390E02062FC01208382E091E0FC0130
:1018F000208182E091E02F7EFC01208384E390E050
:10190000FC01208184E390E02F7DFC012083000016
:10191000DF91CF910895CF93DF9300D00F920F9274
:10192000CDB7DEB78D831A82198239C08D81082E1A
:10193000000C990B817099279C838B838D818595F1
:101940008D838B819C81009751F082E091E0FC01B6
:10195000208182E091E02062FC01208309C082E0C6
:1019600091E0FC01208182E091E02F7DFC01208349
:1019700082E091E0FC01208182E091E02061FC01A5
:10198000208382E091E0FC01208182E091E02F7EC3
:10199000FC01208389819A8101969A8389838981B8
:1019A0009A818730910511F208F2000000000F9033
:1019B0000F900F900F900F90DF91CF910895CF93DC
:1019C000DF930F920F92CDB7DEB79A83898380E1C0
:1019D00090E0098002C0880F991F0A94E2F70E94E4
:1019E0008B0C00000F900F90DF91CF910895CF9353
:1019F000DF9300D0CDB7DEB789837B836A8389818B
:101A00000E948B0C8A819B810E94DF0C84E390E012
:101A1000FC01208184E390E02062FC01208384E3C8
:101A200090E0FC01208184E390E02F7DFC01208385
:101A300000000F900F900F90DF91CF910895CF93FA
:101A4000DF93CDB7DEB7A6970FB6F894DEBF0FBE13
:101A5000CDBF9A8B898B1A821982CCC049895A8949
:101A60009A01ADECBCEC0E94330E9C013695279593
:101A70003695279536952795C901880F991F880FA8
:101A8000991F820F931F880F991F9A01281B390BEA
:101A9000C901880F991F80509E4FDC018D919C9148
:101AA000282F89819A81BC01822F0E94F70C898995
:101AB0009A899C01ADECBCEC0E94330E96958795FB
:101AC00096958795969587959A8B898B80E090E07F
:101AD000A0E8BFE38B839C83AD83BE8320E030E02E
:101AE0004AE755E46B817C818D819E810E94C80FFD
:101AF0006F8B788F898F9A8F8F89988DA98DBA8DEA
:101B00008F839887A987BA8720E030E040E85FE3B9
:101B10006F81788589859A850E94640E88232CF4CC
:101B200081E090E09C878B8755C020E03FEF4FE736
:101B300057E46F81788589859A850E94C30F882331
:101B4000D9F1D4F120E030E040E251E46B817C81B6
:101B50008D819E810E94C80F6B8F7C8F8D8F9E8F91
:101B60008B8D9C8DAD8DBE8D8B8B9C8BAD8BBE8BF1
:101B70006B897C898D899E890E94E20E6F8F78A384
:101B800089A39AA3AF8DB8A1BC87AB8710C080E9A9
:101B900091E09E878D878D859E850197F1F79E87C1
:101BA0008D8700008B859C8501979C878B878B8513
:101BB0009C85009761F719C06F81788589859A8522
:101BC0000E94E20E6BA37CA38DA39EA3EBA1FCA1BC
:101BD000FC87EB878B859C85988B8F878F85988971
:101BE0000197F1F7988B8F87000089819A81019680
:101BF0009A83898389819A818330910509F00CF455
:101C00002DCF00000000A6960FB6F894DEBF0FBEE1
:101C1000CDBFDF91CF910895052E97FB1EF4009460
:101C20000E94230E57FD07D00E94420E07FC03D0EE
:101C30004EF40C94230E50954095309521953F4FCE
:101C40004F4F5F4F089590958095709561957F4FA8
:101C50008F4F9F4F0895EE0FFF1F881F8BBF079078
:101C6000F691E02D1994A29FB001B39FC001A39FEC
:101C7000700D811D1124911DB29F700D811D1124C5
:101C8000911D0895A1E21A2EAA1BBB1BFD010DC0D8
:101C9000AA1FBB1FEE1FFF1FA217B307E407F5071C
:101CA00020F0A21BB30BE40BF50B661F771F881FF8
:101CB000991F1A9469F760957095809590959B018E
:101CC000AC01BD01CF0108950E944E0F08F481E0E0
:101CD00008950E947D0E0C94890F0E94820F58F087
:101CE0000E947B0F40F029F45F3F29F00C94720FA3
:101CF00051110C94BD0F0C94780F0E949A0F68F349
:101D00009923B1F3552391F3951B550BBB27AA27B4
:101D100062177307840738F09F5F5F4F220F331FEE
:101D2000441FAA1FA9F335D00E2E3AF0E0E832D0B6
:101D300091505040E695001CCAF72BD0FE2F29D0B9
:101D4000660F771F881FBB1F261737074807AB078B
:101D5000B0E809F0BB0B802DBF01FF2793585F4F00
:101D60003AF09E3F510578F00C94720F0C94BD0F21
:101D70005F3FE4F3983ED4F3869577956795B795E2
:101D8000F7959F5FC9F7880F911D9695879597F9ED
:101D90000895E1E0660F771F881FBB1F6217730766
:101DA0008407BA0720F0621B730B840BBA0BEE1F7B
:101DB00088F7E09508950E94E20E6894B1110C94A2
:101DC000BD0F08950E94A20F88F09F5798F0B92F79
:101DD0009927B751B0F0E1F0660F771F881F991F60
:101DE0001AF0BA95C9F714C0B13091F00E94BC0F37
:101DF000B1E008950C94BC0F672F782F8827B85F47
:101E000039F0B93FCCF3869577956795B395D9F7B7
:101E10003EF490958095709561957F4F8F4F9F4FC1
:101E20000895E89409C097FB3EF4909580957095CD
:101E300061957F4F8F4F9F4F9923A9F0F92F96E916
:101E4000BB279395F695879577956795B795F1118B
:101E5000F8CFFAF4BB0F11F460FF1BC06F5F7F4F28
:101E60008F4F9F4F16C0882311F096E911C077233A
:101E700021F09EE8872F762F05C0662371F096E843
:101E8000862F70E060E02AF09A95660F771F881F12
:101E9000DAF7880F9695879597F90895990F0008B6
:101EA000550FAA0BE0E8FEEF16161706E807F9072C
:101EB000C0F012161306E407F50798F0621B730BC7
:101EC000840B950B39F40A2661F0232B242B252B48
:101ED00021F408950A2609F4A140A6958FEF811DEB
:101EE000811D089597F99F6780E870E060E008958C
:101EF0009FEF80EC089500240A9416161706180622
:101F00000906089500240A941216130614060506FD
:101F10000895092E0394000C11F4882352F0BB0F8E
:101F200040F4BF2B11F460FF04C06F5F7F4F8F4FF1
:101F30009F4F089557FD9058440F551F59F05F3F2C
:101F400071F04795880F97FB991F61F09F3F79F0DB
:101F500087950895121613061406551FF2CF46955D
:101F6000F1DF08C0161617061806991FF1CF8695DF
:101F70007105610508940895E894BB2766277727C3
:101F8000CB0197F908950E944E0F08F48FEF089542
:101F90000E94DB0F0C94890F0E947B0F38F00E9487
:101FA000820F20F0952311F00C94720F0C94780F8F
:101FB00011240C94BD0F0E949A0F70F3959FC1F3EA
:101FC000950F50E0551F629FF001729FBB27F00DE7
:101FD000B11D639FAA27F00DB11DAA1F649F66273C
:101FE000B00DA11D661F829F2227B00DA11D621F8B
:101FF000739FB00DA11D621F839FA00D611D221F45
:10200000749F3327A00D611D231F849F600D211D28
:10201000822F762F6A2F11249F5750409AF0F1F0AB
:1020200088234AF0EE0FFF1FBB1F661F771F881F14
:1020300091505040A9F79E3F510580F00C94720FCB
:102040000C94BD0F5F3FE4F3983ED4F386957795EB
:102050006795B795F795E7959F5FC1F7FE2B880FBA
:10206000911D9695879597F90895F894FFCF0905E6
:10207000370565058D05CB05010630066A061A078A
:02208000270730
:1020820003FF9FFF25FF0DFF99FF49FF41FF1FFF40
:1020920001FF09FF11FFC1FF63FF85FF61FF71FFB0
:00000001FF
