:100000000C9486000C949A000C949A000C949A001C
:100010000C949A000C949A000C949A000C949A00F8
:100020000C949A000C949A000C949A000C949A00E8
:100030000C949A000C949A000C949A000C94890ADF
:100040000C949A000C94BD030C949A000C949A00A2
:100050000C9492030C949A000C949A000C9438041B
:100060000C949A000C949C000C949A000C949A00A6
:100070000C949A000C949A000C949A000C949A0098
:100080000C9410040C949A000C949A000C94E503C0
:100090000C949A000C949A000C949A000C949A0078
:1000A0000C949A000C949A000C949A000C949A0068
:1000B0000C949A000C9456040C949A000C949A0098
:1000C0000C949A000C949A000C949A000C949A0048
:1000D0000C949A000C949A000C949A000C949A0038
:1000E0000C949A000C94BE050C9477060C94990518
:1000F0000C9448060C9412060C9474050C94B106EA
:100100000C9460070C946D070C94DD0511241FBE40
:10011000CFEFD1E2DEBFCDBF00E00CBF22E0A0E018
:10012000B2E001C01D92A031B207E1F70E948C0439
:100130000C94C10C0C9400001F920F920FB60F92FA
:1001400011240BB60F928F939F93EF93FF93CF934E
:10015000DF93CDB7DEB786EC90E0FC018081882F7D
:1001600090E09093010280930002809102029091AE
:100170000302009751F480910202909103020196CC
:10018000909303028093020204C010920302109223
:1001900002020000DF91CF91FF91EF919F918F912B
:1001A0000F900BBE0F900FBE0F901F901895CF931E
:1001B000DF93CDB7DEB785EC90E0FC01108284ECD4
:1001C00090E027E6FC01208381EC90E028EDFC0123
:1001D000208382EC90E026E0FC01208378940000EC
:1001E000DF91CF910895CF93DF93CDB7DEB782E251
:1001F00090E0FC01208182E290E02F7BFC012083D3
:1002000082E290E0FC01208182E290E02062FC0129
:10021000208382E290E0FC01208182E290E0206174
:10022000FC01208382E290E0FC01208182E290E0E8
:10023000277FFC0120830000DF91CF910895CF93A9
:10024000DF93CDB7DEB782E290E0FC01208182E24D
:1002500090E02064FC01208382E290E0FC01208198
:1002600082E290E02F7DFC01208382E290E0FC019D
:10027000208182E290E02F7EFC01208382E290E0E8
:10028000FC01208182E290E02860FC0120830000D4
:10029000DF91CF910895CF93DF93CDB7DEB782E2A0
:1002A00090E0FC01208182E290E02F7DFC01208320
:1002B00082E290E0FC01208182E290E02064FC0177
:1002C000208382E290E0FC01208182E290E0277F9F
:1002D000FC01208382E290E0FC01208182E290E038
:1002E0002061FC0120830000DF91CF910895CF931E
:1002F000DF93CDB7DEB782E290E0FC01208182E29D
:1003000090E02062FC01208382E290E0FC012081E9
:1003100082E290E02F7BFC01208382E290E0FC01EE
:10032000208182E290E02860FC01208382E290E05C
:10033000FC01208182E290E02F7EFC0120830000FE
:10034000DF91CF910895CF93DF93CDB7DEB7C4543B
:10035000D1090FB6F894DEBF0FBECDBF82E091E0A9
:10036000DC012C9182E091E02061FC01208382E09D
:1003700091E0DC012C9182E091E02F7DFC01208353
:1003800082E091E0DC012C9182E091E02860FC01A8
:10039000208380E090E0AAEFB3E48F87988BA98B4D
:1003A000BA8B20E030E04AE755E46F857889898987
:1003B0009A890E94540C6DA37EA38FA398A78DA148
:1003C0009EA1AFA1B8A58B8B9C8BAD8BBE8B20E083
:1003D00030E040E85FE36B897C898D899E890E94CB
:1003E000F00A88232CF481E090E0988F8F8B55C021
:1003F00020E03FEF4FE757E46B897C898D899E8928
:100400000E944F0C8823D9F1D4F120E030E040E283
:1004100051E46F85788989899A890E94540C69A76B
:100420007AA78BA79CA789A59AA5ABA5BCA589A3EC
:100430009AA3ABA3BCA369A17AA18BA19CA10E94A2
:100440006E0B6DA77EA78FA798ABADA5BEA5B88F85
:10045000AF8B10C080E991E09A8F898F898D9A8D3A
:100460000197F1F79A8F898F00008F89988D0197F6
:10047000988F8F8B8F89988D009761F719C06B8942
:100480007C898D899E890E946E0B69AB7AAB8BABA0
:100490009CABE9A9FAA9F88FEF8B8F89988D9C8F77
:1004A0008B8F8B8D9C8D0197F1F79C8F8B8F00002C
:1004B00082E091E0DC012C9182E091E02062FC017D
:1004C000208382E091E0DC012C9182E091E02F7E9C
:1004D000FC01208382E091E0DC012C9182E091E03C
:1004E000277FFC01208380E090E0AAEFB3E48983BA
:1004F0009A83AB83BC8320E030E04AE755E469810E
:100500007A818B819C810E94540C6DAB7EAB8FAB4A
:1005100098AF8DA99EA9AFA9B8AD8D839E83AF83F7
:10052000B88720E030E040E85FE36D817E818F8115
:1005300098850E94F00A88232CF481E090E09A8745
:1005400089875CC020E03FEF4FE757E46D817E81F3
:100550008F8198850E944F0C882309F00CF43CC0D1
:1005600020E030E040E251E469817A818B819C8116
:100570000E94540C69AF7AAF8BAF9CAF89AD9AAD36
:10058000ABADBCAD8D8F9E8FAF8FB8A36D8D7E8DC3
:100590008F8D98A10E946E0B21966CAF7DAF8EAFB0
:1005A0009FAF2197ADADBEADBA87A98710C080E9D6
:1005B00091E09C878B878B859C850197F1F79C87C1
:1005C0008B87000089859A8501979A878987898515
:1005D0009A85009761F71DC06D817E818F81988516
:1005E0000E946E0B25966CAF7DAF8EAF9FAF2597A7
:1005F0002396EEADFFAD2397FA87E98789859A8523
:100600009E878D878D859E850197F1F79E878D87C3
:1006100000000000CC5BDF4F0FB6F894DEBF0FBECA
:10062000CDBFDF91CF9108950F931F93CF93DF93A9
:1006300000D00F920F92CDB7DEB7898389818823CE
:100640003CF18981843609F01CF58981082E000C63
:10065000990BAA0BBB0BAC01332722272A833B83C0
:100660004C835D8304E610E020E030E06A817B810A
:100670008C819D81A90198010E94A70ADA01C90114
:10068000AC01BD0188E890E09A01FC013183208330
:1006900000000F900F900F900F900F90DF91CF916F
:1006A0001F910F9108950F931F93CF93DF9300D065
:1006B0000F920F92CDB7DEB78983898188233CF1F1
:1006C0008981843609F01CF58981082E000C990B6C
:1006D000AA0BBB0BAC01332722272A833B834C8315
:1006E0005D8304E610E020E030E06A817B818C814C
:1006F0009D81A90198010E94A70ADA01C901AC01F4
:10070000BD0188E990E09A01FC013183208300005B
:100710000F900F900F900F900F90DF91CF911F913E
:100720000F9108951F920F920FB60F9211240BB6DE
:100730000F922F933F938F939F93EF93FF93CF93BA
:10074000DF93CDB7DEB782E290E0FC01308182E238
:1007500090E020E82327FC0120830000DF91CF9167
:10076000FF91EF919F918F913F912F910F900BBE31
:100770000F900FBE0F901F9018951F920F920FB6FB
:100780000F9211240BB60F922F938F939F93EF9399
:10079000FF93CF93DF93CDB7DEB782E290E0FC0109
:1007A000208182E290E02068FC0120830000DF913C
:1007B000CF91FF91EF919F918F912F910F900BBE51
:1007C0000F900FBE0F901F9018951F920F920FB6AB
:1007D0000F9211240BB60F922F933F938F939F93F9
:1007E000EF93FF93CF93DF93CDB7DEB782E290E034
:1007F000FC01308182E290E024E02327FC01208389
:100800000000DF91CF91FF91EF919F918F913F91E8
:100810002F910F900BBE0F900FBE0F901F90189549
:100820001F920F920FB60F9211240BB60F922F93B7
:100830008F939F93EF93FF93CF93DF93CDB7DEB763
:1008400082E290E0FC01208182E290E02460FC01E1
:1008500020830000DF91CF91FF91EF919F918F91C5
:100860002F910F900BBE0F900FBE0F901F901895F9
:100870001F920F920FB60F9211248F939F93CF93D5
:10088000DF93CDB7DEB78091060290910702019603
:1008900090930702809306020000DF91CF919F9111
:1008A0008F910F900FBE0F901F9018951F920F926F
:1008B0000FB60F9211240BB60F928F939F93EF9365
:1008C000FF93CF93DF93CDB7DEB78091080290916D
:1008D00009028630910549F044F010920B02109203
:1008E0000A0281EA90E0FC01108280910802909156
:1008F0000902019690930902809308020000DF919B
:10090000CF91FF91EF919F918F910F900BBE0F9020
:100910000FBE0F901F901895CF93DF93CDB7DEB722
:10092000A6970FB6F894DEBF0FBECDBF0E94920708
:100930000E9474081A82198280910002909101022B
:100940008230910511F41A821982809100029091EF
:1009500001028630910521F481E090E09A83898339
:1009600080910002909101028730910521F483E685
:1009700090E09A83898386E290E0DC018C91882F55
:1009800090E080729927009751F086E290E0FC0198
:100990008081882F90E0807199270097D9F4809109
:1009A0000A0290910B028130910581F081E090E084
:1009B00090930B0280930A0281EA90E024E0DC012C
:1009C0002C9388E090E09A83898304C084E090E0CF
:1009D0009A83898389819A818930910509F0CCF4C1
:1009E00089819A8199230CF4A7CF89819A81092E54
:1009F000000CAA0BBB0B89309105A105B10511F0C4
:100A000008F09ACFFC018827ED53F34F8F4F0C94D9
:100A1000C60A89819A818336910509F08DCF83E6D4
:100A20000E94140383E60E94530380910602909172
:100A300007028E31910509F0DCF482E091E0FC01BF
:100A4000208182E091E0277FDC012C9382E091E01D
:100A5000FC01208182E091E02F7EDC012C9382E07A
:100A600091E0FC01208182E091E02F7DDC012C935C
:100A700080910602909107028D31910541F13CF180
:100A800082E091E0FC01208182E091E02860DC01BD
:100A90002C9382E091E0FC01208182E091E02061D2
:100AA000DC012C9382E091E0FC01208182E091E066
:100AB0002062DC012C9380910602909107028B3317
:100AC000910529F024F010920702109206028091FD
:100AD0000002909101028830910509F00FC282E076
:100AE00090E09A8389830AC282E091E0FC01208130
:100AF00082E091E02062DC012C9382E091E0FC0135
:100B0000208182E091E02F7EDC012C9383E60E941D
:100B1000530383E60E941403809100029091010226
:100B20008130910509F0ECC181E090E09A838983DE
:100B3000E7C182E091E0FC01208182E091E0206247
:100B4000DC012C9382E091E0FC01208182E091E0C5
:100B50002061DC012C9383E60E94530383E60E940C
:100B6000140380910002909101028330910509F0F5
:100B7000C9C182E090E09A838983C4C182E091E098
:100B8000FC01208182E091E02F7DDC012C9382E04A
:100B900091E0FC01208182E091E02061DC012C9356
:100BA00080910002909101028430910509F0ACC15E
:100BB00083E090E09A838983A7C182E091E0FC0101
:100BC000208182E091E02F7DDC012C9382E091E096
:100BD000FC01208182E091E02F7EDC012C9381E4F6
:100BE0000E94140381E40E9453030E94F30086E2F2
:100BF00090E0FC018081882F90E084709927009715
:100C000009F084C186E290E0DC018C91882F90E0AD
:100C100088709927009709F079C184E090E09A8361
:100C2000898374C10E94F30081E40E94140381E46B
:100C30000E94530386E290E0FC018081882F90E0BF
:100C400084709927009729F085E090E09A83898342
:100C50005FC186E290E0DC018C91882F90E0887083
:100C60009927009729F086E090E09A83898350C104
:100C700086E290E0FC018081882F90E084709927C3
:100C8000009709F445C186E290E0DC018C9140C1F7
:100C90008CE30E94140386E40E94530386E290E0F2
:100CA000FC018081882F90E084709927009779F467
:100CB00086E290E0DC018C91882F90E08870992783
:100CC000009729F484E090E09A83898323C186E227
:100CD00090E0FC018081882F90E084709927009734
:100CE00009F418C186E290E0DC018C9113C186E41E
:100CF0000E9414038CE30E94530386E290E0FC01FF
:100D00008081882F90E084709927009779F486E29B
:100D100090E0DC018C91882F90E0887099270097F3
:100D200029F484E090E09A838983F6C086E290E01B
:100D3000FC018081882F90E084709927009709F446
:100D4000EBC086E290E0DC018C91882F90E0887007
:100D50009927009709F4E0C087E090E09A8389839F
:100D6000DBC080E090E0AAEFB4E48D839E83AF8384
:100D7000B88720E030E04AE755E46D817E818F81BD
:100D800098850E94540C6F8B788F898F9A8F8F89EA
:100D9000988DA98DBA8D89879A87AB87BC8720E00B
:100DA00030E040E85FE369857A858B859C850E9409
:100DB000F00A88232CF481E090E09E878D8755C04F
:100DC00020E03FEF4FE757E469857A858B859C8566
:100DD0000E944F0C8823D9F1D4F120E030E040E2AA
:100DE00051E46D817E818F8198850E94540C6B8FB8
:100DF0007C8F8D8F9E8F8B8D9C8DAD8DBE8D8B8BC3
:100E00009C8BAD8BBE8B6B897C898D899E890E9462
:100E10006E0B6F8F78A389A39AA3AF8DB8A1BE87FD
:100E2000AD8710C080E991E0988B8F878F85988976
:100E30000197F1F7988B8F8700008D859E8501972C
:100E40009E878D878D859E85009761F719C069857E
:100E50007A858B859C850E946E0B6BA37CA38DA3EA
:100E60009EA3EBA1FCA1FE87ED878D859E859A8BC5
:100E7000898B89899A890197F1F79A8B898B000070
:100E80008CE30E94140386E40E94530386E290E000
:100E9000DC018C91882F90E088709927009709F0E9
:100EA0003DC086E290E0FC018081882F90E0847054
:100EB0009927009799F584E090E09A8389832EC062
:100EC00083E60E94140383E60E9453030E94A30159
:100ED00084E090E09A83898324C083E60E9414030F
:100EE00083E60E9453038B819C818E319105C1F072
:100EF000BCF084E090E09A83898312C000001CCD8E
:100F000000001ACD000018CD000016CD000014CD51
:100F1000000012CD000010CD00000ECD00000CCD61
:100F200000000ACDCF93DF93CDB7DEB70E94D70084
:100F3000789481E890E021E0FC0120838FE690E046
:100F400023E0FC01208388E890E0FC0111821082FC
:100F500081E990E021E0FC01208381E790E023E03B
:100F6000FC01208388E990E0FC011182108285E475
:100F700090E025E0FC0120838EE690E0FC012081DA
:100F80008EE690E02160FC01208382E790E0FC0186
:100F9000208182E790E02160FC01208381E290E0E3
:100FA000FC01208181E290E02068FC01208381E245
:100FB00090E0FC01208181E290E02064FC0120832C
:100FC00081E290E0FC01208181E290E02062FC015E
:100FD000208381E290E0FC01208181E290E02061A9
:100FE000FC01208381E290E0FC01208181E290E01D
:100FF0002860FC01208381E290E0FC01208181E2F5
:1010000090E02460FC01208382E290E0FC012081DA
:1010100082E290E02F77FC01208382E290E0FC01E5
:10102000208182E290E02F7BFC01208382E290E02D
:10103000FC01208182E290E02F7DFC01208382E28E
:1010400090E0FC01208182E290E02F7EFC01208371
:1010500082E290E0FC01208182E290E0277FFC01A7
:10106000208382E290E0FC01208182E290E02B7FED
:10107000FC01208381E091E0FC01208181E091E08E
:101080002063FC01208382E091E0FC01208182E06A
:1010900091E02F7CFC01208381E091E0FC01208124
:1010A00081E091E02860FC01208382E091E0FC0176
:1010B000208182E091E0277FFC01208380E390E0A3
:1010C000FC01208180E390E02D7FFC01208381E3FF
:1010D00090E0FC01208181E390E02260FC0120830C
:1010E0000000DF91CF910895CF93DF93CDB7DEB7A6
:1010F00083E290E0FC01208183E290E02062FC0129
:10110000208385E290E0FC01208185E290E02F7D44
:10111000FC01208380EB90E0FC01108281EB90E0E9
:10112000FC01208181EB90E02160FC01208380E7BD
:1011300090E021E0FC01208378940000DF91CF91C2
:101140000895CF93DF93CDB7DEB76E970FB6F894BF
:10115000DEBF0FBECDBF0E942F09000083E290E0EA
:10116000DC018C91882F90E0807199270097B1F372
:1011700082EB90E0FC01108287E390E021E0DC014B
:101180002C9310920F0210920E02000083E290E066
:10119000FC018081882F90E0807199270097B1F73A
:1011A00080910E0290910F029A83898389819A819E
:1011B0009C01990F440B550B2F87388B498B5A8B09
:1011C0006F85788989899A890E949F0B6B837C83BC
:1011D0008D839E832FE632E143E05CE36B817C816B
:1011E0008D819E810E94540C6B8B7C8B8D8B9E8B92
:1011F0008B899C89AD89BE898F839887A987BA8797
:1012000020E030E84BEA53E46F81788589859A8540
:101210000E94540C6F8B788F898F9A8F2F89388D0D
:10122000498D5A8D2B873C874D875E876B857C85E2
:101230008D859E850E94670B6B8F7C8F8D8F9E8F17
:101240004B8D5C8D5A83498389819A816E960FB646
:10125000F894DEBF0FBECDBFDF91CF910895CF933D
:10126000DF93CDB7DEB7C854D1090FB6F894DEBF0F
:101270000FBECDBF85E290E0DC012C9185E290E0CD
:101280002062FC01208380E090E0A0E2B1E4898349
:101290009A83AB83BC832BEA3AEA4AEA50E4698139
:1012A0007A818B819C810E94540C6DA37EA38FA3B5
:1012B00098A78DA19EA1AFA1B8A58D839E83AF8372
:1012C000B88720E030E040E850E469817A818B8182
:1012D0009C810E94540C69A77AA78BA79CA789A51B
:1012E0009AA5ABA5BCA589879A87AB87BC8720E068
:1012F00030E040E85FE36D817E818F8198850E94B8
:10130000F00A88231CF481E08D87E8C020E03FEFDD
:101310004FE757E469857A858B859C850E944F0C41
:10132000882309F00CF49FC020E030E04AE754E441
:1013300069817A818B819C810E94F50A6DA77EA7C5
:101340008FA798AB8DA59EA5AFA5B8A98E879F87BF
:10135000A88BB98B20E030E04AE755E46E857F85A5
:10136000888999890E94540C69AB7AAB8BAB9CAB92
:1013700089A99AA9ABA9BCA98A8B9B8BAC8BBD8B85
:1013800020E030E040E85FE36A897B898C899D89B1
:101390000E94F00A88232CF481E090E09F8B8E8BD2
:1013A00057C020E03FEF4FE757E46A897B898C897B
:1013B0009D890E944F0C8823D9F1D4F120E030E0C0
:1013C00040E251E46E857F85888999890E94540C9A
:1013D0006DAB7EAB8FAB98AF8DA99EA9AFA9B8AD11
:1013E00089A39AA3ABA3BCA369A17AA18BA19CA159
:1013F0000E946E0B69AF7AAF8BAF9CAFA9ADBAAD4F
:10140000BF8BAE8B10C080E991E0998F888F888D5B
:10141000998D0197F1F7998F888F00008E899F89A8
:1014200001979F8B8E8B8E899F89009761F756C09D
:101430006A897B898C899D890E946E0B21966CAF8D
:101440007DAF8EAF9FAF2197EDADFEADFF8BEE8BE5
:101450008E899F899B8F8A8F8A8D9B8D0197F1F74B
:101460009B8F8A8F3BC020E030E04FE753E46D81D3
:101470007E818F8198850E944F0C8823F9F0F4F0CB
:1014800069857A858B859C850E946E0B25966CAF4D
:101490007DAF8EAF9FAF259723968EAD9FAD2397DF
:1014A0009D8F8C8F8C8D9D8D9F8F8E8F8E8D9F8D20
:1014B0000197F1F79F8F8E8F000017C06D817E819D
:1014C0008F8198850E946E0B29966CAF7DAF8EAF91
:1014D0009FAF299726969FAD26979D878D8588A3D8
:1014E00088A18A95F1F788A3000085E290E0DC01ED
:1014F0002C9185E290E02F7DFC0120830000C85BE9
:10150000DF4F0FB6F894DEBF0FBECDBFDF91CF9196
:1015100008951F920F920FB60F9211248F939F93ED
:10152000CF93DF93CDB7DEB780910E0290910F027B
:10153000019690930F0280930E020000DF91CF91ED
:101540009F918F910F900FBE0F901F901895052EB1
:1015500097FB1EF400940E94BE0A57FD07D00E941C
:10156000CE0A07FC03D04EF40C94BE0A5095409569
:10157000309521953F4F4F4F5F4F0895909580953F
:10158000709561957F4F8F4F9F4F0895EE0FFF1F0E
:10159000881F8BBF0790F691E02D1994A1E21A2EB7
:1015A000AA1BBB1BFD010DC0AA1FBB1FEE1FFF1F07
:1015B000A217B307E407F50720F0A21BB30BE40B57
:1015C000F50B661F771F881F991F1A9469F760959E
:1015D0007095809590959B01AC01BD01CF01089558
:1015E0000E94DA0B08F481E008950E94090B0C9424
:1015F000150C0E940E0C58F00E94070C40F029F4C4
:101600005F3F29F00C94FE0B51110C94490C0C9483
:10161000040C0E94260C68F39923B1F3552391F32F
:10162000951B550BBB27AA2762177307840738F051
:101630009F5F5F4F220F331F441FAA1FA9F335D0AE
:101640000E2E3AF0E0E832D091505040E695001C62
:10165000CAF72BD0FE2F29D0660F771F881FBB1F1C
:10166000261737074807AB07B0E809F0BB0B802DFA
:10167000BF01FF2793585F4F3AF09E3F510578F026
:101680000C94FE0B0C94490C5F3FE4F3983ED4F3AA
:10169000869577956795B795F7959F5FC9F7880FFA
:1016A000911D9695879597F90895E1E0660F771F4C
:1016B000881FBB1F621773078407BA0720F0621BDD
:1016C000730B840BBA0BEE1F88F7E09508950E9408
:1016D0006E0B6894B1110C94490C08950E942E0C65
:1016E00088F09F5798F0B92F9927B751B0F0E1F0E3
:1016F000660F771F881F991F1AF0BA95C9F714C093
:10170000B13091F00E94480CB1E008950C94480C5F
:10171000672F782F8827B85F39F0B93FCCF38695CB
:1017200077956795B395D9F73EF490958095709528
:1017300061957F4F8F4F9F4F0895E89409C097FBA5
:101740003EF490958095709561957F4F8F4F9F4F98
:101750009923A9F0F92F96E9BB279395F6958795DC
:1017600077956795B795F111F8CFFAF4BB0F11F49F
:1017700060FF1BC06F5F7F4F8F4F9F4F16C0882346
:1017800011F096E911C0772321F09EE8872F762F7C
:1017900005C0662371F096E8862F70E060E02AF0BD
:1017A0009A95660F771F881FDAF7880F96958795A9
:1017B00097F90895990F0008550FAA0BE0E8FEEF7E
:1017C00016161706E807F907C0F012161306E40705
:1017D000F50798F0621B730B840B950B39F40A26FE
:1017E00061F0232B242B252B21F408950A2609F4DC
:1017F000A140A6958FEF811D811D089597F99F67E0
:1018000080E870E060E008959FEF80EC0895002488
:101810000A941616170618060906089500240A9455
:1018200012161306140605060895092E0394000CDB
:1018300011F4882352F0BB0F40F4BF2B11F460FF6A
:1018400004C06F5F7F4F8F4F9F4F089557FD905893
:10185000440F551F59F05F3F71F04795880F97FB74
:10186000991F61F09F3F79F087950895121613062E
:101870001406551FF2CF4695F1DF08C0161617065D
:101880001806991FF1CF8695710561050894089592
:10189000E894BB2766277727CB0197F908950E9424
:1018A000DA0B08F48FEF08950E94670C0C94150C66
:1018B0000E94070C38F00E940E0C20F0952311F0C6
:1018C0000C94FE0B0C94040C11240C94490C0E94F3
:1018D000260C70F3959FC1F3950F50E0551F629F42
:1018E000F001729FBB27F00DB11D639FAA27F00D79
:1018F000B11DAA1F649F6627B00DA11D661F829FA0
:101900002227B00DA11D621F739FB00DA11D621F84
:10191000839FA00D611D221F749F3327A00D611DA1
:10192000231F849F600D211D822F762F6A2F112483
:101930009F5750409AF0F1F088234AF0EE0FFF1FB6
:10194000BB1F661F771F881F91505040A9F79E3F0D
:10195000510580F00C94FE0B0C94490C5F3FE4F3AE
:10196000983ED4F3869577956795B795F795E79563
:101970009F5FC1F7FE2B880F911D9695879597F96C
:101980000895F894FFCF74059905BE05DD0512068C
:0A19900048067706B10660076D07F0
:00000001FF
