:100000000C9484000C9498000C9498000C94980024
:100010000C9498000C9498000C9498000C94980000
:100020000C9498000C9498000C9498000C949800F0
:100030000C9498000C9498000C9498000C949800E0
:100040000C9498000C940B030C9498000C9498005A
:100050000C94E0020C9498000C9498000C94860385
:100060000C9498000C949A000C9498000C949800AE
:100070000C9498000C9498000C9498000C949800A0
:100080000C945E030C9498000C9498000C94330329
:100090000C9498000C9498000C9498000C94980080
:1000A0000C9498000C9498000C9498000C94980070
:1000B0000C9498000C9498000C9498000C94980060
:1000C0000C9498000C9498000C9498000C94980050
:1000D0000C9498000C9498000C9498000C94980040
:1000E0000C9498000C94A0050C9480040C943C058E
:1000F0000C94A0040C944A060C94E1040C9464043F
:100100000C9493040C946E0511241FBECFEFD1E222
:10011000DEBFCDBF00E00CBF22E0A0E0B2E001C036
:100120001D92A830B207E1F70E94A4030C949B082B
:100130000C9400001F920F920FB60F9211240BB671
:100140000F928F939F93EF93FF93CF93DF93CDB74E
:10015000DEB786EC90E0FC018081882F90E09093E0
:1001600001028093000280910202909103020097A5
:1001700051F4809102029091030201969093030240
:100180008093020204C01092030210920202000047
:10019000DF91CF91FF91EF919F918F910F900BBEC7
:1001A0000F900FBE0F901F901895CF93DF93CDB790
:1001B000DEB785EC90E0FC01108284EC90E027E64D
:1001C000FC01208381EC90E028EDFC01208382EC8F
:1001D00090E026E0FC01208378940000DF91CF912D
:1001E0000895CF93DF93CDB7DEB7C454D1090FB6CE
:1001F000F894DEBF0FBECDBF82E091E0DC012C9110
:1002000082E091E02061FC01208382E091E0DC014A
:100210002C9182E091E02F7DFC01208382E091E02F
:10022000DC012C9182E091E02860FC01208380E0D9
:1002300090E0AAEFB3E48F87988BA98BBA8B20E06C
:1002400030E04AE755E46F85788989899A890E9468
:1002500006086DA37EA38FA398A78DA19EA1AFA131
:10026000B8A58B8B9C8BAD8BBE8B20E030E040E83B
:100270005FE36B897C898D899E890E948007882332
:100280002CF481E090E0988F8F8B55C020E03FEFF9
:100290004FE757E46B897C898D899E890E9401080C
:1002A0008823D9F1D4F120E030E040E251E46F85B9
:1002B000788989899A890E94060869A77AA78BA7F5
:1002C0009CA789A59AA5ABA5BCA589A39AA3ABA316
:1002D000BCA369A17AA18BA19CA10E9485076DA7EF
:1002E0007EA78FA798ABADA5BEA5B88FAF8B10C06A
:1002F00080E991E09A8F898F898D9A8D0197F1F726
:100300009A8F898F00008F89988D0197988F8F8B96
:100310008F89988D009761F719C06B897C898D89C9
:100320009E890E94850769AB7AAB8BAB9CABE9A930
:10033000FAA9F88FEF8B8F89988D9C8F8B8F8B8D7F
:100340009C8D0197F1F79C8F8B8F000082E091E0EC
:10035000DC012C9182E091E02062FC01208382E0AC
:1003600091E0DC012C9182E091E02F7EFC01208362
:1003700082E091E0DC012C9182E091E0277FFC019A
:10038000208380E090E0AAEFB3E489839A83AB8373
:10039000BC8320E030E04AE755E469817A818B81B3
:1003A0009C810E9406086DAB7EAB8FAB98AF8DA988
:1003B0009EA9AFA9B8AD8D839E83AF83B88720E097
:1003C00030E040E85FE36D817E818F8198850E94F7
:1003D000800788232CF481E090E09A8789875CC0AD
:1003E00020E03FEF4FE757E46D817E818F81988554
:1003F0000E940108882309F00CF43CC020E030E0A2
:1004000040E251E469817A818B819C810E940608D7
:1004100069AF7AAF8BAF9CAF89AD9AADABADBCADD8
:100420008D8F9E8FAF8FB8A36D8D7E8D8F8D98A190
:100430000E94850721966CAF7DAF8EAF9FAF21974D
:10044000ADADBEADBA87A98710C080E991E09C87A9
:100450008B878B859C850197F1F79C878B870000A4
:1004600089859A8501979A87898789859A850097D2
:1004700061F71DC06D817E818F8198850E948507FF
:1004800025966CAF7DAF8EAF9FAF25972396EEADCF
:10049000FFAD2397FA87E98789859A859E878D879F
:1004A0008D859E850197F1F79E878D87000000005E
:1004B000CC5BDF4F0FB6F894DEBF0FBECDBFDF9130
:1004C000CF9108950F931F93CF93DF9300D00F9296
:1004D0000F92CDB7DEB78983898188233CF189816A
:1004E000843609F01CF58981082E000C990BAA0BA3
:1004F000BB0BAC01332722272A833B834C835D83CC
:1005000004E610E020E030E06A817B818C819D81EF
:10051000A90198010E943707DA01C901AC01BD01A8
:1005200088E890E09A01FC013183208300000F905D
:100530000F900F900F900F90DF91CF911F910F911F
:1005400008950F931F93CF93DF9300D00F920F92D4
:10055000CDB7DEB78983898188233CF189818436D0
:1005600009F01CF58981082E000C990BAA0BBB0B16
:10057000AC01332722272A833B834C835D8304E627
:1005800010E020E030E06A817B818C819D81A901AF
:1005900098010E943707DA01C901AC01BD0188E961
:1005A00090E09A01FC013183208300000F900F90AE
:1005B0000F900F900F90DF91CF911F910F910895A1
:1005C0001F920F920FB60F9211240BB60F922F931A
:1005D0003F938F939F93EF93FF93CF93DF93CDB789
:1005E000DEB782E290E0FC01308182E290E020E818
:1005F0002327FC0120830000DF91CF91FF91EF9131
:100600009F918F913F912F910F900BBE0F900FBE36
:100610000F901F9018951F920F920FB60F921124F2
:100620000BB60F922F938F939F93EF93FF93CF93DC
:10063000DF93CDB7DEB782E290E0FC01208182E259
:1006400090E02068FC0120830000DF91CF91FF91B2
:10065000EF919F918F912F910F900BBE0F900FBE36
:100660000F901F9018951F920F920FB60F921124A2
:100670000BB60F922F933F938F939F93EF93FF931C
:10068000CF93DF93CDB7DEB782E290E0FC013081FB
:1006900082E290E024E02327FC0120830000DF9128
:1006A000CF91FF91EF919F918F913F912F910F905B
:1006B0000BBE0F900FBE0F901F9018951F920F92B8
:1006C0000FB60F9211240BB60F922F938F939F9317
:1006D000EF93FF93CF93DF93CDB7DEB782E290E045
:1006E000FC01208182E290E02460FC012083000074
:1006F000DF91CF91FF91EF919F918F912F910F906B
:100700000BBE0F900FBE0F901F9018951F920F9267
:100710000FB60F9211248F939F93CF93DF93CDB792
:10072000DEB780910602909107020196909307022E
:10073000809306020000DF91CF919F918F910F90DF
:100740000FBE0F901F901895CF93DF93CDB7DEB7F4
:10075000A4970FB6F894DEBF0FBECDBF0E945E0611
:100760001A82198281E091E0DC012C9181E091E014
:100770002064FC01208382E091E0DC012C9182E086
:1007800091E02F7BFC012083809100029091010277
:100790008230910511F41A821982809100029091A1
:1007A00001028630910521F481E090E09A838983EB
:1007B00089819A818830910509F0BCF489819A81F8
:1007C000992314F389819A81092E000CAA0BBB0B83
:1007D00088309105A105B10509F0B0F6FC01882724
:1007E000E356F74F8F4F0C94560789819A818336D1
:1007F000910551F680910602909107028E31910584
:1008000009F0DCF482E091E0DC012C9182E091E0DF
:10081000277FFC01208382E091E0DC012C9182E0C3
:1008200091E02F7EFC01208382E091E0DC012C919D
:1008300082E091E02F7DFC0120838091060290915F
:1008400007028D31910541F13CF182E091E0DC013C
:100850002C9182E091E02860FC01208382E091E00D
:10086000DC012C9182E091E02061FC01208382E098
:1008700091E0DC012C9182E091E02062FC01208378
:1008800080910602909107028B33910529F024F0A4
:1008900010920702109206028091000290910102CC
:1008A0008830910509F0F8C180E390E0DC018C917B
:1008B000882F90E082709927009709F4EDC182E0BB
:1008C00090E09A838983E8C182E091E0FC01208175
:1008D00082E091E02F7BDC012C9383E60E94620290
:1008E00083E60E94A1028091000290910102813072
:1008F000910509F0D3C181E090E09A838983CEC14C
:1009000083E60E94620283E60E94A10280910002B7
:10091000909101028330910509F0C2C182E090E01C
:100920009A838983BDC18091000290910102843035
:10093000910509F0B7C183E090E09A838983B2C141
:1009400084E10E94620284E10E94A10282E290E0BE
:10095000FC01208182E290E02064DC012C9382E2A1
:1009600090E0FC01208182E290E02F7DDC012C935D
:1009700082E290E0FC01208182E290E02F7EDC01A7
:100980002C9382E290E0FC01208182E290E02860DA
:10099000DC012C9383E290E0FC01808188230CF43D
:1009A00083C183E290E0DC018C91882F90E0807419
:1009B0009927009709F078C184E090E09A838983B1
:1009C00073C182E290E0FC01208182E290E0206429
:1009D000DC012C9382E290E0FC01208182E290E035
:1009E0002F7DDC012C9382E290E0FC01208182E2E9
:1009F00090E02F7EDC012C9382E290E0FC012081CC
:100A000082E290E02860DC012C9384E10E94620283
:100A100084E10E94A10283E290E0FC0180818823AE
:100A20002CF485E090E09A83898340C183E290E0D2
:100A3000DC018C91882F90E080749927009729F031
:100A400086E090E09A83898331C183E290E0FC01E3
:100A5000808188230CF02AC183E290E0DC018C9134
:100A6000882F90E080749927009709F41FC187E0D0
:100A700090E09A8389831AC18DE20E94620287E323
:100A80000E94A10283E290E0FC01808188237CF037
:100A900083E290E0DC018C91882F90E080749927AC
:100AA000009729F484E090E09A83898301C183E26E
:100AB00090E0FC01808188230CF0FAC083E290E092
:100AC000DC018C91882F90E080749927009709F4BD
:100AD000EFC087E090E09A838983EAC087E30E94B1
:100AE00062028DE20E94A10283E290E0FC0180811B
:100AF00088237CF083E290E0DC018C91882F90E0E9
:100B000080749927009729F484E090E09A83898380
:100B1000D1C083E290E0FC01808188230CF0CAC040
:100B200083E290E0DC018C91882F90E0807499271B
:100B3000009709F4BFC087E090E09A838983BAC028
:100B400080E090E0AAEFB4E48B839C83AD83BE8306
:100B500020E030E04AE755E46B817C818D819E8105
:100B60000E9406086D8B7E8B8F8B988F8D899E8956
:100B7000AF89B88D8F839887A987BA8720E030E046
:100B800040E85FE36F81788589859A850E948007B8
:100B900088232CF481E090E09C878B8755C020E06F
:100BA0003FEF4FE757E46F81788589859A850E94EA
:100BB00001088823D9F1D4F120E030E040E251E48B
:100BC0006B817C818D819E810E940608698F7A8F5E
:100BD0008B8F9C8F898D9A8DAB8DBC8D898B9A8BD9
:100BE000AB8BBC8B69897A898B899C890E9485072C
:100BF0006D8F7E8F8F8F98A3AD8DBE8DBC87AB8799
:100C000010C080E991E09E878D878D859E85019734
:100C1000F1F79E878D8700008B859C8501979C87C7
:100C20008B878B859C85009761F719C06F817885CC
:100C300089859A850E94850769A37AA38BA39CA3C3
:100C4000E9A1FAA1FC87EB878B859C85988B8F8720
:100C50008F8598890197F1F7988B8F8700008DE237
:100C60000E94620287E30E94A10283E290E0DC011D
:100C70008C91882F90E0807499270097E9F483E2A3
:100C800090E0FC0180818823BCF084E090E09A83AE
:100C9000898312C0000078CD000076CD000074CDAD
:100CA000000072CD000070CD00006ECD00006CCD54
:100CB00000006ACD000068CD000066CDCF93DF93C1
:100CC000CDB7DEB70E94D500789481E890E021E0AE
:100CD000FC0120838FE690E023E0FC01208388E87C
:100CE00090E0FC011182108281E990E021E0FC019A
:100CF000208381E790E023E0FC01208388E990E0F5
:100D0000FC011182108285E490E025E0FC01208343
:100D10008EE690E0FC0120818EE690E02160FC01EF
:100D2000208381E290E0FC01208181E290E0206854
:100D3000FC01208381E290E0FC01208181E290E0CF
:100D40002064FC01208381E290E0FC01208181E2AB
:100D500090E02062FC01208381E290E0FC01208190
:100D600081E290E02061FC01208381E290E0FC01BF
:100D7000208181E290E02860FC01208381E290E004
:100D8000FC01208181E290E02460FC01208382E26A
:100D900090E0FC01208182E290E02F77FC0120832B
:100DA00082E290E0FC01208182E290E02F7BFC0156
:100DB000208382E290E0FC01208182E290E02F7D9E
:100DC000FC01208382E290E0FC01208182E290E03D
:100DD0002F7EFC01208382E290E0FC01208182E2F0
:100DE00090E0277FFC01208382E290E0FC012081DB
:100DF00082E290E02B7FFC01208381E091E0FC0106
:100E0000208181E091E02063FC01208382E091E079
:100E1000FC01208182E091E02F7CFC01208381E0B5
:100E200091E0FC01208181E091E02860FC012083B9
:100E300082E091E0FC01208182E091E0277FFC01CB
:100E4000208380E390E0FC01208180E390E02D7F0F
:100E5000FC01208381E390E0FC01208181E390E0AC
:100E60002260FC0120830000DF91CF910895052EC0
:100E700097FB1EF400940E944E0757FD07D00E9476
:100E80005E0707FC03D04EF40C944E075095409536
:100E9000309521953F4F4F4F5F4F08959095809526
:100EA000709561957F4F8F4F9F4F0895EE0FFF1FF5
:100EB000881F8BBF0790F691E02D1994A1E21A2E9E
:100EC000AA1BBB1BFD010DC0AA1FBB1FEE1FFF1FEE
:100ED000A217B307E407F50720F0A21BB30BE40B3E
:100EE000F50B661F771F881F991F1A9469F7609585
:100EF0007095809590959B01AC01BD01CF0108953F
:100F00000E94B40708F481E008950E94E00788F089
:100F10009F5798F0B92F9927B751B0F0E1F0660FBD
:100F2000771F881F991F1AF0BA95C9F714C0B130FE
:100F300091F00E94FA07B1E008950C94FA07672F28
:100F4000782F8827B85F39F0B93FCCF3869577952D
:100F50006795B395D9F73EF4909580957095619516
:100F60007F4F8F4F9F4F0895990F0008550FAA0B81
:100F7000E0E8FEEF16161706E807F907C0F01216AC
:100F80001306E407F50798F0621B730B840B950BAF
:100F900039F40A2661F0232B242B252B21F4089504
:100FA0000A2609F4A140A6958FEF811D811D0895A1
:100FB00057FD9058440F551F59F05F3F71F047950A
:100FC000880F97FB991F61F09F3F79F087950895EF
:100FD000121613061406551FF2CF4695F1DF08C00E
:100FE000161617061806991FF1CF8695710561052B
:100FF00008940895E894BB2766277727CB0197F9D3
:1010000008950E94B40708F48FEF08950E9419080C
:101010000C948A080E947C0838F00E94830820F013
:10102000952311F00C9473080C94790811240C94F6
:10103000FB070E94D80770F3959FC1F3950F50E00E
:10104000551F629FF001729FBB27F00DB11D639F7A
:10105000AA27F00DB11DAA1F649F6627B00DA11D20
:10106000661F829F2227B00DA11D621F739FB00DC6
:10107000A11D621F839FA00D611D221F749F332736
:10108000A00D611D231F849F600D211D822F762FCF
:101090006A2F11249F5750409AF0F1F088234AF0AC
:1010A000EE0FFF1FBB1F661F771F881F9150504018
:1010B000A9F79E3F510580F00C9473080C94FB0730
:1010C0005F3FE4F3983ED4F3869577956795B7959F
:1010D000F795E7959F5FC1F7FE2B880F911D9695B9
:1010E000879597F9089597F99F6780E870E060E029
:1010F00008959FEF80EC089500240A9416161706B1
:1011000018060906089500240A94121613061406F8
:1011100005060895092E0394000C11F4882352F05B
:10112000BB0F40F4BF2B11F460FF04C06F5F7F4F13
:101130008F4F9F4F0895F894FFCF64048004930469
:0C114000A004E1043C056E05A0054A0671
:00000001FF
