:100000000C9472000C947E000C947E000C947E0084
:100010000C947E000C947E000C947E000C947E0068
:100020000C947E000C947E000C947E000C947E0058
:100030000C947E000C947E000C947E000C947E0048
:100040000C947E000C947E000C947E000C947E0038
:100050000C947E000C947E000C947E000C947E0028
:100060000C947E000C947E000C947E000C947E0018
:100070000C947E000C947E000C947E000C947E0008
:100080000C947E000C947E000C947E000C947E00F8
:100090000C947E000C947E000C947E000C947E00E8
:1000A0000C947E000C947E000C947E000C947E00D8
:1000B0000C947E000C947E000C947E000C947E00C8
:1000C0000C947E000C947E000C947E000C947E00B8
:1000D0000C947E000C947E000C947E000C947E00A8
:1000E0000C947E0011241FBECFEFD1E2DEBFCDBF46
:1000F00000E00CBF0E9450020C94DE040C9400003F
:10010000CF93DF93CDB7DEB781E091E0FC01208192
:1001100081E091E0277EFC01208382E091E0FC01F8
:10012000208182E091E0277EFC0120830000DF91A6
:10013000CF910895CF93DF93CDB7DEB78DE290E0F6
:10014000FC0120818DE290E02063FC0120838EE29F
:1001500090E0FC0120818EE290E02F7CFC01208366
:100160008DE290E0FC0120818DE290E02860FC01AE
:1001700020838EE290E0FC0120818EE290E0277FD8
:10018000FC0120830000DF91CF910895CF93DF938E
:10019000CDB7DEB70E9480000E949A000000DF9178
:1001A000CF910895CF93DF93CDB7DEB7C654D10971
:1001B0000FB6F894DEBF0FBECDBF9E8F8D8F8D8D95
:1001C0009E8D8130910509F05DC18EE290E0DC01E9
:1001D0002C918EE290E02062FC0120838EE290E080
:1001E000DC012C918EE290E02F7EFC0120838EE2D8
:1001F00090E0DC012C918EE290E02860FC012083ED
:1002000080E090E0AAE7B4E48F87988BA98BBA8B43
:1002100020E030E04AE755E46F85788989899A893A
:100220000E9449046FA378A789A79AA78FA198A5D0
:10023000A9A5BAA58B8B9C8BAD8BBE8B20E030E043
:1002400040E85FE36B897C898D899E890E94C303A6
:1002500088232CF481E090E0988F8F8B55C020E0AC
:100260003FEF4FE757E46B897C898D899E890E9417
:1002700044048823D9F1D4F120E030E040E251E495
:100280006F85788989899A890E9449046BA77CA720
:100290008DA79EA78BA59CA5ADA5BEA58BA39CA352
:1002A000ADA3BEA36BA17CA18DA19EA10E94C8039A
:1002B0006FA778AB89AB9AABAFA5B8A9B88FAF8B56
:1002C00010C080E991E09A8F898F898D9A8D01976E
:1002D000F1F79A8F898F00008F89988D0197988FF9
:1002E0008F8B8F89988D009761F719C06B897C89F6
:1002F0008D899E890E94C8036BAB7CAB8DAB9EAB96
:10030000EBA9FCA9F88FEF8B8F89988D9C8F8B8F31
:100310008B8D9C8D0197F1F79C8F8B8F00008EE267
:1003200090E0DC012C918EE290E02061FC012083C2
:100330008EE290E0DC012C918EE290E02F7DFC01BA
:1003400020838EE290E0DC012C918EE290E0277F0A
:10035000FC01208380E090E0AAE7B4E489839A83DB
:10036000AB83BC8320E030E04AE755E469817A81C1
:100370008B819C810E9449046FAB78AF89AF9AAFA3
:100380008FA998ADA9ADBAAD8D839E83AF83B88791
:1003900020E030E040E85FE36D817E818F819885C9
:1003A0000E94C30388232CF481E090E09A87898718
:1003B0005EC020E03FEF4FE757E46D817E818F8183
:1003C00098850E944404882309F00CF43EC020E084
:1003D00030E040E251E469817A818B819C810E9406
:1003E00049046BAF7CAF8DAF9EAF8BAD9CADADAD17
:1003F000BEAD8F8F98A3A9A3BAA36F8D78A189A151
:100400009AA10E94C80323966CAF7DAF8EAF9FAFB9
:1004100023972196AEADBFAD2197BA87A98710C0AB
:1004200080E991E09C878B878B859C850197F1F70C
:100430009C878B87000089859A8501979A87898791
:1004400089859A85009761F720C06D817E818F81B3
:1004500098850E94C80327966CAF7DAF8EAF9FAF83
:1004600027972596EEADFFAD2597FA87E987898511
:100470009A859E878D878D859E850197F1F79E874A
:100480008D8703C01E8E1D8E00000000CA5BDF4FEB
:100490000FB6F894DEBF0FBECDBFDF91CF910895A8
:1004A000CF93DF93CDB7DEB7C854D1090FB6F89418
:1004B000DEBF0FBECDBF0E94C60080E091E0DC0130
:1004C0008C91882F90E088709927009709F0A1C03F
:1004D00080E090E0A0EAB1E48D839E83AF83B8878B
:1004E00020E030E04AE755E46D817E818F81988578
:1004F0000E94490469A77AA78BA79CA789A59AA5FA
:10050000ABA5BCA589879A87AB87BC8720E030E084
:1005100040E85FE369857A858B859C850E94C303EB
:1005200088232CF481E090E09E878D8755C020E0E1
:100530003FEF4FE757E469857A858B859C850E945C
:1005400044048823D9F1D4F120E030E040E251E4C2
:100550006D817E818F8198850E9449046DA77EA759
:100560008FA798AB8DA59EA5AFA5B8A989A39AA37F
:10057000ABA3BCA369A17AA18BA19CA10E94C803D3
:1005800069AB7AAB8BAB9CABA9A9BAA9BE87AD8787
:1005900010C080E991E0988B8F878F8598890197AB
:1005A000F1F7988B8F8700008D859E8501979E8738
:1005B0008D878D859E85009761F719C069857A853D
:1005C0008B859C850E94C8036DAB7EAB8FAB98AFCB
:1005D000EDA9FEA9FE87ED878D859E859A8B898B77
:1005E00089899A890197F1F79A8B898B00001A8281
:1005F000198209C081E090E00E94D20089819A812D
:1006000001969A83898389819A818930910591F332
:100610008CF380E091E0DC018C91882F90E0807178
:100620009927009709F049CF80E090E0A0EAB1E473
:100630008B8B9C8BAD8BBE8B20E030E04AE755E482
:100640006B897C898D899E890E94490469AF7AAF44
:100650008BAF9CAF89AD9AADABADBCAD8F8B988F96
:10066000A98FBA8F20E030E040E85FE36F89788D92
:10067000898D9A8D0E94C30388232CF481E090E039
:100680009C8F8B8F62C020E03FEF4FE757E46F896C
:10069000788D898D9A8D0E944404882309F00CF48A
:1006A00042C020E030E040E251E46B897C898D89D2
:1006B0009E890E94490421966CAF7DAF8EAF9FAF9B
:1006C000219721968CAD9DADAEADBFAD21978DA389
:1006D0009EA3AFA3B8A76DA17EA18FA198A50E94EC
:1006E000C80325966CAF7DAF8EAF9FAF259723963D
:1006F000AEADBFAD2397BC8FAB8F10C080E991E04A
:100700009E8F8D8F8D8D9E8D0197F1F79E8F8D8F92
:1007100000008B8D9C8D01979C8F8B8F8B8D9C8D7A
:10072000009761F71DC06F89788D898D9A8D0E9421
:10073000C80329966CAF7DAF8EAF9FAF29972796E0
:10074000EEADFFAD2797FC8FEB8F8B8D9C8D98A323
:100750008F8F8F8D98A10197F1F798A38F8F00004D
:100760001C821B8209C081E090E00E94D2008B8134
:100770009C8101969C838B838B819C818930910520
:1007800091F38CF39ACE0E94F70308F481E0089568
:100790000E94230488F09F5798F0B92F9927B751EA
:1007A000B0F0E1F0660F771F881F991F1AF0BA9515
:1007B000C9F714C0B13091F00E943D04B1E0089532
:1007C0000C943D04672F782F8827B85F39F0B93F24
:1007D000CCF3869577956795B395D9F73EF49095C8
:1007E0008095709561957F4F8F4F9F4F0895990F1A
:1007F0000008550FAA0BE0E8FEEF16161706E807EB
:10080000F907C0F012161306E407F50798F0621B0B
:10081000730B840B950B39F40A2661F0232B242BE0
:10082000252B21F408950A2609F4A140A6958FEFFF
:10083000811D811D089557FD9058440F551F59F093
:100840005F3F71F04795880F97FB991F61F09F3FBD
:1008500079F087950895121613061406551FF2CFE6
:100860004695F1DF08C0161617061806991FF1CF36
:1008700086957105610508940895E894BB2766275D
:100880007727CB0197F908950E94F70308F48FEFBB
:1008900008950E945C040C94CD040E94BF0438F0BB
:1008A0000E94C60420F0952311F00C94B6040C9419
:1008B000BC0411240C943E040E941B0470F3959F09
:1008C000C1F3950F50E0551F629FF001729FBB2747
:1008D000F00DB11D639FAA27F00DB11DAA1F649FE3
:1008E0006627B00DA11D661F829F2227B00DA11D96
:1008F000621F739FB00DA11D621F839FA00D611D1C
:10090000221F749F3327A00D611D231F849F600D3C
:10091000211D822F762F6A2F11249F5750409AF065
:10092000F1F088234AF0EE0FFF1FBB1F661F771FF1
:10093000881F91505040A9F79E3F510580F00C94BC
:10094000B6040C943E045F3FE4F3983ED4F38695DE
:1009500077956795B795F795E7959F5FC1F7FE2B5C
:10096000880F911D9695879597F9089597F99F6738
:1009700080E870E060E008959FEF80EC0895002427
:100980000A941616170618060906089500240A94F4
:1009900012161306140605060895092E0394000C7A
:1009A00011F4882352F0BB0F40F4BF2B11F460FF09
:1009B00004C06F5F7F4F8F4F9F4F0895F894FFCF14
:00000001FF
