:100000000C9472000C948B000C948B000C948B005D
:100010000C948B000C948B000C948B000C948B0034
:100020000C948B000C948B000C948B000C948B0024
:100030000C948B000C948B000C948B000C948B0014
:100040000C948B000C9404080C948B000C948B0083
:100050000C94D9070C948B000C948B000C948B009F
:100060000C948B000C948B000C948B000C948B00E4
:100070000C948B000C948B000C948B000C948B00D4
:100080000C9457080C948B000C948B000C942C0847
:100090000C948B000C948B000C948B000C948B00B4
:1000A0000C948B000C948B000C948B000C948B00A4
:1000B0000C948B000C948B000C948B000C948B0094
:1000C0000C948B000C948B000C948B000C948B0084
:1000D0000C948B000C948B000C948B000C948B0074
:1000E0000C948B0011241FBECFEFD1E2DEBFCDBF39
:1000F00000E00CBF12E0A0E0B2E0EEEEF8E100E0BC
:100100000BBF02C007900D92A433B107D9F70E942C
:100110007F080C94750C0C9400000F931F93CF93E1
:10012000DF93CDB7DEB7C25BD1090FB6F894DEBF5F
:100130000FBECDBF8AE091E0DC012C918AE091E016
:100140002760FC0120839E012F5B3F4F80E090E001
:10015000A0E7B1E4F90180839183A283B3838E0188
:100160000B5B1F4FCE018F5B9F4F20E030E04AE7D3
:1001700055E4DC016D917D918D919C910E94080C5C
:100180006F966CAF7DAF8EAF9FAF6F976F968CAD54
:100190009DADAEADBFAD6F97F80180839183A28313
:1001A000B383CE018B5B9F4F20E030E040E85FE3FC
:1001B000DC016D917D918D919C910E94E80A8823CC
:1001C0004CF4CE01875B9F4F21E030E0FC0131838E
:1001D000208395C0CE018B5B9F4F20E03FEF4FE720
:1001E00057E4DC016D917D918D919C910E94030CEF
:1001F000882309F00CF469C0CE018F5B9F4F20E08B
:1002000030E040E251E4FC016081718182819381A0
:100210000E94080CA3966CAF7DAF8EAF9FAFA397E3
:10022000A3968CAD9DADAEADBFADA3976B968CAFD5
:100230009DAFAEAFBFAF6B978E01075B1F4F6B9645
:100240006CAD7DAD8EAD9FAD6B970E945F0BA79699
:100250006CAF7DAF8EAF9FAFA797A596EEADFFAD0C
:10026000A597D8011196FC93EE9326C0CE01855B2D
:100270009F4F20E931E0DC012D933C93CE01855B5B
:100280009F4FFC01808191810197F1F79E01255BD1
:100290003F4FD9018D939C930000CE01875B9F4F08
:1002A0009E01275B3F4FF9012081318121503109A7
:1002B000DC0111963C932E93CE01875B9F4FFC018E
:1002C00080819181009791F635C08E01075B1F4FA9
:1002D000CE018B5B9F4FDC016D917D918D919C9147
:1002E0000E945F0BAB966CAF7DAF8EAF9FAFAB97AD
:1002F000A9968EAD9FADA997F80191838083CE0119
:10030000835B9F4F9E01275B3F4FD9012D913C910D
:10031000FC0131832083CE01835B9F4FDC018D91F3
:100320009C910197F1F79E01235B3F4FF901918367
:10033000808300000E94A10688E30E94180680E0E6
:1003400090E0A8E4B2E489A39AA3ABA3BCA32BEAF0
:100350003AEA4AEA50E469A17AA18BA19CA10E94E1
:10036000080CAF966CAF7DAF8EAF9FAFAF97AF96D7
:100370008CAD9DADAEADBFADAF978DA39EA3AFA32A
:10038000B8A720E030E040E850E469A17AA18BA151
:100390009CA10E94080CE3966CAF7DAF8EAF9FAF1F
:1003A000E397E3968CAD9DADAEADBFADE39789A766
:1003B0009AA7ABA7BCA720E030E040E85FE36DA1BF
:1003C0007EA18FA198A50E94E80A88231CF481E0F1
:1003D0008DA70FC120E03FEF4FE757E469A57AA54D
:1003E0008BA59CA50E94030C882309F00CF4BEC0C9
:1003F00020E030E04AE754E469A17AA18BA19CA1F6
:100400000E94ED0AE7966CAF7DAF8EAF9FAFE79786
:10041000E7968CAD9DADAEADBFADE7978EA79FA71C
:10042000A8ABB9AB20E030E04AE755E46EA57FA564
:1004300088A999A90E94080CEB966CAF7DAF8EAF8E
:100440009FAFEB97EB968CAD9DADAEADBFADEB978F
:100450008AAB9BABACABBDAB20E030E040E85FE3E8
:100460006AA97BA98CA99DA90E94E80A88232CF47B
:1004700081E090E09FAB8EAB6EC020E03FEF4FE796
:1004800057E46AA97BA98CA99DA90E94030C882323
:1004900009F00CF44AC020E030E040E251E46EA5DF
:1004A0007FA588A999A90E94080CEF966CAF7DAF33
:1004B0008EAF9FAFEF97EF968CAD9DADAEADBFAD5C
:1004C000EF9767968CAF9DAFAEAFBFAF679767965C
:1004D0006CAD7DAD8EAD9FAD67970E945F0BC1582F
:1004E000DF4F688379838A839B83CF57D040C1587D
:1004F000DF4FA881B981CF57D040BFABAEAB10C0A2
:1005000080E991E099AF88AF88AD99AD0197F1F797
:1005100099AF88AF00008EA99FA901979FAB8EABC2
:100520008EA99FA9009761F764C06AA97BA98CA9CD
:100530009DA90E945F0BCD57DF4F688379838A8323
:100540009B83C358D040CD57DF4FE881F981C35812
:10055000D040FFABEEAB8EA99FA99BAF8AAF8AAD0F
:100560009BAD0197F1F79BAF8AAF43C020E030E02D
:100570004FE753E46DA17EA18FA198A50E94030CC3
:10058000882319F114F169A57AA58BA59CA50E9471
:100590005F0BC957DF4F688379838A839B83C75872
:1005A000D040C957DF4F88819981C758D0409DAF4F
:1005B0008CAF8CAD9DAD9FAF8EAF8EAD9FAD0197D3
:1005C000F1F79FAF8EAF000028C06DA17EA18FA173
:1005D00098A50E945F0BC557DF4F688379838A8394
:1005E0009B83CB58D040C557DF4F9881CB58D04024
:1005F0009DA72DA5CE01805C9F4FDC012C93CE01E1
:10060000805C9F4FFC018081282F2A95F1F7CE0155
:10061000805C9F4FDC012C9300008CE00E94180648
:1006200080E090E0A8E4B2E489839A83AB83BC8342
:100630002BEA3AEA4AEA50E469817A818B819C810B
:100640000E94080CC157DF4F688379838A839B839C
:10065000CF58D040C157DF4F88819981AA81BB8193
:10066000CF58D0408D839E83AF83B88720E030E0A1
:1006700040E850E469817A818B819C810E94080C5A
:10068000CD56DF4F688379838A839B83C359D040DB
:10069000CD56DF4F88819981AA81BB81C359D04053
:1006A00089879A87AB87BC8720E030E040E85FE32A
:1006B0006D817E818F8198850E94E80A88231CF4D1
:1006C00081E08D871BC120E03FEF4FE757E469854C
:1006D0007A858B859C850E94030C882309F00CF495
:1006E000CAC020E030E04AE754E469817A818B8116
:1006F0009C810E94ED0AC956DF4F688379838A8303
:100700009B83C759D040C956DF4F88819981AA8100
:10071000BB81C759D0408E879F87A88BB98B20E0BB
:1007200030E04AE755E46E857F85888999890E9483
:10073000080CC556DF4F688379838A839B83CB5926
:10074000D040C556DF4F88819981AA81BB81CB59A2
:10075000D0408A8B9B8BAC8BBD8B20E030E040E897
:100760005FE36A897B898C899D890E94E80A8823D6
:100770002CF481E090E09F8B8E8B72C020E03FEFE5
:100780004FE757E46A897B898C899D890E94030C15
:10079000882309F00CF44EC020E030E040E251E440
:1007A0006E857F85888999890E94080CC156DF4F24
:1007B000688379838A839B83CF59D040C156DF4FAA
:1007C00088819981AA81BB81CF59D04063968CAF33
:1007D0009DAFAEAFBFAF639763966CAD7DAD8EAD91
:1007E0009FAD63970E945F0BCD55DF4F6883798380
:1007F0008A839B83C35AD040CD55DF4FA881B981EE
:10080000C35AD040BF8BAE8B10C080E991E0998F66
:10081000888F888D998D0197F1F7998F888F0000C7
:100820008E899F8901979F8B8E8B8E899F890097D8
:1008300061F764C06A897B898C899D890E945F0BFE
:10084000C955DF4F688379838A839B83C75AD04019
:10085000C955DF4FE881F981C75AD040FF8BEE8B35
:100860008E899F899B8F8A8F8A8D9B8D0197F1F747
:100870009B8F8A8F43C020E030E04FE753E46D81C7
:100880007E818F8198850E94030C882319F114F1D1
:1008900069857A858B859C850E945F0BC555DF4FE6
:1008A000688379838A839B83CB5AD040C555DF4FB9
:1008B00088819981CB5AD0409D8F8C8F8C8D9D8D56
:1008C0009F8F8E8F8E8D9F8D0197F1F79F8F8E8FCB
:1008D00000001BC06D817E818F8198850E945F0B17
:1008E000C155DF4F688379838A839B83CF5AD04079
:1008F000C155DF4F9881CF5AD0409D878D8588A301
:1009000088A18A95F1F788A300000000CE54DF4F3C
:100910000FB6F894DEBF0FBECDBFDF91CF911F9110
:100920000F910895CF93DF93CDB7DEB787E290E0C4
:10093000FC0110828BE091E0FC0120818BE091E0D2
:100940002260FC0120838BE091E0FC0120818BE0A0
:1009500091E02E7FFC01208302C00E94BE0488E249
:1009600090E0FC0180818823C4F387E290E02FEFC0
:10097000FC0120830000DF91CF910895CF93DF9396
:10098000CDB7DEB7C854D1090FB6F894DEBF0FBE9D
:10099000CDBF8BE091E0DC012C918BE091E02460F5
:1009A000FC01208380E090E0A8E4B2E489839A838C
:1009B000AB83BC832BEA3AEA4AEA50E469817A8144
:1009C0008B819C810E94080C6DA37EA38FA398A7A6
:1009D0008DA19EA1AFA1B8A58D839E83AF83B8875B
:1009E00020E030E040E850E469817A818B819C818D
:1009F0000E94080C69A77AA78BA79CA789A59AA52E
:100A0000ABA5BCA589879A87AB87BC8720E030E07F
:100A100040E85FE36D817E818F8198850E94E80ABE
:100A200088231CF481E08D87E8C020E03FEF4FE78A
:100A300057E469857A858B859C850E94030C882301
:100A400009F00CF49FC020E030E04AE754E46981EB
:100A50007A818B819C810E94ED0A6DA77EA78FA76A
:100A600098AB8DA59EA5AFA5B8A98E879F87A88BAB
:100A7000B98B20E030E04AE755E46E857F858889B0
:100A800099890E94080C69AB7AAB8BAB9CAB89A9A6
:100A90009AA9ABA9BCA98A8B9B8BAC8BBD8B20E0A0
:100AA00030E040E85FE36A897B898C899D890E94F8
:100AB000E80A88232CF481E090E09F8B8E8B57C04E
:100AC00020E03FEF4FE757E46A897B898C899D8955
:100AD0000E94030C8823D9F1D4F120E030E040E2F9
:100AE00051E46E857F85888999890E94080C6DABD9
:100AF0007EAB8FAB98AF8DA99EA9AFA9B8AD89A3E6
:100B00009AA3ABA3BCA369A17AA18BA19CA10E94CB
:100B10005F0B69AF7AAF8BAF9CAFA9ADBAADBF8B9E
:100B2000AE8B10C080E991E0998F888F888D998D68
:100B30000197F1F7998F888F00008E899F8901971F
:100B40009F8B8E8B8E899F89009761F756C06A892B
:100B50007B898C899D890E945F0B21966CAF7DAF4C
:100B60008EAF9FAF2197EDADFEADFF8BEE8B8E89E3
:100B70009F899B8F8A8F8A8D9B8D0197F1F79B8F21
:100B80008A8F3BC020E030E04FE753E46D817E81E7
:100B90008F8198850E94030C8823F9F0F4F0698511
:100BA0007A858B859C850E945F0B25966CAF7DAF07
:100BB0008EAF9FAF259723968EAD9FAD23979D8FC8
:100BC0008C8F8C8D9D8D9F8F8E8F8E8D9F8D01979D
:100BD000F1F79F8F8E8F000017C06D817E818F810E
:100BE00098850E945F0B29966CAF7DAF8EAF9FAF4B
:100BF000299726969FAD26979D878D8588A388A1E6
:100C00008A95F1F788A300008BE091E0DC012C913C
:100C10008BE091E02B7FFC0120830000C85BDF4F5D
:100C20000FB6F894DEBF0FBECDBFDF91CF91089510
:100C3000CF93DF930F92CDB7DEB789830E949204E2
:100C400088E290E02981FC0120838BE091E0FC01A7
:100C500020818BE091E02C7FFC0120830E94BE0468
:100C600088E290E0FC01108200000F90DF91CF91AC
:100C70000895CF93DF930F92CDB7DEB789830E949B
:100C8000920488E290E02981FC0120838BE091E0CE
:100C9000FC0120818BE091E02D7FFC0120838BE023
:100CA00091E0FC0120818BE091E02160FC01208338
:100CB0000E94BE0488E290E0FC01108200000F90C8
:100CC000DF91CF910895CF93DF930F920F92CDB71D
:100CD000DEB79A8389830BC089819A819C012F5F3B
:100CE0003F4F3A832983FC0180810E943906898124
:100CF0009A81FC018081882309F074F700000000CC
:100D00000F900F90DF91CF910895CF93DF930F92C3
:100D10000F92CDB7DEB789836A838A81882F90E0EE
:100D2000019780509E4FFC018081982F8981890F07
:100D300081580E94180600000F900F90DF91CF910C
:100D40000895CF93DF93CDB7DEB7A2970FB6F8948F
:100D5000DEBF0FBECDBF81E00E94180680E090E0AC
:100D6000A0E0B0E489839A83AB83BC8320E030E0C9
:100D70004AE755E469817A818B819C810E94080C45
:100D80006B8B7C8B8D8B9E8B8B899C89AD89BE896F
:100D90008D839E83AF83B88720E030E040E85FE337
:100DA0006D817E818F8198850E94E80A88232CF4CA
:100DB00081E090E09A87898755C020E03FEF4FE7B8
:100DC00057E46D817E818F8198850E94030C882372
:100DD000D9F1D4F120E030E040E251E469817A8138
:100DE0008B819C810E94080C6F8B788F898F9A8FE2
:100DF0008F89988DA98DBA8D8F87988BA98BBA8B87
:100E00006F85788989899A890E945F0B6B8F7C8FA7
:100E10008D8F9E8FAB8DBC8DBA87A98710C080E95E
:100E200091E09C878B878B859C850197F1F79C8748
:100E30008B87000089859A8501979A87898789859C
:100E40009A85009761F719C06D817E818F819885A1
:100E50000E945F0B6F8F78A389A39AA38F8D98A1AF
:100E60009A87898789859A859E878D878D859E85B6
:100E70000197F1F79E878D8700000000A2960FB6BC
:100E8000F894DEBF0FBECDBFDF91CF910895CF9311
:100E9000DF93CDB7DEB781E890E021E0FC0120834D
:100EA0008FE690E023E0FC01208388E890E0FC01DD
:100EB0001182108281E990E021E0FC01208381E72A
:100EC00090E023E0FC01208388E990E0FC0111829E
:100ED000108281E290E0FC01208181E290E02068B4
:100EE000FC01208381E290E0FC01208181E290E01E
:100EF0002064FC01208381E290E0FC01208181E2FA
:100F000090E02062FC01208381E290E0FC012081DE
:100F100081E290E02061FC01208381E290E0FC010D
:100F2000208181E290E02860FC01208381E290E052
:100F3000FC01208181E290E02460FC01208382E2B8
:100F400090E0FC01208182E290E02F77FC01208379
:100F500082E290E0FC01208182E290E02F7BFC01A4
:100F6000208382E290E0FC01208182E290E02F7DEC
:100F7000FC01208382E290E0FC01208182E290E08B
:100F80002F7EFC01208382E290E0FC01208182E23E
:100F900090E0277FFC01208382E290E0FC01208129
:100FA00082E290E02B7FFC0120830000DF91CF9153
:100FB00008951F920F920FB60F9211240BB60F9245
:100FC0002F933F938F939F93EF93FF93CF93DF9351
:100FD000CDB7DEB782E290E0FC01308182E290E0A2
:100FE00020E82327FC0120830000DF91CF91FF91AF
:100FF000EF919F918F913F912F910F900BBE0F908A
:101000000FBE0F901F9018951F920F920FB60F9260
:1010100011240BB60F922F938F939F93EF93FF930F
:10102000CF93DF93CDB7DEB782E290E0FC01208161
:1010300082E290E02068FC0120830000DF91CF91E4
:10104000FF91EF919F918F912F910F900BBE0F9079
:101050000FBE0F901F9018951F920F920FB60F9210
:1010600011240BB60F922F933F938F939F93EF937F
:10107000FF93CF93DF93CDB7DEB782E290E0FC0120
:10108000308182E290E024E02327FC0120830000ED
:10109000DF91CF91FF91EF919F918F913F912F9190
:1010A0000F900BBE0F900FBE0F901F9018951F92C0
:1010B0000F920FB60F9211240BB60F922F938F93AE
:1010C0009F93EF93FF93CF93DF93CDB7DEB782E289
:1010D00090E0FC01208182E290E02460FC0120830A
:1010E0000000DF91CF91FF91EF919F918F912F9110
:1010F0000F900BBE0F900FBE0F901F901895CF93BF
:10110000DF93CDB7DEB7A4970FB6F894DEBF0FBE5E
:10111000CDBF0E94470778940E948D0083E090E045
:101120009A83898380E00E94290A80E00E94680AED
:1011300089819A818330910509F45CC089819A8103
:101140008330910511F00CF0A6C089819A8181301D
:10115000910531F089819A818230910531F19BC0EE
:1011600084E10E94290A80E50E94680A61E081E02A
:101170000E94850682E092E00E94630683E290E08E
:10118000DC018C9188230CF481C083E290E0FC01A7
:101190008081882F90E080749927009709F076C0AD
:1011A00083E090E09A83898371C080E50E94290AD8
:1011B00084E10E94680A61E081E00E9485068DE07A
:1011C00092E00E94630683E290E0DC018C91882328
:1011D0000CF45EC083E290E0FC018081882F90E0F7
:1011E00080749927009709F053C083E090E09A83B8
:1011F00089834EC082E30E94290A82E30E94680A22
:1012000061E081E00E94850689E192E00E94630628
:1012100082E290E0DC012C9182E290E02062FC010D
:10122000208382E290E0DC012C9182E290E02F7B2F
:10123000FC01208382E290E0DC012C9182E290E0CC
:10124000277FFC01208382E290E0DC012C9182E286
:1012500090E02061FC01208383E290E0DC018C912E
:1012600088232CF481E090E09A83898313C083E281
:1012700090E0FC018081882F90E08074992700978E
:1012800049F082E090E09A83898304C0000003C0A3
:10129000000001C0000062E081E00E94850683E258
:1012A00092E00E94630662E088E00E94850687E281
:1012B00092E00E94630689819A818130910589F4C8
:1012C00062E084E00E9485068BE292E00E94630661
:1012D00062E08BE00E9485068FE292E00E94630646
:1012E00026C089819A818230910589F462E084E088
:1012F0000E9485068FE292E00E94630662E08BE026
:101300000E9485068BE292E00E94630610C062E0B4
:1013100084E00E9485068FE292E00E94630662E00C
:101320008BE00E9485068FE292E00E94630680E0D7
:1013300090E0A0E2B1E48B839C83AD83BE8320E088
:1013400030E04AE755E46B817C818D819E810E946B
:10135000080C6D8B7E8B8F8B988F8D899E89AF89C2
:10136000B88D8F839887A987BA8720E030E040E85E
:101370005FE36F81788589859A850E94E80A8823D2
:101380002CF481E090E09C878B8755C020E03FEFF4
:101390004FE757E46F81788589859A850E94030C11
:1013A0008823D9F1D4F120E030E040E251E46B81B0
:1013B0007C818D819E810E94080C698F7A8F8B8F32
:1013C0009C8F898D9A8DAB8DBC8D898B9A8BAB8BC5
:1013D000BC8B69897A898B899C890E945F0B6D8F90
:1013E0007E8F8F8F98A3AD8DBE8DBC87AB8710C0CD
:1013F00080E991E09E878D878D859E850197F1F725
:101400009E878D8700008B859C8501979C878B87A5
:101410008B859C85009761F719C06F8178858985D8
:101420009A850E945F0B69A37AA38BA39CA3E9A171
:10143000FAA1FC87EB878B859C85988B8F878F859E
:1014400098890197F1F7988B8F8700000E94A10679
:101450006FCE0F931F93CF93DF9300D00F920F9215
:10146000CDB7DEB78983898188233CF189818436B1
:1014700009F01CF58981082E000C990BAA0BBB0BF7
:10148000AC01332722272A833B834C835D8304E608
:1014900010E020E030E06A817B818C819D81A90190
:1014A00098010E94A70ADA01C901AC01BD0188E8D0
:1014B00090E09A01FC013183208300000F900F908F
:1014C0000F900F900F90DF91CF911F910F91089582
:1014D0000F931F93CF93DF9300D00F920F92CDB74E
:1014E000DEB78983898188233CF18981843609F0BC
:1014F0001CF58981082E000C990BAA0BBB0BAC01C3
:10150000332722272A833B834C835D8304E610E044
:1015100020E030E06A817B818C819D81A901980166
:101520000E94A70ADA01C901AC01BD0188E990E077
:101530009A01FC013183208300000F900F900F90DF
:101540000F900F90DF91CF911F910F910895052E6D
:1015500097FB1EF400940E94BE0A57FD07D00E941C
:10156000C60A07FC03D04EF40C94BE0A5095409571
:10157000309521953F4F4F4F5F4F0895909580953F
:10158000709561957F4F8F4F9F4F0895A1E21A2E5E
:10159000AA1BBB1BFD010DC0AA1FBB1FEE1FFF1F17
:1015A000A217B307E407F50720F0A21BB30BE40B67
:1015B000F50B661F771F881F991F1A9469F76095AE
:1015C0007095809590959B01AC01BD01CF01089568
:1015D0000E948E0B08F481E008950E94010B0C9488
:1015E000C90B0E94C20B58F00E94BB0B40F029F4BB
:1015F0005F3F29F00C94B20B51110C94FD0B0C942D
:10160000B80B0E94DA0B68F39923B1F3552391F3D9
:10161000951B550BBB27AA2762177307840738F061
:101620009F5F5F4F220F331F441FAA1FA9F335D0BE
:101630000E2E3AF0E0E832D091505040E695001C72
:10164000CAF72BD0FE2F29D0660F771F881FBB1F2C
:10165000261737074807AB07B0E809F0BB0B802D0A
:10166000BF01FF2793585F4F3AF09E3F510578F036
:101670000C94B20B0C94FD0B5F3FE4F3983ED4F353
:10168000869577956795B795F7959F5FC9F7880F0A
:10169000911D9695879597F90895E1E0660F771F5C
:1016A000881FBB1F621773078407BA0720F0621BED
:1016B000730B840BBA0BEE1F88F7E09508950E9418
:1016C000E20B88F09F5798F0B92F9927B751B0F0E7
:1016D000E1F0660F771F881F991F1AF0BA95C9F7B6
:1016E00014C0B13091F00E94FC0BB1E008950C944D
:1016F000FC0B672F782F8827B85F39F0B93FCCF300
:10170000869577956795B395D9F73EF49095809532
:10171000709561957F4F8F4F9F4F0895990F0008E7
:10172000550FAA0BE0E8FEEF16161706E807F907B3
:10173000C0F012161306E407F50798F0621B730B4E
:10174000840B950B39F40A2661F0232B242B252BCF
:1017500021F408950A2609F4A140A6958FEF811D72
:10176000811D089597F99F6780E870E060E0089513
:101770009FEF80EC089500240A94161617061806A9
:101780000906089500240A94121613061406050685
:101790000895092E0394000C11F4882352F0BB0F16
:1017A00040F4BF2B11F460FF04C06F5F7F4F8F4F79
:1017B0009F4F089557FD9058440F551F59F05F3FB4
:1017C00071F04795880F97FB991F61F09F3F79F063
:1017D00087950895121613061406551FF2CF4695E5
:1017E000F1DF08C0161617061806991FF1CF869567
:1017F0007105610508940895E894BB27662777274B
:10180000CB0197F908950E948E0B08F48FEF08958D
:101810000E941B0C0C94C90B0E94BB0B38F00E9459
:10182000C20B20F0952311F00C94B20B0C94B80B62
:1018300011240C94FD0B0E94DA0B70F3959FC1F3F9
:10184000950F50E0551F629FF001729FBB27F00D6E
:10185000B11D639FAA27F00DB11DAA1F649F6627C3
:10186000B00DA11D661F829F2227B00DA11D621F12
:10187000739FB00DA11D621F839FA00D611D221FCC
:10188000749F3327A00D611D231F849F600D211DB0
:10189000822F762F6A2F11249F5750409AF0F1F033
:1018A00088234AF0EE0FFF1FBB1F661F771F881F9C
:1018B00091505040A9F79E3F510580F00C94B20B17
:1018C0000C94FD0B5F3FE4F3983ED4F38695779537
:1018D0006795B795F795E7959F5FC1F7FE2B880F42
:0E18E000911D9695879597F90895F894FFCF7E
:1018EE0000404E616172206C696E6B73004E6161D7
:1018FE007220726563687473005265636874646FF6
:10190E006F7200495231004952320041414E00552A
:04191E004954000028
:00000001FF
