:100000000C9472000C947E000C947E000C947E0084
:100010000C947E000C947E000C947E000C947E0068
:100020000C947E000C947E000C947E000C947E0058
:100030000C947E000C947E000C947E000C947E0048
:100040000C947E000C943D010C947E000C947E0078
:100050000C9412010C947E000C947E000C947E0093
:100060000C947E000C947E000C947E000C947E0018
:100070000C947E000C947E000C947E000C947E0008
:100080000C9490010C947E000C947E000C946501FD
:100090000C947E000C947E000C947E000C947E00E8
:1000A0000C947E000C947E000C947E000C947E00D8
:1000B0000C947E000C947E000C947E000C947E00C8
:1000C0000C947E000C947E000C947E000C947E00B8
:1000D0000C947E000C947E000C947E000C947E00A8
:1000E0000C947E0011241FBECFEFD1E2DEBFCDBF46
:1000F00000E00CBF0E94B8010C94B0030C94000007
:10010000CF93DF93CDB7DEB781E890E021E0FC012B
:1001100020838FE690E023E0FC01208388E890E0D4
:10012000FC011182108281E990E021E0FC01208332
:1001300081E790E023E0FC01208388E990E0FC0166
:100140001182108281E290E0FC01208181E290E046
:100150002068FC01208381E290E0FC01208181E2A3
:1001600090E02064FC01208381E290E0FC0120818A
:1001700081E290E02062FC01208381E290E0FC01BA
:10018000208181E290E02061FC01208381E290E007
:10019000FC01208181E290E02860FC01208381E263
:1001A00090E0FC01208181E290E02460FC0120834A
:1001B00082E290E0FC01208182E290E02F77FC0156
:1001C000208382E290E0FC01208182E290E02F7B9C
:1001D000FC01208382E290E0FC01208182E290E039
:1001E0002F7DFC01208382E290E0FC01208182E2ED
:1001F00090E02F7EFC01208382E290E0FC012081D0
:1002000082E290E0277FFC01208382E290E0FC0103
:10021000208182E290E02B7FFC0120830000DF91AF
:10022000CF9108951F920F920FB60F9211240BB623
:100230000F922F933F938F939F93EF93FF93CF93BF
:10024000DF93CDB7DEB782E290E0FC01308182E23D
:1002500090E020E82327FC0120830000DF91CF916C
:10026000FF91EF919F918F913F912F910F900BBE36
:100270000F900FBE0F901F9018951F920F920FB600
:100280000F9211240BB60F922F938F939F93EF939E
:10029000FF93CF93DF93CDB7DEB782E290E0FC010E
:1002A000208182E290E02068FC0120830000DF9141
:1002B000CF91FF91EF919F918F912F910F900BBE56
:1002C0000F900FBE0F901F9018951F920F920FB6B0
:1002D0000F9211240BB60F922F933F938F939F93FE
:1002E000EF93FF93CF93DF93CDB7DEB782E290E039
:1002F000FC01308182E290E024E02327FC0120838E
:100300000000DF91CF91FF91EF919F918F913F91ED
:100310002F910F900BBE0F900FBE0F901F9018954E
:100320001F920F920FB60F9211240BB60F922F93BC
:100330008F939F93EF93FF93CF93DF93CDB7DEB768
:1003400082E290E0FC01208182E290E02460FC01E6
:1003500020830000DF91CF91FF91EF919F918F91CA
:100360002F910F900BBE0F900FBE0F901F901895FE
:10037000CF93DF930F920F92CDB7DEB70E9480002C
:1003800078941A82198289819A818430910509F4BE
:1003900003C189819A818430910509F0A4F789818C
:1003A0009A818330910509F4C2C089819A81833092
:1003B000910509F044F789819A818230910509F409
:1003C00084C089819A818230910509F0E4F689819F
:1003D0009A81009739F089819A818130910509F4D9
:1003E00042C0D1CF80E50E94F10280E50E94300337
:1003F00082E290E0FC01208182E290E02064FC0136
:10040000208382E290E0FC01208182E290E02F7D57
:10041000FC01208382E290E0FC01208182E290E0F6
:100420002F7EFC01208382E290E0FC01208182E2A9
:1004300090E02860FC01208383E290E0FC01808151
:1004400088230CF4C4C083E290E0FC018081882FF3
:1004500090E080749927009709F0B9C083E090E09C
:100460009A838983B4C08BE40E94F10285E50E94DF
:10047000300383E290E0FC01808188237CF083E2FA
:1004800090E0FC018081882F90E08074992700978C
:1004900029F483E090E09A8389839BC083E290E013
:1004A000FC01808188230CF094C083E290E0FC0181
:1004B0008081882F90E080749927009709F489C083
:1004C00084E090E09A83898384C085E50E94F102EC
:1004D0008BE40E94300383E290E0FC01808188235A
:1004E0007CF083E290E0FC018081882F90E08074B2
:1004F0009927009729F483E090E09A8389836BC061
:1005000083E290E0FC01808188230CF064C083E2E8
:1005100090E0FC018081882F90E0807499270097FB
:1005200009F459C084E090E09A83898354C080E53F
:100530000E94F10280E50E94300383E290E0FC011A
:10054000808188232CF481E090E09A83898345C0E0
:1005500083E290E0FC018081882F90E080749927ED
:10056000009729F082E090E09A83898336C083E285
:1005700090E0FC018081882384F583E290E0FC0117
:100580008081882F90E080749927009731F184E072
:1005900090E09A83898321C085E50E94F10288E476
:1005A0000E94300383E290E0FC018081882F90E07C
:1005B00080749927009799F483E290E0FC01808190
:1005C00088236CF083E090E09A83898308C0000060
:1005D000DACE0000D8CE0000D6CE0000D4CE000087
:1005E000D2CE0F931F93CF93DF9300D00F920F9231
:1005F000CDB7DEB78983898188233CF18981843630
:1006000009F01CF58981082E000C990BAA0BBB0B75
:10061000AC01332722272A833B834C835D8304E686
:1006200010E020E030E06A817B818C819D81A9010E
:1006300098010E946F03DA01C901AC01BD0188E88D
:1006400090E09A01FC013183208300000F900F900D
:100650000F900F900F90DF91CF911F910F91089500
:100660000F931F93CF93DF9300D00F920F92CDB7CC
:10067000DEB78983898188233CF18981843609F03A
:100680001CF58981082E000C990BAA0BBB0BAC0141
:10069000332722272A833B834C835D8304E610E0C3
:1006A00020E030E06A817B818C819D81A9019801E5
:1006B0000E946F03DA01C901AC01BD0188E990E035
:1006C0009A01FC013183208300000F900F900F905E
:1006D0000F900F90DF91CF911F910F910895052EEC
:1006E00097FB1EF400940E94860357FD07D00E94DA
:1006F0008E0307FC03D04EF40C948603509540956E
:10070000309521953F4F4F4F5F4F089590958095BD
:10071000709561957F4F8F4F9F4F0895A1E21A2EDC
:10072000AA1BBB1BFD010DC0AA1FBB1FEE1FFF1F95
:10073000A217B307E407F50720F0A21BB30BE40BE5
:10074000F50B661F771F881F991F1A9469F760952C
:100750007095809590959B01AC01BD01CF010895E6
:04076000F894FFCF3B
:00000001FF
