:100000000C9472000C947E000C947E000C947E0084
:100010000C947E000C947E000C947E000C947E0068
:100020000C947E000C947E000C947E000C947E0058
:100030000C947E000C947E000C947E000C947E0048
:100040000C947E000C943E010C947E000C947E0077
:100050000C9413010C947E000C947E000C947E0092
:100060000C947E000C947E000C947E000C947E0018
:100070000C947E000C947E000C947E000C947E0008
:100080000C9491010C947E000C947E000C946601FB
:100090000C947E000C947E000C947E000C947E00E8
:1000A0000C947E000C947E000C947E000C947E00D8
:1000B0000C947E000C947E000C947E000C947E00C8
:1000C0000C947E000C947E000C947E000C947E00B8
:1000D0000C947E000C947E000C947E000C947E00A8
:1000E0000C947E0011241FBECFEFD1E2DEBFCDBF46
:1000F00000E00CBF0E94B9010C94CB020C940000EC
:10010000CF93DF93CDB7DEB784E290E0FC0120818E
:1001100084E290E02068FC01208384E290E0FC010E
:10012000208184E290E02064FC01208384E290E05E
:10013000FC01208184E290E02062FC01208384E2C3
:1001400090E0FC01208184E290E02061FC012083AA
:1001500084E290E0FC01208184E290E02860FC01D0
:10016000208384E290E0FC01208184E290E024601E
:10017000FC01208385E290E0FC01208185E290E093
:100180002F77FC01208385E290E0FC01208185E24D
:1001900090E02F7BFC01208385E290E0FC01208130
:1001A00085E290E02F7DFC01208385E290E0FC0158
:1001B000208185E290E02F7EFC01208385E290E0A3
:1001C000FC01208185E290E0277FFC01208385E20D
:1001D00090E0FC01208185E290E02B7FFC012083F0
:1001E00081E890E024E0FC0120838FE690E023E0AA
:1001F000FC01208388E890E0FC011182108281E9F3
:1002000090E024E0FC01208381E790E023E0FC0102
:10021000208388E990E0FC0111821082789400002C
:10022000DF91CF9108951F920F920FB60F92112474
:100230000BB60F922F933F938F939F93EF93FF9360
:10024000CF93DF93CDB7DEB785E290E0FC0130813C
:1002500085E290E020E82327FC0120830000DF9165
:10026000CF91FF91EF919F918F913F912F910F909F
:100270000BBE0F900FBE0F901F9018951F920F92FC
:100280000FB60F9211240BB60F922F938F939F935B
:10029000EF93FF93CF93DF93CDB7DEB785E290E086
:1002A000FC01208185E290E02068FC0120830000B1
:1002B000DF91CF91FF91EF919F918F912F910F90AF
:1002C0000BBE0F900FBE0F901F9018951F920F92AC
:1002D0000FB60F9211240BB60F922F933F938F936B
:1002E0009F93EF93FF93CF93DF93CDB7DEB785E274
:1002F00090E0FC01308185E290E024E02327FC01BE
:1003000020830000DF91CF91FF91EF919F918F911A
:100310003F912F910F900BBE0F900FBE0F901F902B
:1003200018951F920F920FB60F9211240BB60F92D1
:100330002F938F939F93EF93FF93CF93DF93CDB73B
:10034000DEB785E290E0FC01208185E290E0246048
:10035000FC0120830000DF91CF91FF91EF919F91ED
:100360008F912F910F900BBE0F900FBE0F901F908B
:100370001895CF93DF93CDB7DEB70E94800084E15C
:100380000E94EB0184E10E942D0284E290E0FC01D6
:10039000208184E290E02F7BFC01208384E290E0C6
:1003A000FC01208184E290E02062FC01208384E251
:1003B00090E0FC01208184E290E02F7EFC0120830C
:1003C00084E290E0FC01208184E290E02860FC015E
:1003D00020830000DACF0F931F93CF93DF9300D0D9
:1003E0000F920F92CDB7DEB789838981882354F1AC
:1003F0008981843609F034F58981482F880F550B9F
:10040000660B770B8FEF9FEFDC019A01AB010E9427
:100410008F026A837B838C839D8304E610E020E057
:1004200030E06A817B818C819D81A90198010E94C5
:100430007002DA01C901AC01BD0187E490E0242F0C
:10044000FC01208300000F900F900F900F900F90F1
:10045000DF91CF911F910F9108950F931F93CF9329
:10046000DF9300D00F920F92CDB7DEB789838981D9
:1004700088235CF18981843609F03CF58981482F15
:10048000880F550B660B770B8FEF9FEFDC019A01FE
:10049000AB010E948F026A837B838C839D8304E679
:1004A00010E020E030E06A817B818C819D81A90190
:1004B00098010E947002DA01C901AC01BD0188E90E
:1004C00090E09A01FC013183208300000F900F908F
:1004D0000F900F900F90DF91CF911F910F91089582
:1004E000052E97FB1EF400940E94870257FD07D04B
:1004F0000E949A0207FC03D04EF40C948702509598
:100500004095309521953F4F4F4F5F4F08959095FF
:100510008095709561957F4F8F4F9F4F08950E94F2
:10052000BC02A59F900DB49F900DA49F800D911DBE
:1005300011240895A1E21A2EAA1BBB1BFD010DC0B8
:10054000AA1FBB1FEE1FFF1FA217B307E407F50783
:1005500020F0A21BB30BE40BF50B661F771F881F5F
:10056000991F1A9469F760957095809590959B01F5
:10057000AC01BD01CF010895A29FB001B39FC0019E
:10058000A39F700D811D1124911DB29F700D811DBF
:0A0590001124911D0895F894FFCF87
:00000001FF
