:100000000C9472000C94A8070C94F9070C949300BC
:100010000C9493000C9493000C9493000C94930014
:100020000C9493000C9493000C9493000C94930004
:100030000C9493000C9493000C9493000C949300F4
:100040000C9493000C9493000C9493000C949300E4
:100050000C9493000C9493000C9493000C949300D4
:100060000C9493000C9493000C9493000C949300C4
:100070000C9493000C9493000C9493000C949300B4
:100080000C9493000C9493000C9493000C949300A4
:100090000C9493000C9493000C9493000C94930094
:1000A0000C9493000C9493000C9493000C94930084
:1000B0000C9493000C9493000C9493000C94930074
:1000C0000C9493000C9493000C9493000C94930064
:1000D0000C9493000C9493000C9493000C94930054
:1000E0000C94930011241FBECFEFD1E2DEBFCDBF31
:1000F00000E00CBF12E0A0E0B2E0E8E7FCE100E0C5
:100100000BBF02C007900D92AC32B107D9F722E0C5
:10011000ACE2B2E001C01D92A633B207E1F70E9443
:100120004A080C943A0E0C9400000F931F93CF933F
:10013000DF93CDB7DEB7C25BD1090FB6F894DEBF4F
:100140000FBECDBF8AE091E0DC012C918AE091E006
:100150002760FC0120839E012F5B3F4F80E090E0F1
:10016000A0E7B1E4F90180839183A283B3838E0178
:100170000B5B1F4FCE018F5B9F4F20E030E04AE7C3
:1001800055E4DC016D917D918D919C910E948D0DC6
:100190006F966CAF7DAF8EAF9FAF6F976F968CAD44
:1001A0009DADAEADBFAD6F97F80180839183A28303
:1001B000B383CE018B5B9F4F20E030E040E85FE3EC
:1001C000DC016D917D918D919C910E94290C882379
:1001D0004CF4CE01875B9F4F21E030E0FC0131837E
:1001E000208395C0CE018B5B9F4F20E03FEF4FE710
:1001F00057E4DC016D917D918D919C910E94880D59
:10020000882309F00CF469C0CE018F5B9F4F20E07A
:1002100030E040E251E4FC01608171818281938190
:100220000E948D0DA3966CAF7DAF8EAF9FAFA3974D
:10023000A3968CAD9DADAEADBFADA3976B968CAFC5
:100240009DAFAEAFBFAF6B978E01075B1F4F6B9635
:100250006CAD7DAD8EAD9FAD6B970E94A70CA79640
:100260006CAF7DAF8EAF9FAFA797A596EEADFFADFC
:10027000A597D8011196FC93EE9326C0CE01855B1D
:100280009F4F20E931E0DC012D933C93CE01855B4B
:100290009F4FFC01808191810197F1F79E01255BC1
:1002A0003F4FD9018D939C930000CE01875B9F4FF8
:1002B0009E01275B3F4FF901208131812150310997
:1002C000DC0111963C932E93CE01875B9F4FFC017E
:1002D00080819181009791F635C08E01075B1F4F99
:1002E000CE018B5B9F4FDC016D917D918D919C9137
:1002F0000E94A70CAB966CAF7DAF8EAF9FAFAB9754
:10030000A9968EAD9FADA997F80191838083CE0108
:10031000835B9F4F9E01275B3F4FD9012D913C91FD
:10032000FC0131832083CE01835B9F4FDC018D91E3
:100330009C910197F1F79E01235B3F4FF901918357
:10034000808300000E94A90688E30E94200680E0C6
:1003500090E0A8E4B2E489A39AA3ABA3BCA32BEAE0
:100360003AEA4AEA50E469A17AA18BA19CA10E94D1
:100370008D0DAF966CAF7DAF8EAF9FAFAF97AF9641
:100380008CAD9DADAEADBFADAF978DA39EA3AFA31A
:10039000B8A720E030E040E850E469A17AA18BA141
:1003A0009CA10E948D0DE3966CAF7DAF8EAF9FAF89
:1003B000E397E3968CAD9DADAEADBFADE39789A756
:1003C0009AA7ABA7BCA720E030E040E85FE36DA1AF
:1003D0007EA18FA198A50E94290C88231CF481E09E
:1003E0008DA70FC120E03FEF4FE757E469A57AA53D
:1003F0008BA59CA50E94880D882309F00CF4BEC033
:1004000020E030E04AE754E469A17AA18BA19CA1E5
:100410000E942E0CE7966CAF7DAF8EAF9FAFE79733
:10042000E7968CAD9DADAEADBFADE7978EA79FA70C
:10043000A8ABB9AB20E030E04AE755E46EA57FA554
:1004400088A999A90E948D0DEB966CAF7DAF8EAFF8
:100450009FAFEB97EB968CAD9DADAEADBFADEB977F
:100460008AAB9BABACABBDAB20E030E040E85FE3D8
:100470006AA97BA98CA99DA90E94290C88232CF428
:1004800081E090E09FAB8EAB6EC020E03FEF4FE786
:1004900057E46AA97BA98CA99DA90E94880D88238D
:1004A00009F00CF44AC020E030E040E251E46EA5CF
:1004B0007FA588A999A90E948D0DEF966CAF7DAF9D
:1004C0008EAF9FAFEF97EF968CAD9DADAEADBFAD4C
:1004D000EF9767968CAF9DAFAEAFBFAF679767964C
:1004E0006CAD7DAD8EAD9FAD67970E94A70CC158D6
:1004F000DF4F688379838A839B83CF57D040C1586D
:10050000DF4FA881B981CF57D040BFABAEAB10C091
:1005100080E991E099AF88AF88AD99AD0197F1F787
:1005200099AF88AF00008EA99FA901979FAB8EABB2
:100530008EA99FA9009761F764C06AA97BA98CA9BD
:100540009DA90E94A70CCD57DF4F688379838A83CA
:100550009B83C358D040CD57DF4FE881F981C35802
:10056000D040FFABEEAB8EA99FA99BAF8AAF8AADFF
:100570009BAD0197F1F79BAF8AAF43C020E030E01D
:100580004FE753E46DA17EA18FA198A50E94880D2D
:10059000882319F114F169A57AA58BA59CA50E9461
:1005A000A70CC957DF4F688379838A839B83C75819
:1005B000D040C957DF4F88819981C758D0409DAF3F
:1005C0008CAF8CAD9DAD9FAF8EAF8EAD9FAD0197C3
:1005D000F1F79FAF8EAF000028C06DA17EA18FA163
:1005E00098A50E94A70CC557DF4F688379838A833B
:1005F0009B83CB58D040C557DF4F9881CB58D04014
:100600009DA72DA5CE01805C9F4FDC012C93CE01D0
:10061000805C9F4FFC018081282F2A95F1F7CE0145
:10062000805C9F4FDC012C9300008CE00E94200630
:1006300080E090E0A8E4B2E489839A83AB83BC8332
:100640002BEA3AEA4AEA50E469817A818B819C81FB
:100650000E948D0DC157DF4F688379838A839B8306
:10066000CF58D040C157DF4F88819981AA81BB8183
:10067000CF58D0408D839E83AF83B88720E030E091
:1006800040E850E469817A818B819C810E948D0DC4
:10069000CD56DF4F688379838A839B83C359D040CB
:1006A000CD56DF4F88819981AA81BB81C359D04043
:1006B00089879A87AB87BC8720E030E040E85FE31A
:1006C0006D817E818F8198850E94290C88231CF47E
:1006D00081E08D871BC120E03FEF4FE757E469853C
:1006E0007A858B859C850E94880D882309F00CF4FF
:1006F000CAC020E030E04AE754E469817A818B8106
:100700009C810E942E0CC956DF4F688379838A83AF
:100710009B83C759D040C956DF4F88819981AA81F0
:10072000BB81C759D0408E879F87A88BB98B20E0AB
:1007300030E04AE755E46E857F85888999890E9473
:100740008D0DC556DF4F688379838A839B83CB5990
:10075000D040C556DF4F88819981AA81BB81CB5992
:10076000D0408A8B9B8BAC8BBD8B20E030E040E887
:100770005FE36A897B898C899D890E94290C882383
:100780002CF481E090E09F8B8E8B72C020E03FEFD5
:100790004FE757E46A897B898C899D890E94880D7F
:1007A000882309F00CF44EC020E030E040E251E430
:1007B0006E857F85888999890E948D0DC156DF4F8E
:1007C000688379838A839B83CF59D040C156DF4F9A
:1007D00088819981AA81BB81CF59D04063968CAF23
:1007E0009DAFAEAFBFAF639763966CAD7DAD8EAD81
:1007F0009FAD63970E94A70CCD55DF4F6883798327
:100800008A839B83C35AD040CD55DF4FA881B981DD
:10081000C35AD040BF8BAE8B10C080E991E0998F56
:10082000888F888D998D0197F1F7998F888F0000B7
:100830008E899F8901979F8B8E8B8E899F890097C8
:1008400061F764C06A897B898C899D890E94A70CA5
:10085000C955DF4F688379838A839B83C75AD04009
:10086000C955DF4FE881F981C75AD040FF8BEE8B25
:100870008E899F899B8F8A8F8A8D9B8D0197F1F737
:100880009B8F8A8F43C020E030E04FE753E46D81B7
:100890007E818F8198850E94880D882319F114F13B
:1008A00069857A858B859C850E94A70CC555DF4F8D
:1008B000688379838A839B83CB5AD040C555DF4FA9
:1008C00088819981CB5AD0409D8F8C8F8C8D9D8D46
:1008D0009F8F8E8F8E8D9F8D0197F1F79F8F8E8FBB
:1008E00000001BC06D817E818F8198850E94A70CBE
:1008F000C155DF4F688379838A839B83CF5AD04069
:10090000C155DF4F9881CF5AD0409D878D8588A3F0
:1009100088A18A95F1F788A300000000CE54DF4F2C
:100920000FB6F894DEBF0FBECDBFDF91CF911F9100
:100930000F910895CF93DF93CDB7DEB787E290E0B4
:10094000FC0110828BE091E0FC0120818BE091E0C2
:100950002260FC0120838BE091E0FC0120818BE090
:1009600091E02E7FFC01208302C00E94C60488E231
:1009700090E0FC0180818823C4F387E290E02FEFB0
:10098000FC0120830000DF91CF910895CF93DF9386
:10099000CDB7DEB7C854D1090FB6F894DEBF0FBE8D
:1009A000CDBF8BE091E0DC012C918BE091E02460E5
:1009B000FC01208380E090E0A8E4B2E489839A837C
:1009C000AB83BC832BEA3AEA4AEA50E469817A8134
:1009D0008B819C810E948D0D6DA37EA38FA398A710
:1009E0008DA19EA1AFA1B8A58D839E83AF83B8874B
:1009F00020E030E040E850E469817A818B819C817D
:100A00000E948D0D69A77AA78BA79CA789A59AA597
:100A1000ABA5BCA589879A87AB87BC8720E030E06F
:100A200040E85FE36D817E818F8198850E94290C6B
:100A300088231CF481E08D87E8C020E03FEF4FE77A
:100A400057E469857A858B859C850E94880D88236B
:100A500009F00CF49FC020E030E04AE754E46981DB
:100A60007A818B819C810E942E0C6DA77EA78FA717
:100A700098AB8DA59EA5AFA5B8A98E879F87A88B9B
:100A8000B98B20E030E04AE755E46E857F858889A0
:100A900099890E948D0D69AB7AAB8BAB9CAB89A910
:100AA0009AA9ABA9BCA98A8B9B8BAC8BBD8B20E090
:100AB00030E040E85FE36A897B898C899D890E94E8
:100AC000290C88232CF481E090E09F8B8E8B57C0FB
:100AD00020E03FEF4FE757E46A897B898C899D8945
:100AE0000E94880D8823D9F1D4F120E030E040E263
:100AF00051E46E857F85888999890E948D0D6DAB43
:100B00007EAB8FAB98AF8DA99EA9AFA9B8AD89A3D5
:100B10009AA3ABA3BCA369A17AA18BA19CA10E94BB
:100B2000A70C69AF7AAF8BAF9CAFA9ADBAADBF8B45
:100B3000AE8B10C080E991E0998F888F888D998D58
:100B40000197F1F7998F888F00008E899F8901970F
:100B50009F8B8E8B8E899F89009761F756C06A891B
:100B60007B898C899D890E94A70C21966CAF7DAFF3
:100B70008EAF9FAF2197EDADFEADFF8BEE8B8E89D3
:100B80009F899B8F8A8F8A8D9B8D0197F1F79B8F11
:100B90008A8F3BC020E030E04FE753E46D817E81D7
:100BA0008F8198850E94880D8823F9F0F4F069857B
:100BB0007A858B859C850E94A70C25966CAF7DAFAE
:100BC0008EAF9FAF259723968EAD9FAD23979D8FB8
:100BD0008C8F8C8D9D8D9F8F8E8F8E8D9F8D01978D
:100BE000F1F79F8F8E8F000017C06D817E818F81FE
:100BF00098850E94A70C29966CAF7DAF8EAF9FAFF2
:100C0000299726969FAD26979D878D8588A388A1D5
:100C10008A95F1F788A300008BE091E0DC012C912C
:100C20008BE091E02B7FFC0120830000C85BDF4F4D
:100C30000FB6F894DEBF0FBECDBFDF91CF91089500
:100C4000CF93DF930F92CDB7DEB789830E949A04CA
:100C500088E290E02981FC0120838BE091E0FC0197
:100C600020818BE091E02C7FFC0120830E94C60450
:100C700088E290E0FC01108200000F90DF91CF919C
:100C80000895CF93DF930F92CDB7DEB789830E948B
:100C90009A0488E290E02981FC0120838BE091E0B6
:100CA000FC0120818BE091E02D7FFC0120838BE013
:100CB00091E0FC0120818BE091E02160FC01208328
:100CC0000E94C60488E290E0FC01108200000F90B0
:100CD000DF91CF910895CF93DF930F920F92CDB70D
:100CE000DEB79A8389830BC089819A819C012F5F2B
:100CF0003F4F3A832983FC0180810E94410689810C
:100D00009A81FC018081882309F074F700000000BB
:100D10000F900F90DF91CF910895CF93DF930F92B3
:100D20000F92CDB7DEB789836A838A81882F90E0DE
:100D3000019780509E4FFC018081982F8981890FF7
:100D400081580E94200600000F900F90DF91CF91F4
:100D50000895CF93DF93CDB7DEB7A2970FB6F8947F
:100D6000DEBF0FBECDBF81E00E94200680E090E094
:100D7000A0E0B0E489839A83AB83BC8320E030E0B9
:100D80004AE755E469817A818B819C810E948D0DAF
:100D90006B8B7C8B8D8B9E8B8B899C89AD89BE895F
:100DA0008D839E83AF83B88720E030E040E85FE327
:100DB0006D817E818F8198850E94290C88232CF477
:100DC00081E090E09A87898755C020E03FEF4FE7A8
:100DD00057E46D817E818F8198850E94880D8823DC
:100DE000D9F1D4F120E030E040E251E469817A8128
:100DF0008B819C810E948D0D6F8B788F898F9A8F4C
:100E00008F89988DA98DBA8D8F87988BA98BBA8B76
:100E10006F85788989899A890E94A70C6B8F7C8F4E
:100E20008D8F9E8FAB8DBC8DBA87A98710C080E94E
:100E300091E09C878B878B859C850197F1F79C8738
:100E40008B87000089859A8501979A87898789858C
:100E50009A85009761F719C06D817E818F81988591
:100E60000E94A70C6F8F78A389A39AA38F8D98A156
:100E70009A87898789859A859E878D878D859E85A6
:100E80000197F1F79E878D8700000000A2960FB6AC
:100E9000F894DEBF0FBECDBFDF91CF910895CF9301
:100EA000DF93CDB7DEB781E890E0FC01208181E8D7
:100EB00090E02160FC01208381E990E0FC01208129
:100EC00081E990E02160FC01208384E290E0FC0154
:100ED000208184E290E02061FC01208384E290E0A4
:100EE000FC01208184E290E02062FC0120838DE3FC
:100EF00090E0FC0120818DE390E02160FC012083E3
:100F000089E690E0FC01208189E690E02160FC0107
:100F100020838DE390E0FC0120818DE390E022604E
:100F2000FC01208389E690E0FC01208189E690E0C5
:100F30002460FC01208381E091E0FC01208181E0BC
:100F400091E02064FC0120830000DF91CF9108959F
:100F50001F920F920FB60F9211240BB60F922F9380
:100F60008F939F93EF93FF93CF93DF93CDB7DEB72C
:100F7000809130029091310281309105B1F481E885
:100F800090E0FC01108284E890E0FC018081918176
:100F900090932D0280932C0284E890E0FC01118252
:100FA00010821092310210923002809130029091A2
:100FB0003102009779F481E890E0FC01208181E81A
:100FC00090E02160FC01208381E090E09093310269
:100FD000809330020000DF91CF91FF91EF919F91BC
:100FE0008F912F910F900BBE0F900FBE0F901F90FF
:100FF00018951F920F920FB60F9211240BB60F92F5
:101000002F938F939F93EF93FF93CF93DF93CDB75E
:10101000DEB7809132029091330281309105B1F4B4
:1010200081E990E0FC01108284E990E0FC0180817C
:10103000918190932F0280932E0284E990E0FC012D
:101040001182108210923302109232028091320289
:1010500090913302009779F481E990E0FC012081BE
:1010600081E990E02160FC01208381E090E0909391
:101070003302809332020000DF91CF91FF91EF9114
:101080009F918F912F910F900BBE0F900FBE0F90DD
:101090001F901895CF93DF93CDB7DEB7C85BD1090A
:1010A0000FB6F894DEBF0FBECDBF0E944F077894F5
:1010B0000E9495001C821B821E821D8283E090E0AC
:1010C0009A83898385E290E0DC012C9185E290E0AF
:1010D0002061FC01208385E290E0DC012C9185E217
:1010E00090E02062FC01208380E090E0A0E7B1E482
:1010F0008F839887A987BA872BEA3AEA4AEA50E4AD
:101100006F81788589859A850E948D0DE1966CAFF7
:101110007DAF8EAF9FAFE197E1962CAD3DAD4EAD6B
:101120005FADE1972B873C874D875E8720E030E0FD
:1011300040E850E46F81788589859A850E948D0DFD
:10114000E5966CAF7DAF8EAF9FAFE597E5968CAD22
:101150009DADAEADBFADE5978F87988BA98BBA8B50
:1011600020E030E040E85FE36B857C858D859E85DF
:101170000E94290C88231CF481E08B8B13C120E092
:101180003FEF4FE757E46F85788989899A890E94F4
:10119000880D882309F00CF4C2C020E030E04AE753
:1011A00054E46F81788589859A850E942E0CE99692
:1011B0006CAF7DAF8EAF9FAFE997E9968CAD9DADDB
:1011C000AEADBFADE9978C8B9D8BAE8BBF8B20E016
:1011D00030E04AE755E46C897D898E899F890E94B9
:1011E0008D0DED966CAF7DAF8EAF9FAFED97ED9609
:1011F0002CAD3DAD4EAD5FADED97288F398F4A8F49
:101200005B8F20E030E040E85FE3688D798D8A8D68
:101210009B8D0E94290C88232CF481E090E09D8F07
:101220008C8F72C020E03FEF4FE757E4688D798DD7
:101230008A8D9B8D0E94880D882309F00CF44EC086
:1012400020E030E040E251E46C897D898E899F89FD
:101250000E948D0DC358DF4F688379838A839B83F7
:10126000CD57D040C358DF4F88819981AA81BB8177
:10127000CD57D040A9968CAF9DAFAEAFBFAFA99769
:10128000A9966CAD7DAD8EAD9FADA9970E94A70CC0
:10129000CF57DF4F688379838A839B83C158D040BF
:1012A000CF57DF4FA881B981C158D040BD8FAC8FD7
:1012B00010C080E991E09F8F8E8F8E8D9F8D01975A
:1012C000F1F79F8F8E8F00008C8D9D8D01979D8FE4
:1012D0008C8F8C8D9D8D009761F764C0688D798DA2
:1012E0008A8D9B8D0E94A70CCB57DF4F6883798333
:1012F0008A839B83C558D040CB57DF4FE881F98163
:10130000C558D040FD8FEC8F8C8D9D8D99A388A3FF
:1013100088A199A10197F1F799A388A343C020E080
:1013200030E04FE753E46B857C858D859E850E9478
:10133000880D882319F114F16F85788989899A8934
:101340000E94A70CC757DF4F688379838A839B83EA
:10135000C958D040C757DF4F28813981C958D0407C
:101360003BA32AA38AA19BA19DA38CA38CA19DA191
:101370000197F1F79DA38CA300001BC06B857C85B2
:101380008D859E850E94A70CC357DF4F68837983A4
:101390008A839B83CD58D040C357DF4F3881CD58C7
:1013A000D0403B8B8B898EA38EA18A95F1F78EA3BB
:1013B000000085E290E0DC012C9185E290E02F7E38
:1013C000FC01208385E290E0DC012C9185E290E035
:1013D0002F7DFC01208380912C0290912D029C0195
:1013E000990F440B550BCF56DF4F288339834A831F
:1013F0005B83C159D040CF56DF4F688179818A81A4
:101400009B81C159D0400E94D80C69966CAF7DAFCA
:101410008EAF9FAF699722EB3DE94FE25CE369969F
:101420006CAD7DAD8EAD9FAD69970E948D0DCB5695
:10143000DF4F688379838A839B83C559D040CB561D
:10144000DF4F88819981AA81BB81C559D0406D96B3
:101450008CAF9DAFAEAFBFAF6D976D966CAD7DADF0
:101460008EAD9FAD6D970E94A00CC756DF4F68836D
:1014700079838A839B83C959D040C756DF4FA8819F
:10148000B981C959D040BC83AB8380912E02909121
:101490002F029C01990F440B550BC356DF4F288335
:1014A00039834A835B83CD59D040C356DF4F68816F
:1014B00079818A819B81CD59D0400E94D80CA19618
:1014C0006CAF7DAF8EAF9FAFA19722EB3DE94FE2AE
:1014D0005CE3A1966CAD7DAD8EAD9FADA1970E94F2
:1014E0008D0DCF55DF4F688379838A839B83C15AE3
:1014F000D040CF55DF4F88819981AA81BB81C15AE5
:10150000D040A5968CAF9DAFAEAFBFAFA597A596C7
:101510006CAD7DAD8EAD9FADA5970E94A00CCB5557
:10152000DF4F688379838A839B83C55AD040CB552C
:10153000DF4FA881B981C55AD040BE83AD839E01DB
:101540002B5C3F4F8B819C814AE050E0B9010E94A7
:10155000FA0D9E012B5B3F4F8D819E814AE050E04A
:10156000B9010E94FA0D89819A818330910509F4AD
:1015700064C089819A818330910511F00CF091C08B
:1015800089819A818130910531F089819A818230F7
:10159000910531F186C061E081E00E948D0682E014
:1015A00092E00E946B068D819E818133910509F046
:1015B00034F48D819E81009711F00CF06DC08B8109
:1015C0009C818133910509F034F48B819C810097D3
:1015D00011F00CF061C083E090E09A8389835CC0D5
:1015E00061E081E00E948D068DE092E00E946B0632
:1015F00082E091E0FC01208182E091E02064DC0146
:101600002C938D819E818133910509F034F48D8175
:101610009E81009711F00CF041C08B819C81813339
:10162000910509F02CF48B819C81009709F0B4F5A9
:1016300083E090E09A83898331C061E081E00E9479
:101640008D0689E192E00E946B0682E091E0FC0148
:10165000208182E091E02F7BDC012C938B819C81A7
:101660008233910509F04CF48B819C8199232CF0F5
:1016700081E090E09A83898313C08D819E818233BB
:10168000910509F06CF48D819E8199234CF082E0E4
:1016900090E09A83898304C0000003C0000001C069
:1016A000000062E081E00E948D0683E292E00E94E9
:1016B0006B0662E084E00E948D06CE01C5960E9412
:1016C0006B0662E088E00E948D0687E292E00E944D
:1016D0006B0662E08BE00E948D06CE018B5B9F4F14
:1016E0000E946B0680E090E0A0E2B1E48FA398A78F
:1016F000A9A7BAA720E030E04AE755E46FA178A592
:1017000089A59AA50E948D0DC755DF4F68837983FF
:101710008A839B83C95AD040C755DF4F28813981BE
:101720004A815B81C95AD0402BA73CA74DA75EA731
:1017300020E030E040E85FE36BA57CA58DA59EA589
:101740000E94290C88232CF481E090E098AB8FA7AD
:1017500072C020E03FEF4FE757E46BA57CA58DA555
:101760009EA50E94880D882309F00CF44EC020E04D
:1017700030E040E251E46FA178A589A59AA50E94C6
:101780008D0DC355DF4F688379838A839B83CD5A40
:10179000D040C355DF4F88819981AA81BB81CD5A42
:1017A000D040AD968CAF9DAFAEAFBFAFAD97AD960D
:1017B0006CAD7DAD8EAD9FADAD970E94A70CCF54A3
:1017C000DF4F688379838A839B83C15BD040CF548A
:1017D000DF4FA881B981C15BD040B8ABAFA710C0C3
:1017E00080E991E09AAB89AB89A99AA90197F1F7B1
:1017F0009AAB89AB00008FA598A9019798AB8FA7EA
:101800008FA598A9009761F721C06BA57CA58DA530
:101810009EA50E94A70CCB54DF4F688379838A83EF
:101820009B83C55BD040CB54DF4FE881F981C55B1A
:10183000D040F8ABEFA78FA598A99CAB8BAB8BA939
:101840009CA90197F1F79CAB8BAB00000E94A90605
:1018500039CC0E94130D08F481E008950E94420CD7
:101860000C944E0D0E94470D58F00E94400D40F020
:1018700029F45F3F29F00C94370D51110C94820D1F
:101880000C943D0D0E945F0D68F39923B1F355232D
:1018900091F3951B550BBB27AA2762177307840783
:1018A00038F09F5F5F4F220F331F441FAA1FA9F319
:1018B00035D00E2E3AF0E0E832D091505040E69507
:1018C000001CCAF72BD0FE2F29D0660F771F881F68
:1018D000BB1F261737074807AB07B0E809F0BB0B5B
:1018E000802DBF01FF2793585F4F3AF09E3F51056F
:1018F00078F00C94370D0C94820D5F3FE4F3983E22
:10190000D4F3869577956795B795F7959F5FC9F757
:10191000880F911D9695879597F90895E1E0660FD8
:10192000771F881FBB1F621773078407BA0720F051
:10193000621B730B840BBA0BEE1F88F7E0950895BA
:101940000E94A70C6894B1110C94820D08950E9416
:10195000670D88F09F5798F0B92F9927B751B0F0CD
:10196000E1F0660F771F881F991F1AF0BA95C9F723
:1019700014C0B13091F00E94810DB1E008950C9433
:10198000810D672F782F8827B85F39F0B93FCCF3E6
:10199000869577956795B395D9F73EF490958095A0
:1019A000709561957F4F8F4F9F4F0895E89409C0C0
:1019B00097FB3EF490958095709561957F4F8F4F82
:1019C0009F4F9923A9F0F92F96E9BB279395F69598
:1019D000879577956795B795F111F8CFFAF4BB0F16
:1019E00011F460FF1BC06F5F7F4F8F4F9F4F16C07A
:1019F000882311F096E911C0772321F09EE8872F04
:101A0000762F05C0662371F096E8862F70E060E0BF
:101A10002AF09A95660F771F881FDAF7880F969538
:101A2000879597F90895990F0008550FAA0BE0E8DC
:101A3000FEEF16161706E807F907C0F01216130690
:101A4000E407F50798F0621B730B840B950B39F4D0
:101A50000A2661F0232B242B252B21F408950A2636
:101A600009F4A140A6958FEF811D811D089597F976
:101A70009F6780E870E060E008959FEF80EC089534
:101A800000240A941616170618060906089500245D
:101A90000A9412161306140605060895092E0394D7
:101AA000000C11F4882352F0BB0F40F4BF2B11F44B
:101AB00060FF04C06F5F7F4F8F4F9F4F089557FDAA
:101AC0009058440F551F59F05F3F71F04795880FAC
:101AD00097FB991F61F09F3F79F087950895121643
:101AE00013061406551FF2CF4695F1DF08C01616EF
:101AF00017061806991FF1CF8695710561050894A0
:101B00000895E894BB2766277727CB0197F90895B6
:101B10000E94130D08F48FEF08950E94A00D0C94FD
:101B20004E0D0E94400D38F00E94470D20F0952385
:101B300011F00C94370D0C943D0D11240C94820D72
:101B40000E945F0D70F3959FC1F3950F50E0551FF4
:101B5000629FF001729FBB27F00DB11D639FAA2702
:101B6000F00DB11DAA1F649F6627B00DA11D661F51
:101B7000829F2227B00DA11D621F739FB00DA11D72
:101B8000621F839FA00D611D221F749F3327A00D2C
:101B9000611D231F849F600D211D822F762F6A2FC8
:101BA00011249F5750409AF0F1F088234AF0EE0F2D
:101BB000FF1FBB1F661F771F881F91505040A9F75A
:101BC0009E3F510580F00C94370D0C94820D5F3FC1
:101BD000E4F3983ED4F3869577956795B795F79596
:101BE000E7959F5FC1F7FE2B880F911D969587950E
:101BF00097F908954532510520F4423010F00C94C5
:101C0000050EFB011082CB010895BB274A3031F449
:101C1000992322F4BDE2909581959F4F0C94110E6B
:101C2000BB27FB015527AA27880F991FAA1FA417B6
:101C300010F0A41B83955051B9F7A05DAA3308F0AA
:101C4000A95DA193009779F7B111B1931192CB01DE
:101C50000C942A0EDC01FC01672F71917723E1F7C8
:101C6000329704C07C916D9370836291AE17BF0769
:081C7000C8F30895F894FFCFBA
:101C780000404E616172206C696E6B73004E616149
:101C88007220726563687473005265636874646F68
:0C1C98006F72004131200041322000003A
:00000001FF
